:020000040800F2
:10000000403500204D0200084D2E0008AD200008AC
:10001000052C0008151B00087B3A000800000000B2
:10002000000000000000000000000000B501000812
:10003000191B000800000000F9010008BD36000887
:1000400067020008670200086702000867020008EC
:1000500067020008670200086702000867020008DC
:1000600067020008670200086702000867020008CC
:1000700067020008670200086702000867020008BC
:1000800067020008670200086702000867020008AC
:10009000670200086702000867020008670200089C
:1000A000670200086702000867020008670200088C
:1000B000670200086702000867020008670200087C
:1000C000670200086702000867020008670200086C
:1000D00067020008F5370008453800086702000885
:1000E00067020008670200086702000800F002F8D3
:1000F00000F050F80AA090E8000C82448344AAF172
:100100000107DA4501D100F045F8AFF2090EBAE86F
:100110000F0013F0010F18BFFB1A43F0010318473B
:100120002C8400004C840000103A24BF78C878C1A9
:10013000FAD8520724BF30C830C144BF04680C60ED
:10014000704700000023002400250026103A28BF35
:1001500078C1FBD8520728BF30C148BF0B60704739
:10016000662906F0BC84642900F0E280752900F05D
:10017000DF80732900F01585002070471FB500F05F
:1001800059FD04000020002106F0E8F8E0601FBDE2
:1001900010B510BD00F056FE1146FFF7EFFF03F05B
:1001A000B1FD00F074FE03B4FFF7F2FF03BC03F0EF
:1001B000ACFC0000224B19680868B0E8F00F80F32F
:1001C0000988BFF36F8F4FF0000080F311884EF065
:1001D0000D0E70470000000006480068006880F3BC
:1001E000088862B661B6BFF34F8FBFF36F8F00DF31
:1001F00000BF00BF08ED00E0EFF30980BFF36F8F91
:100200000F4B1A6820E9F00F106008B54FF050004E
:1002100080F31188BFF34F8FBFF36F8F05F05EFC43
:100220004FF0000080F31188BDE8084019680868A5
:10023000B0E8F00F80F30988BFF36F8F704700BFFD
:100240006C000020EFF305807047000009488047EC
:1002500009480047FEE7FEE7FEE7FEE7FEE7FEE7A8
:10026000FEE7FEE7FEE7FEE704480549054A064BC0
:1002700070470000C5360008ED000008402F002040
:100280004035002040310020403100207047000000
:100290000FB4044910B503AA029800F087FC10BC03
:1002A0005DF814FB680000200FB41CB50C0007AA11
:1002B000009001D02044401E074B7B4469460190CA
:1002C000069800F03CFC002C03D06946002000F0AA
:1002D00049FC1CBC5DF814FBB108000070B50C466D
:1002E0000546012A05D02878800600D5EA69002352
:1002F00002E0012305E05B1C934202D2E05C00288F
:10030000F9D1A869E618C01AA861286A18442862B9
:100310002846AFF3008004E0D5E9012114F8010B71
:100320009047B442F8D32846AFF3008070BD000078
:100330002DE9F0410646002410687529314616A5BE
:1003400010D0AFF30080002802DA404213A507E086
:1003500031688A0701D512A502E0490704D511A525
:10036000012401E0AFF3008000210A2206F12407F6
:1003700009E0B0FBF2FCB0FBF2F302FB1C003030F2
:1003800078541846491C0028F3D123462A463046A3
:10039000BDE8F04100F065B9000000002D0000004C
:1003A0002B000000200000002DE9F0474FF0000A6C
:1003B00089460446C0F820A02046E1688847002806
:1003C00076D0252806D0D4E901219047206A401C28
:1003D0002062F1E7E168204600258847C4F81CA0A8
:1003E00006460027C4F818A02A2E09D0304603F08C
:1003F00085FB38B304EB8708303EC8F8186019E075
:1004000059F8041B204604EB87029161E168884794
:10041000012F064618D1E069002820DA25F02005D2
:100420001DE0D8F8180000EB800006EB40003038E3
:10043000C8F818002046E1688847064603F05EFBCE
:100440000028EED1012F0AD02E2E08D12046E168D7
:1004500088477F1C0646022F45F02005C4DBA069B3
:10046000002803DA404245F00105A061E80701D009
:1004700025F01005B6B1A6F14100192802D82036A2
:1004800045F400654A463146204625604D46FFF753
:1004900067FE58B1012806D0ED1D25F0070000F1D8
:1004A000080989E704E005F1040985E730468AE791
:1004B000206ABDE8F08730B505460B462A4613F89A
:1004C000014B12F8010B08B1A042F8D01CB1002872
:1004D00002D06D1CF1E7284630BD10B5431C02E088
:1004E00010F8011B71B18107FAD14FF0013202C837
:1004F0008C1A8C4314EAC211F9D0C01A0A0603D030
:10050000C01E10BDC01A10BD0A0401D0801E10BD4F
:100510000902FCD0401E10BD032A40F2308010F0CA
:10052000030C00F0158011F8013BBCF1020F62448E
:1005300098BF11F801CB00F8013B38BF11F8013B1F
:10054000A2F1040298BF00F801CB38BF00F8013BCC
:1005500011F0030300F03C83083AC0F0088051F822
:10056000043B083A51F804CBA0E80810F5E7121D47
:100570005CBF51F8043B40F8043BAFF30080D20766
:1005800024BF11F8013B11F801CB48BF11F8012B32
:1005900024BF00F8013B00F801CB48BF00F8012B55
:1005A000704702F0FF0343EA032242EA024200F0EE
:1005B00002B84FF000020429C0F0128010F0030CC2
:1005C00000F01B80CCF1040CBCF1020F18BF00F846
:1005D000012BA8BF20F8022BA1EB0C0100F00DB8F5
:1005E0005FEAC17C24BF00F8012B00F8012B48BF53
:1005F00000F8012B70474FF0000200B513469446F7
:100600009646203922BFA0E80C50A0E80C50B1F16A
:100610002001BFF4F7AF090728BFA0E80C5048BF7E
:100620000CC05DF804EB890028BF40F8042B08BF1C
:10063000704748BF20F8022B11F0804F18BF00F818
:10064000012B7047704770477047704710B500F036
:10065000F5FA006810BD10B5044600F0EFFA04602A
:1006600010BD2DE9F0470D4699469246044600F12B
:1006700024080168880604D5E06921F01001216092
:1006800000E00120A84201DD471B00E00027A1692E
:100690007A1902EB0900081AA0612078C00602D47A
:1006A0002046AFF30080002608E0D4E901211AF8C3
:1006B00006009047206A401C761C20624E45F4DB01
:1006C0002078C0060AD52046AFF3008006E0D4E9C2
:1006D000012130209047206A401C2062381EA7F17B
:1006E0000107F4DC07E0D4E9012118F80500904780
:1006F000206A401C2062281EA5F10105F3DC20467B
:10070000AFF300802078000602D50220BDE8F08714
:100710000120FBE770472DE9FF4F0C461E464FF0C6
:10072000FF378BB0D2E90001DDF860800A908A467D
:10073000C1F30A5505B93D46002108464FF00000B7
:10074000BAF1000F00F4400005DA00EB80004FF42E
:10075000400101EA50004FEA9059B9F1010F00DD64
:10076000B9460A9850EA4A000ED044F61050A5F255
:10077000FF3545432F14B8F1000F1ED07542291ED6
:100780001EDDC9F100021CE0B8F1010F4FF00000BE
:1007900001D0302103E0F24305E02154401CB04277
:1007A000FBDB30460022002121540B99C1F8088060
:1007B000C1E900200FB0BDE8F08FBD1B6D1CDEE766
:1007C0004A4600DA694206A800F0C2FA06AB93E88E
:1007D000070003AB83E8070050460A9900F0A0FB2E
:1007E0008DE80700A0F500501F3800900398002DF9
:1007F0000ADD42F21F014A460844002303A9039080
:10080000684600F009FE09E0A0F500504A461F388E
:10081000002303A90390684600F013FE8DE807004B
:100820000004000C03D04FF0FF30410800E01046F8
:10083000B8F1000F03D00022009215461EE0751E8D
:1008400005D400F0FFF9303262556D1EF9D5B3467C
:100850000122084302D000227F1C04E020783028C7
:1008600001D100227F1E002A099784D01DE0112D9E
:1008700007DA00F0E7F9303262556D1C50EA0102E8
:10088000F5D1084302D00098C8B10EE00021681EDF
:1008900005E0235C625C63542254401E491C814283
:1008A000F7DBAB46A81B401E0990002004F80B00A4
:1008B0000B98099AC0F80880C0E9002B7AE7112646
:1008C0004FF0000857E72DE9F04F88460446D21D47
:1008D00022F0070191B0D1E90001CDE90A0103F04E
:1008E000CEF802460B98C00F01D02D2007E02068FB
:1008F000810701D52B2002E0202101EAC000032A54
:10090000099001D0072A05DB03464146204600F046
:10091000DFF90BE12078800601D5E06900E00620D0
:10092000B8F1650F814606D0B8F1660F18D0B8F15E
:10093000670F70D131E00020B9F1110F009001DB99
:10094000112301E009F101030AAA01A90CA8FFF78C
:10095000E2FEDDE90C70002609F10105834647E05F
:1009600001204B4600904FF000470AAA01A90CA8AD
:10097000FFF7D1FEDDE90DB00C995D46002610B9F8
:1009800009F101000D18B9EB050003D4C0F1FF36E1
:1009900009F10105A5EB09002BE0B9F1010F01DA1E
:1009A0004FF001090020B9F1110F0090484601DD18
:1009B000112300E003460AAA01A90CA8FFF7ABFE29
:1009C000DDE90C704D4600268346207800070AD4E6
:1009D000AB4500DA5D4601A8012D04DD411911F88F
:1009E000011C302907D04F4502DA17F1040F04DA51
:1009F000012082460FE06D1EEEE7002F02DCED1BAA
:100A00003E4403E0781CA84200DD7D1CB81B00F1C9
:100A1000010A4FF000472078000703D4AA4501DB04
:100A20004FF0FF3A0021B7F1004F0DF143088DF868
:100A3000431024D002202B23002F01DA7F422D23E4
:100A40000A21021EA0F1010000DC5FB197FBF1FC5E
:100A500097FBF1F201FB1C7C17460CF1300C08F8F7
:100A600001CDEEE7A8F1010003702188090501D549
:100A7000452100E06521A0F1010800F8011C09985A
:100A80000FA9A1EB0807FF1D00B10120411901EBDF
:100A9000EA70A1693844081A401EA0612078C00697
:100AA00002D42046AFF30080099828B1D4E901218F
:100AB0009047206A401C20622078C00622D520463C
:100AC000AFF300801EE0002E04DBB34502DD01A879
:100AD000805D00E03020D4E901219047206A401C6D
:100AE0002062761CAAF101005FEA000A0AD100F038
:100AF000A1F8C0680168405CD4E901219047206AF0
:100B0000401C2062281EA5F10105DCDC07E0D4E9C9
:100B1000012118F8010B9047206A401C2062381E02
:100B2000A7F10107F3DC2046AFF30080032011B0EA
:100B300041E6000001694A1C02610878704700B56F
:100B40008FB0CDE901310021059105497944CDE906
:100B5000031011466846FFF727FC0FB000BD0000E8
:100B6000E5FFFFFF0A6802F8010B0A607047D1E950
:100B700000239A4202D2531C0B601070704710B5CC
:100B8000436913B1AFF3008001E0FFF7A7FB012039
:100B900010BD127800F124010A7000224A7001226F
:100BA000EDE711684FF0FF32E9E70000074B70B541
:100BB0000D467B44FFF7C3FF0446284600F03AF990
:100BC00010B14FF0FF3070BD204670BD572F0000B0
:100BD00010B5203AC0F00B80B1E81850203AA0E8D8
:100BE0001850B1E81850A0E81850BFF4F5AF5FEA0C
:100BF000027C24BFB1E81850A0E8185044BF18C9BF
:100C000018C0BDE810405FEA827C24BF51F8043B65
:100C100040F8043B08BF7047D20728BF31F8023BB9
:100C200048BF11F8012B28BF20F8023B48BF00F84D
:100C3000012B704700487047002F00200048704784
:100C4000E02E002030B5B0F10A024FEA900E71F1AB
:100C500000034EEA817EB0EB0E0061EB91014FEA9A
:100C6000101E4EEA017E10EB0E0041EB11114FEA0F
:100C7000102E4EEA016E10EB0E0041EB11214FEAEF
:100C8000104E4EEA014E10EB0E0041EB11414018A0
:100C900041F100014FEAD00040EA41704FEAD10132
:100CA00010EB80054FEA810444EA907444EB0104A0
:100CB0006D1944EB0404521BA3414FF0000348BFDD
:100CC0000A3200D530BD401C41F1000130BD0000AA
:100CD0002DE9F0411F46044603260168072A01F466
:100CE000006004DB08B116A505E016A503E008B115
:100CF00015A500E015A521F010002060A069C01E18
:100D0000A0610FB1401EA0612046AFF300804FB13B
:100D1000D4E9012138469047206A401C2062C01C5B
:100D2000206206E0206AFAE7D4E9012115F8010BF8
:100D30009047761EF8D22046AFF30080BDE8F081E0
:100D40004E414E006E616E00494E4600696E66006F
:100D50002DE9F047814616468AB0354878440DC8DB
:100D60008DE80D0032487844801C03AC0DC884E83F
:100D70000D0041F69B300844372190FBF1F290FBC7
:100D8000F1F5A5F1800501FB12041B3C02D564427C
:100D9000012000E00020DFF898A080460027FA44F8
:100DA000AAF1BE0A0EE0E0070AD03246684607EB19
:100DB000470101230AEB810100F043FB8DE80700A6
:100DC00064107F1C002CEED1194F7F44AE3F19E018
:100DD000E80715D007EB04100DF1180A90E80E0093
:100DE0008AE80E00C068F04201D198190890324696
:100DF000012306A903A800F024FB03AB83E8070046
:100E00006D10641C002DE3D14FF00103324669469A
:100E1000B8F1000F03A802D000F0FEFA01E000F0E4
:100E200010FBC9E90001C9F808200AB0BDE8F08745
:100E30000C770000007B00F080007047004870478E
:100E4000E02E00207546FFF7F9FFAE460500694623
:100E5000534620F00700854618B020B5FFF704FA86
:100E6000BDE820404FF000064FF000074FF00008AB
:100E70004FF0000B21F00701AC46ACE8C009ACE82C
:100E8000C009ACE8C009ACE8C0098D46704710B590
:100E90000446AFF300802046BDE81040FFF783B959
:100EA0004FF0013C50F8042B51F8043B9A4221D1F9
:100EB000A2EB0C03934313EACC1317D150F8042B85
:100EC00051F8043B9A4215D1A2EB0C03934313EA69
:100ED000CC130BD150F8042B51F8043B9A4209D1A2
:100EE000A2EB0C03934313EACC13DBD04FF00000CA
:100EF000704700BFD01A01BAB1FA81F101F01801B0
:100F000022FA01F0CB40C1F12001DBB2C0B2C01A1D
:100F10002CFA01F3D11A914311EAC311E6D17047BB
:100F20005FEA400C08BF91F0000F4FEA8C234FEAB4
:100F3000C12243EA51514FEA1C5018BF00F5F0405E
:100F40004FEA300018BF41F000415FEA6C5C00F0EE
:100F50002980BCF1FF3F08BF40F080407047130C70
:100F600006BF12044FF0100C4FF0000C130E04BF1C
:100F700012020CF1080C130F04BF12010CF1040C47
:100F8000930F04BF92000CF1020CD30F04BF520068
:100F90000CF1010C11464FF00002A0F11F00A0EB74
:100FA0000C00704711F0004F08BF704731F000414E
:100FB0003FF4D5AF0B0C06BF09044FF0100C4FF0F7
:100FC000000C0B0E04BF09020CF1080C0B0F04BF40
:100FD00009010CF1040C8B0F04BF89000CF1020C09
:100FE000CB0F04BF49000CF1010CCCF12003A0EBA6
:100FF0000C0022FA03F302FA0CF241EA030100F1B9
:101000000100704720F07F4C80EA030023F07F4707
:10101000ACEB070303F57C5300F0004003F1FF0342
:101020002DE980494FEA154B09B44FEA144325EAEC
:101030000B4E24EA03480FF2042606EB1327490857
:101040003E785FEA320203FB0667C7F5000707FB3D
:1010500006F64FEA54374FEAD64606F1020607FB7A
:10106000066CCCF1005C4FEA1C472CEA074C07FBEE
:1010700006F40CFB06F504EB15464FEA961634BF52
:1010800000204FF000404FEAD13706FB07FC4FEA43
:101090001C4C0CFB0BF7D21B03FB0CF761EB07019D
:1010A0000CFB0EF7B0EB074072EB17420CFB08F796
:1010B00034BFA2EB0742B2EB074261EB17414FEAA4
:1010C0000C444FEA910706FB07FC4FEA1C4C0CFB53
:1010D0000BF7B0EBC74072EB573203FB0CF734BF92
:1010E000A2EBC742B2EBC74261EB57310CFB0EF7E4
:1010F000B0EBC70072EB57720CFB08F734BFA2EBE2
:10110000C702B2EBC70261EB5771039F4FEA8161DF
:1011100041EA921104EBCC044FEAD1374FEA8262E4
:1011200006FB07FC42EA90124FEA80604FEA1C4C33
:101130000CFB0BF7D21B03FB0CF761EB07010CFB5D
:101140000EF7B0EB074072EB17420CFB08F734BF09
:10115000A2EB0742B2EB074261EB17414FEA8C5515
:101160004FEA910704EB9C2406FB07FC4FEA1C4C5A
:101170000CFB0BF7B0EBC74072EB573203FB0CF7DD
:1011800034BFA2EBC742B2EBC74261EB57310CFB55
:101190000EF7B0EBC70072EB57720CFB08F734BFC9
:1011A000A2EBC702B2EBC70261EB577115EB4C25FE
:1011B0004FEA816141EA92114FEA82624FEAD137E8
:1011C00042EA901206FB07FC44F100044FEA8060FB
:1011D0004FEA1C4C0CFB0BF7D21B03FB0CF761EB2B
:1011E00007010CFB0EF7B0EB074072EB17420CFB4C
:1011F00008F734BFA2EB0742B2EB074261EB17419D
:1012000015EB1C154FEA813141EA92414FEA8232D7
:1012100042EA90424FEA80304FEA0C7644F10004F3
:1012200048EA03434EEA0B484FF0000EB2EB080CBD
:1012300071EB030724BF624639464EEB0E0E4FF0AA
:10124000000B0018524149414BEB0B0BB2EB080C61
:1012500071EB03077BF1000B24BF624639464EEB6E
:101260000E0E4FF0000B0018524149414BEB0B0B97
:10127000B2EB080C71EB03077BF1000B24BF624655
:1012800039464EEB0E0E51EA020718BF46F0010632
:1012900016EB0E7655F1000254F1000103D5BDE8BE
:1012A0008901BDE80088BDE88901BDE80048B6199C
:1012B000524141EB0101A3F10103704780807F7E21
:1012C0007D7C7B7A797877767675747372717170BC
:1012D0006F6E6E6D6C6C6B6A6A696868676666656E
:1012E0006464636362616160605F5F5E5E5D5D5CFC
:1012F0005C5B5B5A5A59595858575756565555556D
:101300005454535352525251515050504F4F4F4ECC
:101310004E4D4D4D4C4C4C4B4B4B4A4A4A4949491A
:10132000484848474747474646464545454444445C
:10133000444343434342424242414141002B9C4685
:1013400030D477002BD01CB54FEA370703B44FF0E9
:1013500010004FF01001BAF1000F06D0BCF1000FE1
:10136000DCBF40F0080040F008014FF000000FBC67
:10137000BDE810400BF1010BBBF1010F08BF5FEAA4
:10138000170722BF12F1010211F101014FF00041D4
:1013900043F1000300F0004043EA00007047F9D336
:1013A0005708D0E746EA064613F1400F4FEA1646C3
:1013B0001FDD13F1200FDFBF16430A460021203343
:1013C0005B42BED0C3F1200746EA064602FA07F7A1
:1013D0004FEA164646EA0706C3F1200722FA03F24F
:1013E00001FA07F721FA03F14FF0000342EA07027E
:1013F000A7E746EA020646EA06464FEA164646EAE6
:101400000106BCBF46EA0646360C4FF000034FF01B
:1014100000024FF0000194E72DE9804C9A46934674
:1014200070B491E8380007C831EA400C48BF34EA8C
:10143000430C03D5FFF7E6FDFFF780FFF0BCBDE8E6
:10144000008C2DE9804C9A46934670B491E83800A0
:1014500007C810F0804F08BF13F0804F03D100F091
:1014600005F8FFF76BFFF0BCBDE8008C20F07F476C
:1014700080EA030023F07F4C07EB0C03A3F57C53B9
:1014800000F00040A3F1FE0392F0000F00F0B380E3
:1014900095F0000F00F077802DE901494FEA1140E7
:1014A0004FEA144621EA004800FB06FC24EA0647FE
:1014B00008FB06F607FB08F800FB07F718EB0648E1
:1014C0004CEB164C4FEA124B18EB07484FEA154607
:1014D0004CEB174022EA0B4E0BFB06FC25EA0647B5
:1014E0000EFB06F607FB0EFE0BFB07F71EEB064E88
:1014F0004CEB164C4FF000061EEB074E4CEB174B17
:1015000018EB0B0840F1000018EB0E0B58EB00082D
:1015100040F100008F1A4FF000013CBFC943661B29
:1015200014BFB5EB040C00213CBFC943F61B4FEAC6
:1015300017444EEA8E0E27EA04454FEA1C4704FB87
:1015400007622CEA074C05FB07F70CFB05F604FBCA
:101550000CFC16EB074642EB174216EB0C4642EB2F
:101560001C421BEB060658EB0202414146EA9E066E
:1015700001D5BDE80189B619524141EB0101A3F142
:101580000103BDE801894FEA14454FEA114724EAF7
:10159000054621EA074C05FB07F406FB07F70CFBA1
:1015A00006F105FB0CFC11EB074144EB17444FEA35
:1015B000124711EB0C4144EB1C4422EA074C05FB9B
:1015C00007F206FB07F70CFB06F605FB0CFC16EB17
:1015D000074642EB174216EB0C4642EB1C456A18D5
:1015E00054F1000148BF7047B619524141EB010167
:1015F000A3F10103704795F0000F37D04FEA114275
:101600004FEA144721EA024624EA074C02FB07F19D
:1016100006FB07F70CFB06F402FB0CFC14EB07447B
:1016200041EB17414FEA154714EB0C4441EB1C41C9
:1016300025EA074C02FB07F506FB07F70CFB06F64D
:1016400002FB0CFC16EB074645EB174516EB0C4668
:1016500045EB1C42121951F1000148BF7047B61901
:10166000524141EB0101A3F1010370474FEA1445D8
:101670004FEA114724EA054621EA074C05FB07F12A
:1016800006FB07F70CFB06F24FF0000605FB0CFC0F
:1016900012EB074241EB174112EB0C4251EB1C419C
:1016A00048BF7047921841EB0101A3F10103704755
:1016B00021B1826842F00102826003E0826822F078
:1016C000010282607047000010B50446124884424F
:1016D00008D10121401501F0CBFE0021601501F079
:1016E000C7FE17E00D48844208D10121001501F022
:1016F000BFFE0021201501F0BBFE0BE0084884422C
:1017000008D10121C80301F0B3FE00214FF40040CD
:1017100001F0AEFE10BD0000002401400028014091
:10172000003C0140014600208A6802F004020AB130
:10173000012000E0002070470146C86C80B270476D
:101740000246002013680B400BB1012000E000208E
:101750007047014600208A6802F008020AB10120A1
:1017600000E000207047000030B502460020002352
:1017700050680F4C20400D790C6844EA0524204342
:10178000506090680B4C2040D1E902542C434D79B5
:1017900044EA450420439060D06A20F470000C7C39
:1017A000641EE4B2234340EA0350D06230BD00001F
:1017B000FFFEF0FFFDF7F1FFF0B504460D460020F7
:1017C0000021092D11DDE068A5F10A0606EB4607A8
:1017D000072606FA07F18843A5F10A0606EB460636
:1017E00003FA06F10843E0600CE0206905EB4507C9
:1017F000072606FA07F1884305EB450603FA06F1CA
:1018000008432061072A0FDA606B561E06EB860735
:101810001F2606FA07F18843561E06EB860605FAD0
:1018200006F10843606322E00D2A0FDA206BD61F11
:1018300006EB86071F2606FA07F18843D61F06EB3C
:10184000860605FA06F10843206310E0E06AA2F17B
:101850000D0606EB86071F2606FA07F18843A2F15C
:101860000D0606EB860605FA06F10843E062F0BDB8
:10187000816841F008018160704721B1826842F4BB
:10188000A002826003E0826822F4A00282607047B6
:10189000816841F004018160704710B5002401F0B7
:1018A000C3F9282000F00DF800F021F8044604F0F8
:1018B0000C000C2804D000F0D4F80A2000F001F845
:1018C00010BD0CB5002101910DE00021009103E055
:1018D00000BF0099491C00910099B1F5FA5FF7D358
:1018E0000199491C019101998142EED30CBD10B5BB
:1018F000002401F009FA712001F0F1F901F0BAF9C0
:1019000001F0C7F90446012001F0DDF901F00AFAFF
:10191000204610BD2DE9FC4100200090019000F010
:10192000A7F85020FFF7CDFF01F0EEF9712001F08C
:10193000D6F901F09FF901F0ACF98DF80000002014
:1019400001F0C1F901F0A5F98DF80100002001F0C6
:10195000BAF901F09EF98DF80200002001F0B3F908
:1019600001F097F98DF80300002001F0ACF901F0C7
:1019700090F98DF80400002001F0A5F901F089F933
:101980008DF80500012001F09EF901F0CBF99DF8DA
:10199000000000F08000C8BB002400259DF8010075
:1019A00000039DF8021040EA01109DF8031040EA80
:1019B00011149DF803000007000B9DF8041040EA85
:1019C00001209DF8051040EA0105204604F0C2FE02
:1019D00007464FF0934104F07DFD06460E4904F0A2
:1019E00001FF0E490860284604F0B4FE80464FF01F
:1019F000934104F06FFD0746094904F0F3FE0646E3
:101A0000084904F0F7FF0549486003E0FFE70020BC
:101A1000BDE8FC810148FBE70000C842EC00002063
:101A2000000048430000484270B506460C46154683
:101A300001F06AF9702001F052F901F01BF930460B
:101A400001F04DF901F016F9204601F048F901F0D6
:101A500011F9284601F043F901F00CF901F062F99F
:101A600070BD10B500220821BE20FFF7DDFF10BDBC
:101A700010B500223321AC20FFF7D6FF10BD10B502
:101A800001F0D2F801F040F9462001F028F901F008
:101A9000F1F8012001F023F901F0ECF801F042F92E
:101AA0000A20FFF70EFF01F02FF9462001F017F989
:101AB00001F0E0F8102001F012F901F0DBF801F07C
:101AC00031F9B420FFF7FDFE10BD00002DE9F04113
:101AD00001F01AF9472001F002F901F0CBF801F00A
:101AE000D8F80446002001F0EEF801F0D2F80546DF
:101AF000012001F0E8F801F015F945EA0426304626
:101B000004F028FE0746024904F0E4FCBDE8F08139
:101B10009A99993F00BFFEE7704700B5034603E07E
:101B20004FF47A7000F005F8181EA3F10103F7D105
:101B300000BD00EBC001C9004FF0E022516100215F
:101B400091610521116100BF4FF0E021096901F4A5
:101B500080310029F8D004214FF0E0221161704754
:101B600070B504460CB9012070BD084805880DB950
:101B70000020F9E700200649485521460448FEF7B1
:101B80009AFC08B10120EFE70020EDE7FC000020FF
:101B9000E02C0020002004E00021054A1154411CE3
:101BA00088B2B0F5007FF7DB0021024A1180704750
:101BB000E02C0020FC00002070B5AAB004460D46C1
:101BC000164600F08BF910B900202AB070BD4FF412
:101BD0007A7210A110A000F0B3F800F01DF908B956
:101BE0000020F2E723460EA2A02102A80095FEF7EE
:101BF0005BFB32460FA102A800F0A2F838B93246CA
:101C000004A102A800F09CF808B90020DDE701203B
:101C1000DBE700004F4B000041544530000000005E
:101C200041542B43574A41503D222573222C2225F3
:101C3000732200005749464920474F54204950001D
:101C400010B504460A4604B10AB9002010BD084880
:101C50000388934200DD1346002104E00548405C00
:101C60006054481C81B29942F8DB1846EEE7000048
:101C7000FC000020E02C002005480188B1F5FF7F22
:101C800001DD40F2FF110020024A50541046704717
:101C9000FC000020E02C002010B586B00446012195
:101CA000042001F0D5FB0121480401F0C1FB042010
:101CB000ADF8140018208DF8170003208DF81600D9
:101CC00005A91D4800F034F90820ADF814000420DF
:101CD0008DF8170005A9184800F02AF90194002092
:101CE000ADF80800ADF80A00ADF80C00ADF8100032
:101CF0000C20ADF80E0001A9104801F049FE0122A8
:101D000040F225510D4801F01DFE26208DF80000FF
:101D100007208DF8010001208DF802008DF80300E6
:101D2000684601F095F80121044801F0C8FDFFF76D
:101D300031FF06B010BD0000000801400044004023
:101D400070B506460C461546FFF724FF304600F0F6
:101D500057F804A000F054F82946204600F0CAF8CD
:101D600070BD00000D0A000010B50446214605486C
:101D700001F07FFE00BF8021024801F0ACFD002889
:101D8000F9D010BD0044004070B588B006460C463E
:101D900006B114B9002008B070BD234611A220215D
:101DA0006846FEF781FA40F6B83212A16846FFF79E
:101DB000C7FF08B90020EEE7FFF7ECFE002504E0BE
:101DC000705DFFF7D1FF681C85B2A542F8DB41F2D8
:101DD000883109A000F08EF808B90020DBE7012067
:101DE000D9E7000041542B43495053454E443D250B
:101DF000750000003E00000053454E44204F4B004C
:101E000010B5044603E02078FFF7AEFF641C20788D
:101E10000028F8D110BD000010B54FF47A7204A16B
:101E200004A0FFF78DFF08B9002010BD0120FCE7DA
:101E30004F4B000041542B43574D4F44453D31001B
:101E400008B50AE00021009103E000BF0099491C99
:101E500000910099B1F5FA5FF7D3011EA0F10100DE
:101E6000F0D108BD30B599B004460D4623460DA209
:101E7000602101A80095FEF717FA41F2883210A1FF
:101E800001A8FFF75DFF10B1012019B030BD4FF47C
:101E90007A720DA101A8FFF753FF08B10120F4E702
:101EA0000020F2E741542B43495053544152543DD2
:101EB00022544350222C222573222C257500000029
:101EC000434F4E4E45435400414C524541445920E6
:101ED000434F4E4E454354454400000010B54FF467
:101EE0007A7202A102A0FFF72BFF10BD4F4B00003A
:101EF0004154000070B505460C460EE02846FFF739
:101F00002FFE08B1012070BD07A0FFF729FE08B120
:101F10000020F8E70120FFF793FF201EA4F1010441
:101F2000ECD100BFEFE700004552524F52000000D5
:101F30002DE9F04102460025002600200023002460
:101F4000002791F803C00CF00F0591F803C00CF0C6
:101F5000100CBCF1000F03D091F802C04CEA05054B
:101F600091F800C0BCF1000F31D0146800202BE0C4
:101F70004FF0010C0CFA00F3B1F800C00CEA0306B4
:101F80009E4220D183004FF00F0C0CFA03F7BC43A4
:101F900005FA03FC4CEA040491F803C0BCF1280FD5
:101FA00006D14FF0010C0CFA00FCC2F814C00AE094
:101FB00091F803C0BCF1480F05D14FF0010C0CFAA9
:101FC00000FCC2F810C0401C0828D1D31460B1F83E
:101FD00000C0BCF1FF0F34DD546800202EE000F19A
:101FE000080C4FF0010808FA0CF3B1F800C00CEA35
:101FF00003069E4221D183004FF00F0C0CFA03F729
:10200000BC4305FA03FC4CEA040491F803C0BCF19C
:10201000280F05D100F1080C08FA0CF8C2F814805A
:1020200091F803C0BCF1480F07D100F1080C4FF044
:10203000010808FA0CF8C2F81080401C0828CED31A
:102040005460BDE8F0810246002093680B400BB15C
:10205000012000E000207047416170470161704736
:102060000AB1016100E041617047000008B501213B
:10207000082001F0EDF94FF48060ADF80000282051
:102080008DF8030003208DF8020069460148FFF730
:102090004FFF08BD000C014010B54FF480610248AD
:1020A000FFF7D1FF10BD0000000C014000BFFEE7AC
:1020B00070B5064613484088401E83B21148008818
:1020C000401E82B20021084600F0BEF910200E49E1
:1020D000086000020D49086000240AE0002503E0C2
:1020E000304600F0BFFB6D1C06480088A842F7D8B8
:1020F000641C04484088A042F0D810200249091FFF
:10210000086070BDD02C002014080140100C014064
:1021100070B504460D462946204600F08BF902486A
:10212000008800F09FFB70BDE40000202DE9F05F07
:1021300004460D4616461F46301B401C1FFA80FA07
:10214000781B401C1FFA80FB3B463246294620463E
:1021500000F07AF94FF000080FE04FF0000906E0B8
:102160000A9800F07FFB09F101001FFA80F9D145C0
:10217000F6DB08F101001FFA80F8D845EDDB0748CF
:102180004088401E83B205480088401E82B200216C
:10219000084600F059F9BDE8F09F0000D02C00205F
:1021A00008B50121082001F053F94FF4E040ADF8E3
:1021B000000003208DF8020010208DF8030069460E
:1021C0000148FFF7B5FE08BD000C014010B500F056
:1021D000CDFDFFF7E5FF00F019F9112000F0A4FA9A
:1021E0007820FFF79AFCB12000F09EFA012000F061
:1021F00083FA2C2000F080FA2D2000F07DFAB22026
:1022000000F092FA012000F077FA2C2000F074FA26
:102210002D2000F071FAB32000F086FA012000F0C2
:102220006BFA2C2000F068FA2D2000F065FA0120EE
:1022300000F062FA2C2000F05FFA2D2000F05CFA2A
:10224000B42000F071FA072000F056FAC02000F028
:102250006BFAA22000F050FA022000F04DFA842020
:1022600000F04AFAC12000F05FFAC52000F044FAFD
:10227000C22000F059FA0A2000F03EFA002000F0D7
:102280003BFAC32000F050FA8A2000F035FA2A20E9
:1022900000F032FAC42000F047FA8A2000F02CFA4D
:1022A000EE2000F029FAC52000F03EFA0E2000F0E2
:1022B00023FA362000F038FAC82000F01DFAE0209A
:1022C00000F032FA0F2000F017FA1A2000F014FA8A
:1022D0000F2000F011FA182000F00EFA2F2000F065
:1022E0000BFA282000F008FA202000F005FA22203E
:1022F00000F002FA1F2000F0FFF91B2000F0FCF9AB
:10230000232000F0F9F9372000F0F6F9002000F062
:10231000F3F9072000F0F0F9022000F0EDF91020A9
:1023200000F0EAF9E12000F0FFF90F2000F0E4F9F5
:102330001B2000F0E1F90F2000F0DEF9172000F07B
:10234000DBF9332000F0D8F92C2000F0D5F9292052
:1023500000F0D2F92E2000F0CFF9302000F0CCF9B7
:10236000302000F0C9F9392000F0C6F93F2000F014
:10237000C3F9002000F0C0F9072000F0BDF90320E8
:1023800000F0BAF9102000F0B7F92A2000F0CCF9DB
:10239000002000F0B1F9002000F0AEF9002000F0BC
:1023A000ABF97F2000F0A8F92B2000F0BDF9002048
:1023B00000F0A2F9002000F09FF9002000F09CF945
:1023C0009F2000F099F9F02000F0AEF9012000F014
:1023D00093F9F62000F0A8F9002000F08DF93A20DA
:1023E00000F0A2F9052000F087F9292000F09CF9FF
:1023F000002000F0C3F90120034908604FF6FF7088
:10240000FFF756FE10BD0000B881214210B54FF411
:102410000050074908606420FFF77FFB4FF400502D
:102420000349091F08603220FFF777FB10BD000049
:10243000140C014070B504460D462B462246294631
:10244000204600F001F870BD2DE9F04104460D462C
:1024500016461F461749887A00F066F9002000F0FA
:102460004BF91449897B2144C8B200F045F900209A
:1024700000F042F90F49897B3144C8B200F03CF9C1
:102480000C49087B00F050F9002000F035F90949AB
:10249000C97B2944C8B200F02FF9002000F02CF9C4
:1024A0000449C97B3944C8B200F026F900F054F958
:1024B000BDE8F081D02C00202DE9FF4F83B081468C
:1024C0008A469346DDE91064404800880290A6F1F0
:1024D0002000C6B204EBD47009EB6000401E82B24B
:1024E0000AEB0400401E83B2514648460194FFF7B0
:1024F000ABFF129850BB002525E00C2C07D106EB52
:102500004600334901EB800010F8058004E03148B3
:1025100000EB061010F8058000270DE008F0010020
:1025200018B1584600F09EF902E0069800F09AF9BA
:102530004FEA6808781CC7B204EBD471B7EB610F9F
:10254000ECDB681CC5B2A542D7DB2DE0002529E0F5
:102550000C2C07D106EB46001D4901EB800010F85A
:10256000058004E01B4800EB061010F805800027EA
:1025700011E01648A0F800B008F0010038B10AEBED
:10258000050291B209EB070290B2FFF7C1FD4FEAD5
:102590006808781CC7B204EBD471B7EB610FE8DBB5
:1025A000681CC5B2A542D3DB0849029808800A48D6
:1025B0004088401E83B208480088401E82B2002135
:1025C0000846FFF741FF07B0BDE8F08FE4000020A8
:1025D000C26B000836700008D02C00202DE9FF4F98
:1025E00083B0074691461E46109C4FF0000A002516
:1025F00043E0701B401EC1B20A2001F0A5FBB9FBED
:10260000F0F00A21B0FBF1F201FB1208BAF1000F61
:102610001BD1701EA84218DDB8F1000F13D10020A5
:102620002021A346CDE90014029004EBDB71491090
:1026300001FB057188B213490B8813490A88049974
:10264000FFF73AFF17E04FF0010A002108F13000D0
:10265000C0B2A346CDE90141009004EBDB71491003
:1026600001FB057188B207490B8807490A8804995C
:10267000FFF722FF00BF681CC5B2B542B9DB07B047
:10268000BDE8F08FE6000020E40000202DE9FE43C5
:1026900006460F4615461C46DDF828801DE0134807
:1026A0000088401EB04204DB10484088401EB842FB
:1026B00001DABDE8FE8320788DE821010C4803880B
:1026C0000C48028839463046FFF7F6FE284605EBEF
:1026D000D07106EB61018EB2641C20787E2802DC8A
:1026E00020782028DBDA00BFE3E70000D02C0020B0
:1026F000E6000020E400002010B504461020074941
:1027000008600002064908602146064800F084FB84
:1027100010200249091F086010BD00001408014084
:10272000100C01400030014010B50446102007494C
:1027300008600002064908602146064800F06CFB6C
:1027400010200249091F086010BD00001408014054
:10275000140C01400030014010B50249087AFFF71F
:10276000E3FF10BDD02C002070B505460C4628466E
:10277000FFF7DAFFE0B2FFF7BFFF70BD10B5044608
:102780002A20224948812B2088812C20088134B1BD
:10279000012C11D0022C1CD0032C34D126E0802037
:1027A0001A4908804880022088730320C873C82112
:1027B0003620FFF7D9FF27E08020144908804880A1
:1027C000032088730220C873A8213620FFF7CCFFAE
:1027D0001AE080200D49088048800220887301207B
:1027E000C87308213620FFF7BFFF0DE0802007499E
:1027F00008804880012088730220C8736821362031
:10280000FFF7B2FF00E000BF00BF10BDD02C0020DA
:1028100008B50121102000F01BFE4FF40050ADF868
:10282000000010208DF8030003208DF80200694697
:102830000148FFF77DFB08BD0010014010B54FF4C3
:1028400000510248FFF708FC10BD000000100140D5
:1028500010B54FF400510248FFF700FC10BD000016
:102860000010014010B5044610200949086000021C
:10287000084908602112084800F0CEFAE1B2064883
:1028800000F0CAFA10200249091F086010BD0000BC
:1028900014080140100C01400030014010B5002028
:1028A00000F072F910BD70B50446002604B9012489
:1028B000002504E0FFF7F2FF0644681CC5B2A542FC
:1028C000F8DBB6FBF4F080B270BD000010B501215A
:1028D0000148FFF7B8FB10BD000C01402DE9F041A5
:1028E0000446204600F0CEF806460D49304600F07A
:1028F00065F907460B480168384603F0EBFD804652
:10290000094A0A49404600F01DF9054600212846BB
:1029100003F034FF00D200252846BDE8F081000016
:102920000000A041F40000207E8A5F3FFF0695BEB4
:1029300010B5012000F028F910BD70B5044600263E
:1029400004B90124002504E0FFF7F2FF0644681CE7
:10295000C5B2A542F8DBB6FBF4F080B270BD000052
:1029600010B502210148FFF76EFB10BD000C0140BD
:102970002DE9F0410446204600F084F806460D4952
:10298000304600F01BF907460B480168384603F053
:10299000A1FD8046094A0A49404600F0D3F80546A1
:1029A0000021284603F0EAFE00D200252846BDE8B3
:1029B000F081000000002041F80000209B201A3F19
:1029C0009B209ABE30B50246002300BF01F07F0075
:1029D000C90909B140F080001C465D1CABB210551E
:1029E0000029F3D1184630BD70B5ADF5007D06461F
:1029F0001EB900200DF5007D70BD4FF400716846D2
:102A0000FFF71EF90546042D01DA0020F2E7002445
:102A100015E01DF8040020280FD1601C1DF80000EF
:102A200002280AD1A01C1DF8000030B9E01C1DF8D6
:102A3000000040B230700120DCE7601C84B2E01C72
:102A4000A842E6DB0020D5E72DE9F04105460C461B
:102A500017463846FDF741FD86B231122288501CD8
:102A60002080A9542288501C2080AE542188481907
:102A700032463946FDF750FD208830442080BDE8BD
:102A8000F081000070B50446204603F063FE064660
:102A9000034903F01FFD0546024903F0A3FE70BD84
:102AA00000F07F453333534000B587B001214FF428
:102AB000037000F0CDFC0320ADF8180000208DF865
:102AC0001B0006A91C48FFF733FA0320ADF81800D5
:102AD00048208DF81B0006A91848FFF729FA184866
:102AE000FEF7F2FD002001908DF808008DF8090036
:102AF0004FF4602003900020049001208DF8140012
:102B000001A90F48FEF730FE01210D48FEF7D0FD68
:102B10000B48FEF7ADFE00BF0948FEF71AFE01287C
:102B2000FAD00748FEF7B4FE00BF0548FEF7FAFDED
:102B30000128FAD007B000BD00080140000C014098
:102B4000002401402DE9F04706460F4614460C4983
:102B5000304603F013FE00D8094E304600F0F8FF6F
:102B600080462146404603F045FF8146394603F042
:102B7000B1FC05462946034801F0F2F8BDE8F087AC
:102B800017B7D1380000204110B5044607230122B1
:102B900021460948FEF710FE01210748FEF76DFEA9
:102BA00000BF02210448FEF7CBFD0028F9D00248FF
:102BB000FEF7C2FD10BD0000002401402DE9F041E8
:102BC00004460D460C49204603F0D8FD00D80A4CB7
:102BD0000A49204603F0D2FE00D8084C0849204696
:102BE00003F0FDFE0746294603F0FCFD064621469C
:102BF00003F070FCBDE8F0816F12833AD12253409C
:102C00003333534000BFFEE708B50020009005E0D5
:102C100000BFBDF80000401C80B20090BDF800006D
:102C20007828F5DB08BD000008B50121082000F078
:102C30000FFC14208DF80300C020ADF80000032025
:102C40008DF8020069460448FFF772F9C021024876
:102C5000FFF704FA08BD0000000C014010B5802108
:102C60000348FFF7F0F90446FFF7CEFF204610BDFA
:102C7000000C014010B5012000F06CF8012000F0BC
:102C80005DF8FFF7EBFF0446002000F057F8204600
:102C900010BD70B50025012000F05CF800240EE0A6
:102CA000012000F04BF8FFF7D9FF012802D1802066
:102CB00020410543002000F041F8601CC4B2082CFC
:102CC000EEDB284670BD10B50446204600F042F801
:102CD000012000F033F8002000F030F810BD70B58E
:102CE000054600240DE08021214101EA050000F0A5
:102CF00031F8012000F022F8002000F01FF8601CDD
:102D0000C4B2082CEFDB70BD10B5012000F016F83E
:102D1000012000F01FF8002000F01CF8002000F057
:102D20000DF810BD10B5002000F014F8012000F0DF
:102D300005F8012000F00EF810BD000010B50446A3
:102D4000224640210248FFF78BF9FFF75DFF10BDD7
:102D5000000C014010B50446224680210248FFF7CE
:102D60007FF9FFF751FF10BD000C014000B587B09F
:102D700001210C2000F06CFB0121080300F068FB2E
:102D8000A020ADF8180018208DF81B0003208DF846
:102D90001A0006A91948FFF7CBF81020ADF8180063
:102DA0008DF81B0006A91548FFF7C2F80020ADF802
:102DB00004004FF48270ADF806000020ADF8080062
:102DC000ADF80A00ADF80C004FF40070ADF80E003D
:102DD0001820ADF810000020ADF812000720ADF863
:102DE000140001A9064800F0D7FB0121044800F0B7
:102DF000B9FB012000F006F807B000BD0008014053
:102E00000030014010B50446224610210148FFF76A
:102E100027F910BD0008014070B504460D4600BFFB
:102E20000221204600F0AAFB0028F9D029462046BE
:102E300000F0B0FB00BF0121204600F09FFB0028FE
:102E4000F9D0204600F0A3FBC0B270BD704700006F
:102E500070B5002100230F22C47804B3154C2468F8
:102E600004F4E064C4F5E064210AC1F10403CA403B
:102E7000447804FA03F184781440214309010E4C8C
:102E80000678A155047804F01F050124AC400578AC
:102E90006D11AD0005F1E025C5F8004109E00478A9
:102EA00004F01F050124AC40044D0678761145F866
:102EB000264070BD0CED00E000E400E080E100E0A1
:102EC00008B50AE00021009103E000BF0099491C09
:102ED00000910099B1F5FA5FF7D3011EA0F101004E
:102EE000F0D108BD2DE9F047ADF5027D05468A46D3
:102EF00016461F46DDF82C828A9C00206149087026
:102F000061490870FF206149087015B10EB107B121
:102F10003CB901205B49087000200DF5027DBDE839
:102F2000F08733465AA24FF4007102A8CDE900742D
:102F3000FDF7BAF94FF4FA6260A102A8FEF700FFAC
:102F4000002866D14FF4FA625CA15DA0FEF7F8FE9E
:102F5000A8B93B46324651462846CDE9004800F024
:102F60000FF920B90420474908700020D5E7012057
:102F7000454908700020434908700120CDE73346D9
:102F800058A24FF4007102A8FDF78EF94FF4FA62CF
:102F90004AA102A8FEF7D4FE20B9022039490870E0
:102FA0000020BAE73B4656A24FF4007102A8FDF795
:102FB0007BF94FF4FA6241A102A8FEF7C1FE20B9E5
:102FC0000220304908700020A7E7234653A24FF49F
:102FD000007102A8FDF768F940F6B83237A102A8DF
:102FE000FEF7AEFEA8B93B46324651462846CDE92B
:102FF000004800F0C5F820B90420224908700020DC
:103000008BE701202049087000201E49087001202C
:1030100083E7434648A24FF4007102A8FDF744F944
:1030200040F6B83225A102A8FEF78AFE20B9032097
:1030300014490870002070E72B4647A24FF4007136
:1030400002A8CDF800A0FDF72FF944F620621BA1DD
:1030500002A8FEF775FE78B9FEF70EFE8146B9F1BB
:10306000000F04D042A14846FDF725FA20B90420FC
:1030700004490870002050E7002002490870012030
:103080004BE70000FE000020FF00002000010020B0
:1030900041542B4D515454555345524346473D30AE
:1030A0002C312C222573222C222573222C222573CD
:1030B000222C302C302C2222000000004F4B00002C
:1030C00041542B4D515454555345524346473D307E
:1030D0002C312C22222C22222C22222C302C302C5F
:1030E0002222000041542B4D5154544C4F4E474323
:1030F0004C49454E5449443D302C22257322000052
:1031000041542B4D5154544C4F4E47555345524EFC
:10311000414D453D302C22257322000041542B4D5A
:103120005154544C4F4E4750415353574F52443DC6
:10313000302C22257322000041542B4D515454430E
:103140004F4E4E4346473D302C25752C302C2222C5
:103150002C22222C302C300041542B4D51545443FE
:103160004F4E4E3D302C222573222C25752C3100DC
:103170002B4D515454434F4E4E454354454400004B
:103180002DE9FF4FADF5077D17461C46DDF854923B
:10319000DDF85082002005903846FDF79EF91FFAB1
:1031A00080FB2046FDF799F980B204904046FDF778
:1031B00094F980B20390FF20029088998798FEF7D7
:1031C00051FE20B900200DF50B7DBDE8F08F0BF10D
:1031D0000E0004990844801C039908441FFA80FAE1
:1031E0001021BDF81420501C80B2059007A881540E
:1031F000514606A8FFF7E6FB054607A9BDF81420CF
:1032000088182A4606A9FDF787F9BDF81400284456
:1032100080B2059030A205A907A8FFF715FC04218C
:10322000BDF81420501C80B2059007A88154C2211B
:10323000BDF81420501C80B2059007A881544FEAB5
:103240002921BDF81420501C80B2059007A8815494
:10325000BDF81420501C80B2059007A800F8029019
:103260003A4605A9FFF7F0FB224605A907A8FFF794
:10327000EBFB424605A907A8FFF7E6FBFEF78AFC31
:10328000BDF8141007A8FEF77FFD08B900209AE7E3
:1032900000261CE002A8FFF7A7FB50B19DF908002B
:1032A0000F4908709DF8080008B901208BE700203D
:1032B00089E7FEF7E1FC0BA10190FDF7FCF808B1EE
:1032C000002080E76420FFF7FBFD701CC6B2502E83
:1032D000E0DB002077E700004D515454000000006F
:1032E00000010020434C4F5345440000014890F931
:1032F000000070470001002001480078704700007E
:10330000FE0000202DE9F04FADF5557D06460F4635
:1033100090469946002406B127B900200DF5557D49
:10332000BDE8F08FB8F1020F01DD4FF00008B9F1F0
:10333000010F01DD4FF000093348007800284FD01D
:103340003046FDF7CAF885B23846FDF7C6F81FFAD1
:1033500080FAA81C504480B2039008F0030030218A
:1033600041EA4000B9F1000F01D0012100E0002145
:1033700008432146621C94B205AA505404A803993C
:10338000FFF720FB834605A908195A4604A9FDF753
:10339000C3F804EB0B0084B22A122046611C8CB2E5
:1033A00005A90A542046611C8CB205A90D540819C0
:1033B0002A463146FDF7B0F8601984B205A908190C
:1033C00052463946FDF7A8F804EB0A0084B22146BC
:1033D00005A8FEF7D9FC08B900209FE701209DE76A
:1033E00033460AA24FF4A07185A88DE88003FCF74C
:1033F0005BFF41F288320DA185A8FEF7A1FC08B958
:1034000000208BE7012089E7FF00002041542B4D6D
:103410005154545055423D302C222573222C2225E4
:1034200073222C25752C2575000000004F4B0000E1
:1034300029B1064AD2690243044BDA6104E0034A27
:10344000D2698243014BDA617047000000100240EC
:1034500029B1064A92690243044B9A6104E0034A87
:1034600092698243014B9A6170470000001002404C
:1034700029B1064AD2680243044BDA6004E0034AE9
:10348000D2688243014BDA607047000000100240AE
:1034900030B500210022002400232D4D6D6805F079
:1034A0000C0121B1042905D0082923D105E0294DBB
:1034B000056022E0274D05601FE0254D6D6805F48D
:1034C0007012234D6D6805F48034022505EB92429D
:1034D0001CB9214D554305600BE01D4D6D6805F489
:1034E00000351DB11C4D5543056002E0194D554393
:1034F000056002E0174D056000BF00BF144D6D6808
:1035000005F0F0010909154D6B5C0568DD4045606B
:103510000F4D6D6805F4E061090A104D6B5C45685C
:10352000DD4085600A4D6D6805F46051C90A0B4D98
:103530006B5C4568DD40C560054D6D6805F4404134
:10354000890B074D6B5CC568B5FBF3F5056130BDB4
:103550000010024000127A0000093D000000002027
:103560001000002021B1028842F04002028004E0F5
:1035700002884FF6BF731A4002807047024600204F
:1035800013890B400BB1012000E000207047014679
:10359000888970478181704710B50022028802F443
:1035A00041520B884C8823438C882343CC88234387
:1035B0000C8923434C8923438C892343CC8923439F
:1035C0001A430280838B4FF2FF74234083830B8A5C
:1035D000038210BD10B500F001F810BD0CB500203D
:1035E000019000903348006840F480303149086011
:1035F00000BF3048006800F4003000900198401C83
:103600000190009818B90198B0F5A06FF1D1294840
:10361000006800F4003010B10120009001E00020AB
:1036200000900098012843D12348006840F0100022
:10363000214908600846006820F003000860084639
:10364000006840F0020008601A4840681949486064
:103650000846406848600846406840F4806048601A
:103660000846406820F47C1048600846406840F4F2
:10367000E81048600846006840F08070086000BFAD
:103680000C48006800F000700028F9D00948406834
:1036900020F00300074948600846406840F00200F7
:1036A000486000BF0348406800F00C000828F9D1CA
:1036B0000CBD0000001002400020024010B502F0D6
:1036C00057FA10BD10B51348006840F001001149C9
:1036D000086008464068104908400E49486008469E
:1036E00000680E4908400B4908600846006820F44D
:1036F000802008600846406820F4FE0048604FF4CF
:103700001F008860FFF766FF4FF000600449086003
:1037100010BD0000001002400000FFF8FFFFF6FEA1
:1037200008ED00E010B586B00446012144F2040023
:10373000FFF78EFE4FF40070ADF8140018208DF8DE
:10374000170003208DF8160005A91D48FEF7F0FBB1
:103750004FF48060ADF8140004208DF8170005A91F
:103760001748FEF7E5FB01940020ADF80800ADF81E
:103770000A00ADF80C00ADF810000C20ADF80E00FA
:1037800001A9104800F004F9012240F225510D482A
:1037900000F0D8F825208DF8000007208DF80100F2
:1037A00000208DF8020001208DF803006846FFF725
:1037B0004FFB0121034800F082F806B010BD000065
:1037C0000008014000380140411C88B2802800DB1D
:1037D0000020704710B504462146054800F049F91D
:1037E00000BF8021024800F076F80028F9D010BD13
:1037F0000038014070B540F225510E4800F078F8CD
:10380000B8B10C4800F030F9C5B20B480088FFF79A
:10381000DBFF044609480088844205D00848064971
:10382000098845540448048040F22551014800F0BD
:1038300037F870BD003801406400002066000020A9
:103840000401002010B540F22551124800F050F854
:10385000F8B1104800F008F9C4B20F480088B0F57C
:10386000FF7F0ADC0C490888411C0B4A11800B4978
:103870000C5400201288885406E000200649088075
:103880000649054A1288885440F22551014800F043
:1038900007F810BD00440040FC000020E02C002090
:1038A00010B50022002340F66A14A14200D100BFE7
:1038B0000A1201249440A3B2DC43048010BD21B15C
:1038C000828942F40052828104E082894DF6FF73BE
:1038D0001A408281704702460020B1F5007F00D176
:1038E00000BF13880B400BB1012000E0002070479F
:1038F00070B50246002400230025002040F66A1619
:10390000B14200D100BFC1F3421501F01F030126EF
:1039100006FA03F3012D02D19689334006E0022D09
:1039200002D1168A334001E0968A33400C120126F8
:1039300006FA04F41688344013B10CB1012000E0FB
:10394000002070BDF0B503460024002600250020AD
:1039500040F66A17B94200D100BF1846C1F34214BD
:1039600001F01F06012707FA06F5012C01D10C30E2
:1039700004E0022C01D1103000E014301AB10768C5
:103980002F43076002E00768AF430760F0BD000007
:103990002DE9F04786B005460E460024A24600BF3A
:1039A000A1460027B08900B100BF2F462C8A4CF6F3
:1039B000FF700440F08804432C82AC894EF6F3106B
:1039C0000440B08831890843718908430443AC81BD
:1039D000AC8A4FF6FF400440B0890443AC8201A892
:1039E000FFF756FD1F48874202D1DDF810A001E025
:1039F000DDF80CA0A88900F4004040B10AEBCA0031
:103A000000EB0A1031684900B0FBF1F807E00AEB5F
:103A1000CA0000EB0A1031688900B0FBF1F864209D
:103A2000B8FBF0F004012009642101FB1089A8898A
:103A300000F4004040B1322000EBC900B0FBF1F0CF
:103A400000F00700044308E0322000EB0910642175
:103A5000B0FBF1F000F00F0004432C8106B0BDE88C
:103A6000F08700000038014001468888C0F3080054
:103A70007047C1F308028280704700BFFEE749002B
:103A800050EAC12018BF04204A0D18BF40F00100C1
:103A900040F2FF72B2EB515F08BF40F00200012814
:103AA00008BF052070474100080218BF04200A0E15
:103AB00018BF40F001004FF07F4232EA010108BF19
:103AC00040F00200012808BF0520704700214FF098
:103AD0007E5002F0FFBC012103F035B802F086BC35
:103AE0000021084602F0F6BC61214FF0E04003F0EF
:103AF0002AB86FF05E01080703F025B830380A28AD
:103B000001D20120704700207047704770B504460D
:103B10000D46E0B2FFF75EFE204670BD1CB5FEF715
:103B200055FB0648062100238022CDE9001004A1A0
:103B3000064802F06DF901F08DFF1CBD1400002055
:103B400073746172745F7461736B0000394E0008A6
:103B50002DE9F0410026A0F50001B1F1FE4F7DD224
:103B600000F500226FF07E0101EBE251C2F3025436
:103B700077184FF07E52A0EBC15602EB045557EA7E
:103B8000040047D02946304602F030FC80462946E2
:103B9000304602F02FFF414602F09CFC05460146EC
:103BA00002F020FE80464A4902F01CFE494902F01C
:103BB0001DFC06464146284602F014FE314602F03E
:103BC00011FE0646384602F0ADFD0746424902F0B6
:103BD00009FE4249794451F8241002F007FC3146AD
:103BE00002F004FC06463E49284602F0FBFD314641
:103BF00002F0FCFB054638463A4902F0F3FD3A492B
:103C0000794451F8241002F0F1FB2946BDE8F04157
:103C100002F0ECBB4FF07E51304602F0EBFE054661
:103C2000324902F0DFFD324902F0E0FB294602F0A2
:103C3000D9FD304902F0DAFB294602F0D3FD2E49C6
:103C400002F0D4FB04462946084602F0CBFD21468B
:103C500002F0C8FD04462949284600E00EE002F0C3
:103C6000C1FD214602F0C2FB04462549284602F068
:103C7000B9FD2146BDE8F04102F0B8BB4FF07F42EC
:103C8000B2EB400F03D2BDE8F041FFF724BFB0F123
:103C9000FF4F08BFBDE8F081B0F1004F06D9012009
:103CA000FCF7D9FCBDE8F041FFF71ABF30F0004146
:103CB00005D06FF01606172102F045FF50E70220ED
:103CC000FCF7C9FCFFF702FF80F00040BDE8F0817F
:103CD000DE02323E3B3D943EFC849A36B8460000FC
:103CE000D95B5E3F00209A3E6C460000924FA93D92
:103CF0007279DEBD2D3E143ED85B5EBE157B4B3C1B
:103D00000000D83EFEF784FDFEF760FAFDF7C5FD22
:103D10004FF4E130FFF706FD03A0FCF7B9FA01E02C
:103D2000FFF7FCFEFCE7000053797374656D2073A8
:103D3000746172742C205541525431204031313518
:103D40003230300D0A00000010B50246012000E0BC
:103D500050430B1EA1F10104E1B2F9D110BD0000E6
:103D60002DE9F04D0E460023A0F5000C4FF0007138
:103D7000354684B002464FF07E5401EB45014FF0CA
:103D80007F48BCF1FE4F80F09F81B1F1804FC0F0C1
:103D9000DB81FE490144B1F5005F40F2A78200F5E6
:103DA0008021C90C01F00F07C1F307117F39A2EB85
:103DB000C15501EB030B384602F0B4FC6FF0030170
:103DC00002F0C1FE4FF07E5102F010FB014602905E
:103DD000284602F00FFE01902846029902F006FBE9
:103DE00000F5006A6FF30B0A00905146029802F04A
:103DF00001FE294602F0FAFA02904FF07E50009937
:103E000002F068FB01460090019802F0EBFC00F51F
:103E100000656FF30B052846029902F0E3FC02905F
:103E20005146284602F0DEFC019902F0D8FD0299C5
:103E300002F0E0FD009902F0D5FC01460190284611
:103E400002F0D4FA0146029002F0CCFC8246D0493E
:103E500002F0C8FCCF4902F0C9FA514602F0C2FC98
:103E600082460021284602F06EFE009051460298DC
:103E700002F0B8FC05460021019802F064FE2946D4
:103E800002F0B4FA82460146009802F0AFFA00F55B
:103E900000656FF30B052946009802F0ABFD514613
:103EA00002F0A4FA8246BC49284602F09BFC00902E
:103EB000BA49504602F096FC8246B949284602F0BB
:103EC00091FC514602F092FA82460146009802F0B7
:103ED0008DFA00F500656FF30B052946009802F096
:103EE00089FD514602F082FA8246AE48784450F885
:103EF000371000EBC700019147684FEA0B1002F042
:103F000011FC00903946504602F070FA294602F042
:103F10006DFA019902F06AFA009902F067FA00F569
:103F2000006B6FF30B0B5846009902F063FD01998B
:103F300002F060FD294602F05DFD394602F05AFDAF
:103F4000514602F04CFD06F5006782466FF30B0701
:103F50003946304602F04EFD0021009008464FF0F1
:103F6000000000F00C063946584602F03BFC0546BE
:103F700020F00040B0F18B4F0ADDB8EB400F07D3C3
:103F80004FF08B4060F31E052F464FF0000A1FE0F4
:103F90003846009902F02AFA514602F023FC0746FF
:103FA0005846009902F01EFC394602F01FFA82467C
:103FB0000146284602F01AFA00F500676FF30B0776
:103FC0003946284602F016FD514602F00FFA8246A5
:103FD00031460C204FF000005146384602F006FAF8
:103FE00002F056FB0646051102F09CFB394602F032
:103FF000F6FC514602F0FAF907466B4902F0F2FB73
:104000006A4902F0F3F9394602F0ECFB684902F024
:10401000EDF9394602F0E6FB0146664806F00F0668
:10402000784450F8260002F0DDFB6349794451F8EA
:10403000261002F0DBF96149794451F8261002F0AC
:10404000D5F905F17D01FC2908D2294602F07BFD56
:1040500004B02146BDE8F04D02F0C4BB05F1BF013C
:10406000B1F5BF7F16D8294602F06DFD214602F05A
:10407000B9FB0546B8EB450F1AD068000CD02846AE
:10408000FFF711FD042808BFFFF733FD284604B0F1
:10409000BDE8F08D002D0BDA0220FCF7DCFAFFF70B
:1040A00028FD0146204604B061F31E00BDE8F08DF6
:1040B0000220FCF7D0FAFFF717FD0146204604B0B6
:1040C00061F31E00BDE8F08DB1F1804F3CD300BF1D
:1040D00000F1FF41B1F1FE4F21D200BF20F00042BC
:1040E000C5F3C75110467F290DDB9729BFF651AEA6
:1040F000C1F196014FF0010C0CFA01F1A1F1010C94
:104100001CEA050F07D00120FCF7A5FA04B0BDE8B2
:10411000F04DFFF7E5BC294218BF294C39E64100B4
:104120001CBF4FF08071B1EB400F09D91B2102F089
:104130000AFD02466FF01A0310F0004FCED128E6B8
:10414000BCF1FE4F18D224E6B1F1007F0ED336F059
:10415000004105D006F0004141F0FC552E46B7E77E
:10416000410018BFB8EB400F78D8B1E7B1F1807FBC
:1041700038BFA5F50006ABD320F000416FF0FF4C2F
:10418000104C01EB0C03A3422FD31DE0001080C0A4
:104190007EE24C3EABAAAA3E00B038423BAA38426F
:1041A000D49AB8BBC0430000FC596337C9FF753AC5
:1041B0001872313D8C43000040430000F44200007F
:1041C000000080BFFFFF3F0025F000439C44A44552
:1041D0000BD3B0F17E5F18BF5FEA450C3ED0B1F162
:1041E000FF4F98BFB3F1FF4F05D904B03146BDE88A
:1041F000F04DFFF773BCB0F1FF4F0FD0C5F3C751BF
:104200007F2909DB972911DAC1F19601012202FA0F
:1042100001F14A1E2A4205D0002108E015F0004FA6
:1042200055D128E0294218BF012100D1022110F503
:10423000000F14D020B3B0F1004F27D010F1814F00
:104240004ED04FF0FE41B1EB400F94BF0120002053
:10425000012101EBE571884239D10CE040E015F015
:10426000004F02D0012936D031E0012902BF3F487A
:1042700004B0BDE8F08D4FF0FF4004B0BDE8F08D14
:1042800015F000400ED104B0BDE8F08DB5F1FF4F40
:104290001DD015F5000F05D015F0004F14D009B151
:1042A000012907D00220FCF7D6F904B0BDE8F04D93
:1042B000FFF70CBC0220FCF7CEF9FFF707FC04B0B7
:1042C00080F00040BDE8F08D09B1012903D004B0B1
:1042D0000020BDE8F08D04B04FF00040BDE8F08D47
:1042E00004B04FF07E50BDE8F08D00BF4FF07E511E
:1042F00002F080FB05466FF0010102F024FC1C492E
:1043000002F06DFB294602F06DFA4FF07C5102F08D
:1043100066FB07462946084602F064FA80F0004032
:10432000394602F05FFA82461249284602F05AFAEC
:1043300007461149504602F055FA82460F49284671
:1043400002F050FA514602F051F80546014638464F
:1043500002F04CF800F5006B6FF30B0B5946384632
:1043600002F048FB294602F041F8ECE5000080FF2E
:10437000ABAAAA3E00B0B8413BAAB841D49A38BB18
:104380002DE9F04105460E462948076800202949D5
:10439000096881F8590027480068001D01F096F966
:1043A00050B92448006890F82C1001208840224918
:1043B0000968814320480160681CD8B9D6B11F49FB
:1043C00048681C49096888601A4982680968CA6097
:1043D00018490968091D8268516016490968091D54
:1043E0008160164A134909684A6111460968491CE7
:1043F00011601AE07C190F4800684460BC4207D283
:104400000C480168091D0E48006801F083F90CE0B2
:1044100008480168091D0B48006801F07BF90A484B
:104420000068844201D208480460BDE8F0810000C1
:10443000800000206C0000208400002094040020F4
:1044400074000020700000209C00002010B504467D
:1044500001F086F931480068401C30490860304856
:10446000006840B92E4804600846006801280DD154
:1044700000F0E2F90AE02B48006838B928480068E3
:10448000C06AE16A884201D825480460264800686D
:10449000401C2549086008460068606494F82C10A8
:1044A0000120884021490968084320490860E16AE1
:1044B00001EB81011E4A02EB81014868A06082681D
:1044C000E260211D826851608160E16A01EB810137
:1044D000174A02EB81026261E16A01EB8101144A31
:1044E00052F82110491CE26A02EB8202104B43F899
:1044F000221001F047F90B48006868B108480068CD
:10450000C06AE16A884207D24FF0805009490860CA
:10451000BFF34F8FBFF36F8F10BD00007C000020F2
:104520006C000020880000209800002084000020FB
:10453000C401002004ED00E010B501F011F91048AD
:104540000068D0B90F4801F0D5F80F4801F0D2F853
:104550000C480E4908600C480D49086000221021E3
:10456000052001F01FFB064908600846006820B1DD
:1045700008A10348006801F057F901F003F910BDE4
:10458000B4000020A8040020BC040020AC000020DF
:10459000B0000020546D72510000000010B516E00C
:1045A00001F0DEF80C48C068C468201D01F08EF8E8
:1045B0000A480068401E0949086009480068401E12
:1045C0000749086001F0DEF8204600F05FF8044873
:1045D00000680028E4D110BD800400207C00002089
:1045E0007800002070B504460D46206C70B1216C37
:1045F000E0680144E160D4E90210884201D32168F7
:10460000E1602846226CE168FBF786FF70BD2DE96A
:10461000F04104460F4615464FF00008A66B206C8B
:1046200048B9206800282CD1A06801F0EFFC804632
:104630000020A06025E07DB93946226C6068FBF758
:104640006BFF216C606808446060D4E90101884216
:1046500017D32068606014E03946226CE068FBF7ED
:104660005BFF216CE068411AE1602168E0688842E4
:1046700003D2216CA068411AE160022D01D106B17C
:10468000761E701CA0634046BDE8F08110B504465C
:10469000206B01F087F8204601F084F810BD00007F
:1046A0000146084A126812680AB9012200E0002295
:1046B0000A600A6822B9034A1268D268106800E0EA
:1046C00000207047AC00002030B54FF4205317484D
:1046D00000F007042CB1C01D20F00700134C041B90
:1046E0001B1B0246124C22600024114D6C60D01836
:1046F000083820F007000F4C206000240D4D2D6875
:104700006C600C4D2D682C601146441A4C60094CAD
:1047100024680C60084D4C682C60084D4C682C6077
:104720004FF00044064D2C6030BD0000D004002046
:10473000C0000020C8000020D0000020CC000020D5
:10474000DC00002000BFFFF729FF064800680128B1
:10475000F9D94FF0805004490860BFF34F8FBFF381
:104760006F8FF0E7C401002004ED00E02DE9F04177
:1047700006460D4617469846069C0DB9246000E093
:104780002760E66325640121204601F031FA84F8B0
:1047900050800020A064BDE8F0812DE9F05F8146E3
:1047A0000E4690469A460A9F0C9C4FEA8801A52225
:1047B000206BFBF7F6FEA8F10100216B01EB800BEB
:1047C0002BF0070B86B1002507E0715D04F1340082
:1047D0004155705D00B902E06D1C102DF5D300BF8E
:1047E00000214320015502E0002084F83400202FEE
:1047F00000D31F27E762E76400202065201D00F03A
:1048000086FF04F1180000F082FF2461C7F1200048
:10481000A06164620020606584F8580084F8590043
:1048200052464946584600F0F5FA20600B9808B108
:104830000B980460BDE8F09F10B5002407E004EB7E
:1048400084010F4A02EB810000F054FF641C202C0D
:10485000F5D30C4800F04EFF0B4800F04BFF0B481F
:1048600000F048FF0A4800F045FF0A4800F042FF08
:1048700004480949086004480849086010BD000060
:10488000C401002044040020580400206C040020CF
:104890008004002094040020700000207400002098
:1048A00010B50146164800E0006803688B42FBD350
:1048B0000246436813448B4204D143684C68234446
:1048C000436001460A464B6813440468A34211D171
:1048D0000C4C03682468A34208D04B6804686468E1
:1048E00023444B6003681B680B6005E0054B1B68A5
:1048F0000B6001E003680B60884200D0016010BDCE
:10490000C0000020C80000202DE9F04104460D46FB
:1049100016461F464FF0000865602461B5420CD86A
:10492000F01BA169884202D34FF0010811E0211D5C
:104930000948006800F0EEFE0BE0BE4204D2BD4222
:1049400002D34FF0010804E0211D0448006800F084
:10495000E1FE4046BDE8F081B0000020AC00002040
:1049600070B5054600F0FCFEA86B08B9012400E014
:10497000002400F007FF204670BDF1B50098846C5C
:104980000026A06BE16B88421BD294F945500022AF
:1049900069462046FFF73BFE0646681C60B9606A20
:1049A00008B9012000E0002050B904F1240001F012
:1049B00083FB28B1012603E0681C40B284F845005F
:1049C00000BF3046F8BD000070B505460E460E48E3
:1049D0000068C068C468201D00F078FE94F82800C4
:1049E00000F0040028B132462946204600F0D0F8F5
:1049F00005E094F8280000F0FE0084F82800204626
:104A0000216A884770BD0000AC00002070B586B0F8
:104A100077E00298002805DA03AED6E90020B168F5
:104A2000904700BF029800286BDB049C606908B9BE
:104A3000012000E0002010B9201D00F047FE01A871
:104A400000F0D2F8054602980A2858D2DFE800F0B4
:104A50005705072E364706082F3700BF00BF00BF97
:104A600094F8280040F0010084F828000398A26917
:104A7000811803462A462046FFF746FFA8B194F85E
:104A8000280000F0040038B10398A26981182A4672
:104A9000204600F07DF805E094F8280000F0FE00C4
:104AA00084F828002046216A884729E000BF94F84E
:104AB000280000F0FE0084F8280021E000BF94F8F0
:104AC000280040F0010084F828000398A061A06944
:104AD00041192B462A462046FFF716FF10E094F8AE
:104AE000280000F0020018B9204600F05BFE05E047
:104AF00094F8280000F0FE0084F8280000E000BFD1
:104B000000BF002202A90448006801F0C1F8002893
:104B10007FF47FAF06B070BDB4000020F8B5054645
:104B20000C4600F0D3FF684600F05EF80646009899
:104B300020BB44B9B54206D801F042FB31462846B5
:104B4000FFF742FF1CE03CB10E480068006808B95E
:104B5000012000E000200446A91B22460A48006804
:104B600000F086FE01F02CFB50B94FF08050074951
:104B70000860BFF34F8FBFF36F8F01E001F020FBA0
:104B8000F8BD0000B0000020B400002004ED00E0FB
:104B900070B504460D46164604E0A069054420465B
:104BA000216A8847A06941192B4632462046FFF703
:104BB000ABFE0028F1D170BD09480068006808B953
:104BC000012000E0002020B14FF0FF3005490860CF
:104BD00005E003480068C068006802490860704743
:104BE000700000209C00002070B5044601F040F9E0
:104BF000054607480068854204D200F00BF8012002
:104C0000206001E00020206001480560284670BD5A
:104C1000BC00002070B508E00D480068C06804685A
:104C20004FF0FF312046FFF7CFFE094800680068CB
:104C300008B9012000E000200028EDD004480568F4
:104C400004480068024908600248056070BD000021
:104C5000AC000020B000002000BF502080F311887D
:104C6000BFF34F8FBFF36F8F00BF00BFFEE708B5E4
:104C700000BF6846FFF714FD044620460099FFF781
:104C80004DFFFFF7C3FEF4E770B5044600F068FD82
:104C900094F9455019E0A06C30B12046FFF76DFE45
:104CA00088B100F09BFE0EE0606A08B9012000E0C8
:104CB000002038B904F1240001F0FEF918B100F029
:104CC0008DFE00E003E0681E45B2002DE3DC00BF6E
:104CD000FF2084F8450000F055FD00F041FD94F9F7
:104CE000445010E0206908B9012000E0002048B9D4
:104CF00004F1100001F0E0F908B100F06FFE681E49
:104D000045B200E001E0002DECDC00BFFF2084F89C
:104D1000440000F037FD70BD2DE9F04104464FF02E
:104D2000000800F0D3FE3548006808B9FFF7CCFC56
:104D300033480068204000285BD1B4B104F108007A
:104D4000A04212D9083404F0070078B104F007003B
:104D5000C0F108002044A04205D904F00700C0F1CA
:104D60000800044402E0002400E00024002C40D0AD
:104D70002448006884423CD8234E3046056801E050
:104D80002E462D686868A04202D228680028F7D114
:104D90001A48006885422CD0306800F1080828685D
:104DA00030606868001B102807D92F196868001B3D
:104DB00078606C603846FFF773FD124968680968CF
:104DC000081A1049086008460068104909688842B6
:104DD00003D20C4800680D490860094968680968F1
:104DE000084368600020286009480068401C0849A2
:104DF000086001F0E5F94046BDE8F081C8000020F8
:104E0000DC000020CC000020C0000020D0000020EA
:104E1000D4000020001F4FF080730360001F21F0BA
:104E200001030360001F034B036014380260203845
:104E300070470000594C00081CB5044600F090FC77
:104E40001C48022100238022CDE900101AA11C4831
:104E500000F0DEFF1B48032100238022CDE9001073
:104E600019A11B4800F0D4FF1A4804210023802216
:104E7000CDE9001018A11A4800F0CAFF1948052111
:104E800000238022CDE9001017A1194800F0C0FFCF
:104E90001848012100230A02CDE9001016A1184884
:104EA00000F0B6FF00F06EFC1648006800F020FD30
:104EB0001CBD0000180000207461736B31000000FD
:104EC000094F00081C0000207461736B3200000061
:104ED000154F0008200000207461736B3300000040
:104EE00009530008240000207461736B3400000033
:104EF0006D530008280000207461736B35000000BA
:104F0000995300081400002002E0642000F0D6FC51
:104F1000FBE7000008B5FCF7C0FCFCF7B0FD4FF65E
:104F2000FF70FDF7C5F80020C94908808FE1FCF744
:104F3000F1FC04464CB1C74920680860C649606866
:104F400008600120C549087002E00020C3490870CC
:104F5000FCF7BCFDC24908600021C148006801F0AF
:104F60000DFD03D80120BF49087002E00020BD49B3
:104F70000870BD48006801F0B5FB8246BB48006878
:104F800001F0B0FB83464FF6FF707F231A460021E5
:104F900000900846FDF7CAF8B048007800287AD09B
:104FA000B349AC48006801F01DFC814601F054FB98
:104FB0000746AF49A848006801F014FC814601F09B
:104FC0004BFB05462E46002E00DA76420120A9A3AF
:104FD0000C22042100900220FDF758FB002D08DA76
:104FE0000120A6A30C22042100902620FDF74EFBF1
:104FF00007E00120A2A30C22042100902620FDF747
:1050000045FB0A2096FBF0F90C2002234A460421B6
:1050100000902C20FDF7E2FA01209AA30C22042133
:1050200000903820FDF732FB0A2096FBF0F100FBE0
:1050300011690C2001234A46042100903E20FDF70F
:10504000CDFA012090A30C22142100900220FDF73C
:105050001DFB0A2097FBF0F90C2002234A4614217D
:1050600000902620FDF7BAFA012086A30C22142115
:1050700000903220FDF70AFB0A2097FBF0F100FBBD
:1050800011790C2001234A46142100903820FDF7A5
:10509000A5FA10E0FFE701207DA30C220421009077
:1050A0000220FDF7F3FA01207BA30C2214210090CB
:1050B0000220FDF7EBFA6B48007888B36C4968482A
:1050C000006801F08FFB814601F0C6FA804601209E
:1050D00073A30C22242100900220FDF7D7FA0A20A6
:1050E00098FBF0F90C2005234A46242100901E204D
:1050F000FDF774FA012063A30C22242100903C20C8
:10510000FDF7C4FA0A2098FBF0F100FB11890C208E
:1051100001234A46242100904220FDF75FFA08E06F
:10512000FFE7012060A30C22242100900220FDF75C
:10513000ADFA01205EA30C22342100900220FDF77D
:10514000A5FA0C2005235246342100901E20FDF7BD
:1051500045FA012058A30C22342100904220FDF78B
:1051600095FA012055A30C22442100900220FDF75E
:105170008DFA0C2005235A46442100901E20FDF78D
:105180002DFA01204CA30C22442100904220FDF76F
:105190007DFA01204BA30C22542100900220FDF740
:1051A00075FA0C20012300904848027854212C20E5
:1051B000FDF714FA012046A30C22542100903C2054
:1051C000FDF764FA0C200123009043480278542133
:1051D0006620FDF703FA012040A30C226421009011
:1051E0000220FDF753FA3F48007840B101203EA36A
:1051F0000C22642100902620FDF748FA07E00120E8
:105200003AA30C22642100902620FDF73FFA0120EA
:1052100037A30C22642100904620FDF737FA364868
:10522000007840B1012035A30C226421009008468B
:10523000FDF72CFA07E0012031A30C226421009035
:105240000846FDF723FA4FF4FA7000F037FB6EE6DC
:10525000E40000202C00002030000020340000205A
:10526000380000203C0000204400002048000020BE
:105270000000204174656D703A0000002D000000B0
:10528000200000002E00000068756D693A000000E3
:1052900074656D703A3F000068756D693A3F0000B3
:1052A0006C75783A000000006C75783A3F00000099
:1052B0006D71343A0000000070706D006D71373A06
:1052C000000000006D7134646F3A0000420000205D
:1052D0006D7137646F3A00004300002068756D619E
:1052E0006E3A00004C000020796573006E6F00007C
:1052F000776966693A0000004D0000204F4B0000BE
:105300004641494C00000000FDF7CEFB21E008209B
:10531000FDF7C9FA0F4908800820FDF70EFB0E497A
:105320000880FDF7D3FA0D490870FDF719FB0C4909
:10533000087008480088FDF7D1FA0A490860064855
:105340000088FDF715FB084908604FF4967000F0DF
:10535000B5FADCE73E0000204000002042000020BB
:10536000430000204400002048000020FCF77EFE9F
:105370000FE0FCF791FE074908700846007810B16D
:10538000FDF766FA01E0FDF759FA4FF47A7000F084
:1053900095FAEEE74C000020B6B04FF4E130FCF790
:1053A0007BFCB8E05CA0007810B15CA0007860B92C
:1053B00000205D4908705D4908705DA0FAF768FF3C
:1053C00041F2883000F07AFAA5E0574800780028CA
:1053D0001AD143F6982251A14FA0FCF7EDFB30B152
:1053E0000120514908705FA0FAF752FF0CE000203D
:1053F0004D4908704D49087061A0FAF749FF40F621
:10540000B83000F05BFA86E048480078002839D1CF
:105410007820624962A365A2CDE9001040F25B7179
:1054200064A0FDF75FFD30B101204049087066A01F
:10543000FAF72EFF26E000203C490870FDF75CFFDC
:105440000446214665A0FAF723FFFDF74FFF044607
:10545000214669A0FAF71CFFFCF70EFC0446214622
:105460006AA0FAF715FFFCF707FC04466BA1FBF7EF
:1054700022F810B16BA0FAF70BFF40F6B83000F03D
:105480001DFA48E07648006800F084FF04460D46A7
:105490007448006800F07EFF06460F4672480068B8
:1054A00000F078FF804689467048006800F072FF7F
:1054B00082468B466E48006800F06CFFCDE90C0117
:1054C0006C480078CDE902ABCDE90489CDE90667E7
:1054D000CDE908450A90DDE90C01674ACDE90001F4
:1054E000A0210EA8FAF7E0FE00231A460EA963A039
:1054F000FDF708FF30B900200C4908706AA0FAF7E0
:10550000C7FE03E00EA96DA0FAF7C2FE41F2883093
:1055100000F0D4F900BF45E736343000313233347F
:1055200035363738000000004D0000204E000020C6
:1055300053657420574946495F535349442F57498F
:1055400046495F50415353574F524420696E20667D
:1055500072656572746F735F64656D6F2E630D0A9B
:1055600000000000455350383236362057694669EE
:1055700020636F6E6E65637465640D0A0000000041
:1055800045535038323636205769466920636F6E6E
:105590006E656374206661696C0D0A00848400087E
:1055A000365332365A6B6638345000004553503803
:1055B000323636006D717474732E6865636C6F7566
:1055C00064732E636F6D00004D51545420636F6EF1
:1055D0006E65637465640D0A000000004D515454FB
:1055E00020636F6E6E656374206661696C2C206544
:1055F00072723D25640D0A00434F4E4E41434B20CD
:10560000636F64653D25640D0A000000455350201A
:105610007273703A2025730D0A000000526563769C
:10562000000000005469703A20434F4E4E454354E9
:105630002073656E742C20636865636B204F6E6504
:105640004E455420617574682F746F7069632F63C1
:105650006C69656E7420706172616D730D0A000073
:105660004800002044000020380000202C000020CA
:10567000300000204C00002004850008247379735A
:105680002F365332365A6B663834502F45535038C4
:105690003236362F7468696E672F70726F7065725C
:1056A00074792F706F7374004D515454207075626B
:1056B0006C697368206661696C0D0A004D51545421
:1056C000207075623A2025730D0A000001460A69B0
:1056D000D1E901309860D1E90103586050688842EF
:1056E00001D188685060002008611068401E106079
:1056F0001068704700F1080141604FF0FF31816090
:1057000000F10801C16001610021016070470021C2
:105710000161704710B502460B685C1C0CB910693A
:1057200007E002F1080000E04068446824689C42F9
:10573000FAD944684C604C68A160886041600A6195
:105740001468641C146010BD42684A6093688B60E2
:10575000936859609160086103685B1C036070473F
:1057600000BF502080F31188BFF34F8FBFF36F8FBE
:1057700000BF03480068401C0149086070470000F2
:10578000E000002006480068401E05490860084601
:10579000006820B9002080F3118800BF00BF704767
:1057A000E000002070B506463546FEB1083D2C46A7
:1057B0000F49606809680840C0B12068B0B90C4959
:1057C000606809688843606000F080F90949606892
:1057D00009680844074908602046FFF761F8064851
:1057E0000068401C0449086000F0EAFC70BD00003D
:1057F000DC000020CC000020D800002000204FF06A
:10580000E0210861886107480068C0084FF47A7198
:10581000B0FBF1F0401E4FF0E02148610320086129
:10582000704700005000002010B502460B460021D2
:10583000BBB1002012E00D4C04EBC004646894423C
:1058400003D10A4C04EBC0010AE031B9074C54F80B
:10585000304014B9054C04EBC001401C0828EAD3C1
:1058600000BF09B10B604A6010BD00008401002038
:105870002DE9F04105460E4617462C46FFF770FF0E
:1058800094F94400401C10B9002084F8440094F9B5
:105890004500401C10B9002084F84500FFF772FF56
:1058A000A06B28B93A46314604F1240000F0ACF868
:1058B0002046FFF7E9F9BDE8F081000070B5044625
:1058C000002544B100F002F900212046FEF758FD02
:1058D00000F076FC05463DB94FF080500349086062
:1058E000BFF34F8FBFF36F8F70BD000004ED00E07A
:1058F00070B50546FFF734FF15B92948006800E088
:1059000028460446201DFFF7E1FE78B9E06A00EB67
:105910008000244951F8200040B994F82C1001204F
:1059200088402149096881431F480160A06A18B175
:1059300004F11800FFF7CAFE1C480068401C1B4910
:10594000086017480068844209D1211D1848FFF7F4
:10595000FBFE18480068401C1649086006E016481F
:105960000068401E14490860FFF726F9FFF70AFF98
:105970000B480068844202D02046FEF787FE0F489D
:10598000006858B106480068844207D14FF0805043
:105990000B490860BFF34F8FBFF36F8F70BD0000DE
:1059A0006C000020C401002084000020980000202A
:1059B00080040020780000207C0000208800002067
:1059C00004ED00E00349096801600349096841608A
:1059D0007047000094000020800000200120014951
:1059E000086070479000002070B505460C460548D9
:1059F000016818312846FFF78DFE01212046FEF789
:105A0000BFFC70BD6C00002070B504460E46154604
:105A100060680F490968C8610D49826809680A62AF
:105A20000B490968183182685160094909681831C1
:105A30008160074909688C622168491C21600DB1A9
:105A40004FF0FF3629463046FEF79AFC70BD000045
:105A50006C0000201CB5154800210B468022CDE9C2
:105A6000001013A1144800F0D3F90446012C02D110
:105A700000F054FC0446012C14D100BF502080F3E8
:105A80001188BFF34F8FBFF36F8F00BF4FF0FF3010
:105A90000A49086001200A49086000200949086095
:105AA00000F04CF8084800681CBD0000A000002071
:105AB00049444C4500000000454700089C00002078
:105AC0008800002080000020A40000200248006818
:105AD000401C014908607047A80000201248006877
