:020000040800F2
:10000000D83C002035020008F11F0008C911000883
:10001000A91D0008310C00083B2D0008000000005D
:100020000000000000000000000000009D0100082A
:10003000350C000800000000E10100087D290008DF
:100040004F0200084F0200084F0200084F0200084C
:100050004F0200084F0200084F0200084F0200083C
:100060004F0200084F0200084F0200084F0200082C
:100070004F0200084F0200084F0200084F0200081C
:100080004F0200084F0200084F0200084F0200080C
:100090004F0200084F0200084F0200084F020008FC
:1000A0004F0200084F0200084F0200084F020008EC
:1000B0004F0200084F0200084F0200084F020008DC
:1000C0004F0200084F0200084F0200084F020008CC
:1000D0004F020008B52A0008052B00084F0200084F
:1000E0004F0200084F0200084F02000800F002F81B
:1000F00000F045F80AA090E8000C82448344AAF17D
:100100000107DA4501D100F03AF8AFF2090EBAE87A
:100110000F0013F0010F18BFFB1A43F0010318473B
:10012000C0780000E0780000103A24BF78C878C199
:10013000FAD8520724BF30C830C144BF04680C60ED
:10014000704700000023002400250026103A28BF35
:1001500078C1FBD8520728BF30C148BF0B60704739
:10016000642900F00D81752900F00A81732900F0DF
:10017000AA82002070471FB51FBD10B510BD00F04A
:10018000F7FA1146FFF7F7FF02F032FF00F015FB18
:1001900003B4FFF7F2FF03BC02F0FCFD224B196829
:1001A0000868B0E8F00F80F30988BFF36F8F4FF055
:1001B000000080F311884EF00D0E70470000000023
:1001C00006480068006880F3088862B661B6BFF32D
:1001D0004F8FBFF36F8F00DF00BF00BF08ED00E05F
:1001E000EFF30980BFF36F8F0F4B1A6820E9F00F10
:1001F000106008B54FF0500080F31188BFF34F8FA7
:10020000BFF36F8F04F00EFF4FF0000080F31188F2
:10021000BDE8084019680868B0E8F00F80F3098865
:10022000BFF36F8F704700BF70000020EFF30580B1
:10023000704700000948804709480047FEE7FEE78D
:10024000FEE7FEE7FEE7FEE7FEE7FEE7FEE7FEE786
:1002500004480549054A064B7047000085290008F7
:10026000ED000008D8360020D83C0020D838002007
:10027000D8380020704700000FB4044910B503AA15
:10028000029800F025FA10BC5DF814FB6C00002009
:100290000FB41CB50C0007AA009001D02044401EEA
:1002A000074B7B4469460190069800F0DAF9002C70
:1002B00003D06946002000F0E7F91CBC5DF814FB90
:1002C000ED0300002DE9F0410E46044600202062B7
:1002D0002046E168884730B3252805D0D4E90121BC
:1002E0009047206A401CF2E7E168204600278847D3
:1002F000050018D0A5F14100192802D820354FF487
:1003000000673246294620462760FFF729FF40B1A3
:10031000012804D0F61D26F007060836D8E7361D5A
:10032000D6E72846DAE7206ABDE8F08170B50C46CA
:100330000546012A05D02878800600D5EA69002301
:1003400002E0012305E05B1C934202D2E05C00283E
:10035000F9D1A869E618C01AA861286A1844286269
:100360002846AFF3008004E0D5E9012114F8010B21
:100370009047B442F8D32846AFF3008070BD000028
:100380002DE9F0410646002410687529314616A56E
:1003900010D0AFF30080002802DA404213A507E036
:1003A00031688A0701D512A502E0490704D511A5D5
:1003B000012401E0AFF3008000210A2206F12407A6
:1003C00009E0B0FBF2FCB0FBF2F302FB1C003030A2
:1003D00078541846491C0028F3D123462A46304653
:1003E000BDE8F04100F0DEB8000000002D00000084
:1003F0002B0000002000000030B505460B462A46C1
:1004000013F8014B12F8010B08B1A042F8D01CB14F
:10041000002802D06D1CF1E7284630BD10B5431C02
:1004200002E010F8011B71B18107FAD14FF00132DF
:1004300002C88C1A8C4314EAC211F9D0C01A0A06F9
:1004400003D0C01E10BDC01A10BD0A0401D0801E0A
:1004500010BD0902FCD0401E10BD032A40F23080BE
:1004600010F0030C00F0158011F8013BBCF1020FF5
:10047000624498BF11F801CB00F8013B38BF11F876
:10048000013BA2F1040298BF00F801CB38BF00F88D
:10049000013B11F0030300F02D81083AC0F0088001
:1004A00051F8043B083A51F804CBA0E80810F5E7EE
:1004B000121D5CBF51F8043B40F8043BAFF30080D1
:1004C000D20724BF11F8013B11F801CB48BF11F846
:1004D000012B24BF00F8013B00F801CB48BF00F816
:1004E000012B704702F0FF0343EA032242EA024273
:1004F00000F002B84FF000020429C0F0128010F0A2
:10050000030C00F01B80CCF1040CBCF1020F18BFEF
:1005100000F8012BA8BF20F8022BA1EB0C0100F082
:100520000DB85FEAC17C24BF00F8012B00F8012B55
:1005300048BF00F8012B70474FF0000200B513468A
:1005400094469646203922BFA0E80C50A0E80C50F3
:10055000B1F12001BFF4F7AF090728BFA0E80C50A4
:1005600048BF0CC05DF804EB890028BF40F8042B9D
:1005700008BF704748BF20F8022B11F0804F18BF0A
:1005800000F8012B7047704770477047704710B5EF
:1005900000F0E2F8006810BD10B5044600F0DCF889
:1005A000046010BD2DE9F0470D4699469246044679
:1005B00000F124080168880604D5E06921F01001E3
:1005C000216000E00120A84201DD471B00E0002778
:1005D000A1697A1902EB0900081AA0612078C00607
:1005E00002D42046AFF30080002608E0D4E90121C0
:1005F0001AF806009047206A401C761C20624E457F
:10060000F4DB2078C0060AD52046AFF3008006E070
:10061000D4E9012130209047206A401C2062381E16
:10062000A7F10107F4DC07E0D4E9012118F805007F
:100630009047206A401C2062281EA5F10105F3DCCA
:100640002046AFF300802078000602D50220BDE8E6
:10065000F0870120FBE7000001694A1C026108786D
:10066000704700B58FB0CDE90131002105910549F2
:100670007944CDE9031011466846FFF723FE0FB019
:1006800000BD0000E5FFFFFF0A6802F8010B0A60E9
:100690007047D1E900239A4202D2531C0B601070BC
:1006A000704710B5436913B1AFF3008001E0FFF765
:1006B0003DFE012010BD127800F124010A700022D5
:1006C0004A700122EDE711684FF0FF32E9E70000C0
:1006D000074B70B50D467B44FFF7C3FF0446284621
:1006E00000F03EF810B14FF0FF3070BD204670BDF5
:1006F0001D27000010B5203AC0F00B80B1E818505B
:10070000203AA0E81850B1E81850A0E81850BFF4FB
:10071000F5AF5FEA027C24BFB1E81850A0E818509A
:1007200044BF18C918C0BDE810405FEA827C24BFEE
:1007300051F8043B40F8043B08BF7047D20728BF7C
:1007400031F8023B48BF11F8012B28BF20F8023BCB
:1007500048BF00F8012B70470048704774360020EE
:10076000007B00F08000704700487047743600201E
:100770007546FFF7F9FFAE4605006946534620F07F
:100780000700854618B020B5FFF762FDBDE82040A0
:100790004FF000064FF000074FF000084FF0000B3D
:1007A00021F00701AC46ACE8C009ACE8C009ACE8F0
:1007B000C009ACE8C0098D46704710B50446AFF3D8
:1007C00000802046BDE81040FFF7E2BC21B18268FE
:1007D00042F00102826003E0826822F0010282603E
:1007E0007047000010B504461248844208D1012128
:1007F000401501F09DFF0021601501F099FF17E001
:100800000D48844208D10121001501F091FF00211B
:10081000201501F08DFF0BE00848844208D101212A
:10082000C80301F085FF00214FF4004001F080FF74
:1008300010BD00000024014000280140003C0140A0
:10084000014600208A6802F004020AB1012000E09B
:10085000002070470146C86C80B2704702460020F5
:1008600013680B400BB1012000E0002070470146E7
:1008700000208A6802F008020AB1012000E000208E
:100880007047000030B502460020002350680F4C2E
:1008900020400D790C6844EA05242043506090689C
:1008A0000B4C2040D1E902542C434D7944EA4504D5
:1008B00020439060D06A20F470000C7C641EE4B287
:1008C000234340EA0350D06230BD0000FFFEF0FF3A
:1008D000FDF7F1FFF0B504460D4600200021092D7B
:1008E00011DDE068A5F10A0606EB4607072606FAC1
:1008F00007F18843A5F10A0606EB460603FA06F15E
:100900000843E0600CE0206905EB4507072606FA7E
:1009100007F1884305EB450603FA06F10843206119
:10092000072A0FDA606B561E06EB86071F2606FAAB
:1009300007F18843561E06EB860605FA06F10843C2
:10094000606322E00D2A0FDA206BD61F06EB8607C4
:100950001F2606FA07F18843D61F06EB860605FA1E
:1009600006F10843206310E0E06AA2F10D0606EBF1
:1009700086071F2606FA07F18843A2F10D0606EB4B
:10098000860605FA06F10843E062F0BD816841F091
:1009900008018160704721B1826842F4A002826040
:1009A00003E0826822F4A00282607047816841F00F
:1009B00004018160704710B5002401F007FA282077
:1009C00000F00DF800F021F8044604F00C000C28AB
:1009D00004D000F0D4F80A2000F001F810BD0CB5E6
:1009E000002101910DE00021009103E000BF00997A
:1009F000491C00910099B1F5FA5FF7D30199491CA0
:100A0000019101998142EED30CBD10B5002401F093
:100A10004DFA712001F035FA01F0FEF901F00BFA00
:100A20000446012001F021FA01F04EFA204610BDE3
:100A30002DE9FC4100200090019000F0A7F8502023
:100A4000FFF7CDFF01F032FA712001F01AFA01F040
:100A5000E3F901F0F0F98DF80000002001F005FA4B
:100A600001F0E9F98DF80100002001F0FEF901F034
:100A7000E2F98DF80200002001F0F7F901F0DBF94E
:100A80008DF80300002001F0F0F901F0D4F98DF8A1
:100A90000400002001F0E9F901F0CDF98DF805001E
:100AA000012001F0E2F901F00FFA9DF8000000F0DA
:100AB0008000C8BB002400259DF8010000039DF8BC
:100AC000021040EA01109DF8031040EA11149DF84D
:100AD00003000007000B9DF8041040EA01209DF878
:100AE000051040EA0105204605F090F807464FF052
:100AF000934104F04BFF06460E4905F0CFF80E492E
:100B00000860284605F082F880464FF0934104F0D3
:100B10003DFF0746094905F0C1F80646084905F0BA
:100B2000C5F90549486003E0FFE70020BDE8FC8106
:100B30000148FBE70000C842F000002000004843E5
:100B40000000484270B506460C46154601F0AEF965
:100B5000702001F096F901F05FF9304601F091F94B
:100B600001F05AF9204601F08CF901F055F92846B8
:100B700001F087F901F050F901F0A6F970BD10B548
:100B800000220821BE20FFF7DDFF10BD10B50022B6
:100B90003321AC20FFF7D6FF10BD10B501F016F9D8
:100BA00001F084F9462001F06CF901F035F90120DB
:100BB00001F067F901F030F901F086F90A20FFF73A
:100BC0000EFF01F073F9462001F05BF901F024F902
:100BD000102001F056F901F01FF901F075F9B42069
:100BE000FFF7FDFE10BD00002DE9F04101F05EF9B8
:100BF000472001F046F901F00FF901F01CF9044615
:100C0000002001F032F901F016F90546012001F04B
:100C10002CF901F059F945EA0426304604F0F6FFB4
:100C20000746024904F0B2FEBDE8F0819A99993F67
:100C300000BFFEE7704700B5034603E04FF47A704B
:100C400000F005F8181EA3F10103F7D100BD00EB79
:100C5000C001C9004FF0E0225161002191610521DE
:100C6000116100BF4FF0E021096901F480310029D2
:100C7000F8D004214FF0E0221161704770B50446AE
:100C80000CB9012070BD084805880DB90020F9E7AE
:100C900000200649485521460448FFF7ADFB08B13E
:100CA0000120EFE70020EDE700010020E42C002008
:100CB000002004E00021054A1154411C88B2B0F51F
:100CC000007FF7DB0021024A11807047E42C0020EE
:100CD0000001002070B5AAB004460D46164600F08B
:100CE0008BF910B900202AB070BD4FF47A7210A1B0
:100CF00010A000F0B3F800F01DF908B90020F2E7E9
:100D000023460EA2A02102A80095FFF7C1FA3246A1
:100D10000FA102A800F0A2F838B9324604A102A837
:100D200000F09CF808B90020DDE70120DBE70000B7
:100D30004F4B0000415445300000000041542B430C
:100D4000574A41503D222573222C22257322000050
:100D50005749464920474F542049500010B5044692
:100D60000A4604B10AB9002010BD0848038893421E
:100D700000DD1346002104E00548405C6054481C37
:100D800081B29942F8DB1846EEE70000000100202E
:100D9000E42C002005480188B1F5FF7F01DD40F219
:100DA000FF110020024A50541046704700010020F5
:100DB000E42C002010B586B004460121042001F087
:100DC000A7FC0121480401F093FC0420ADF81400B5
:100DD00018208DF8170003208DF8160005A91D486E
:100DE00000F034F90820ADF8140004208DF8170045
:100DF00005A9184800F02AF901940020ADF8080070
:100E0000ADF80A00ADF80C00ADF810000C20ADF8FC
:100E10000E0001A9104801F01BFF012240F22551EC
:100E20000D4801F0EFFE26208DF8000007208DF818
:100E3000010001208DF802008DF80300684601F0E2
:100E4000D9F80121044801F09AFEFFF731FF06B0FE
:100E500010BD0000000801400044004070B5064687
:100E60000C461546FFF724FF304600F057F804A063
:100E700000F054F82946204600F0CAF870BD000082
:100E80000D0A000010B504462146054801F051FF47
:100E900000BF8021024801F07EFE0028F9D010BD7D
:100EA0000044004070B588B006460C4606B114B93F
:100EB000002008B070BD234611A220216846FFF72C
:100EC000E7F940F6B83212A16846FFF7C7FF08B944
:100ED0000020EEE7FFF7ECFE002504E0705DFFF771
:100EE000D1FF681C85B2A542F8DB41F2883109A028
:100EF00000F08EF808B90020DBE70120D9E70000F8
:100F000041542B43495053454E443D257500000044
:100F10003E00000053454E44204F4B0010B50446A0
:100F200003E02078FFF7AEFF641C20780028F8D19A
:100F300010BD000010B54FF47A7204A104A0FFF7B1
:100F40008DFF08B9002010BD0120FCE74F4B0000C9
:100F500041542B43574D4F44453D310008B50AE0FD
:100F60000021009103E000BF0099491C0091009905
:100F7000B1F5FA5FF7D3011EA0F10100F0D108BD71
:100F800030B599B004460D4623460DA2602101A854
:100F90000095FFF77DF941F2883210A101A8FFF713
:100FA0005DFF10B1012019B030BD4FF47A720DA170
:100FB00001A8FFF753FF08B10120F4E70020F2E792
:100FC00041542B43495053544152543D22544350B1
:100FD000222C222573222C2575000000434F4E4EF3
:100FE00045435400414C524541445920434F4E4ED5
:100FF000454354454400000010B54FF47A7202A1F5
:1010000002A0FFF72BFF10BD4F4B00004154000022
:1010100070B505460C460EE02846FFF72FFE08B1D6
:10102000012070BD07A0FFF729FE08B10020F8E7F6
:101030000120FFF793FF201EA4F10104ECD100BFB3
:10104000EFE700004552524F520000002DE9F041F9
:10105000024600250026002000230024002791F8E6
:1010600003C00CF00F0591F803C00CF0100CBCF19C
:10107000000F03D091F802C04CEA050591F800C0BA
:10108000BCF1000F31D0146800202BE04FF0010CB0
:101090000CFA00F3B1F800C00CEA03069E4220D11E
:1010A00083004FF00F0C0CFA03F7BC4305FA03FC66
:1010B0004CEA040491F803C0BCF1280F06D14FF0AC
:1010C000010C0CFA00FCC2F814C00AE091F803C04D
:1010D000BCF1480F05D14FF0010C0CFA00FCC2F82E
:1010E00010C0401C0828D1D31460B1F800C0BCF176
:1010F000FF0F34DD546800202EE000F1080C4FF0A3
:10110000010808FA0CF3B1F800C00CEA03069E428D
:1011100021D183004FF00F0C0CFA03F7BC4305FA02
:1011200003FC4CEA040491F803C0BCF1280F05D17C
:1011300000F1080C08FA0CF8C2F8148091F803C00A
:10114000BCF1480F07D100F1080C4FF0010808FA74
:101150000CF8C2F81080401C0828CED35460BDE8BB
:10116000F0810246002093680B400BB1012000E0A3
:101170000020704741617047016170470AB1016109
:1011800000E041617047000008B50121082001F02E
:10119000BFFA4FF48060ADF8000028208DF80300FE
:1011A00003208DF8020069460148FFF74FFF08BD94
:1011B000000C014010B54FF480610248FFF7D1FFE9
:1011C00010BD0000000C014000BFFEE770B50646F0
:1011D00013484088401E83B211480088401E82B2E6
:1011E0000021084600F0BEF910200E4908600002F8
:1011F0000D49086000240AE0002503E0304600F0B5
:10120000BFFB6D1C06480088A842F7D8641C044840
:101210004088A042F0D810200249091F086070BD24
:10122000D42C002014080140100C014070B5044675
:101230000D462946204600F08BF90248008800F050
:101240009FFB70BDE80000202DE9F05F04460D46CD
:1012500016461F46301B401C1FFA80FA781B401CA4
:101260001FFA80FB3B4632462946204600F07AF9B9
:101270004FF000080FE04FF0000906E00A9800F078
:101280007FFB09F101001FFA80F9D145F6DB08F177
:1012900001001FFA80F8D845EDDB07484088401E62
:1012A00083B205480088401E82B20021084600F043
:1012B00059F9BDE8F09F0000D42C002008B50121A9
:1012C000082001F025FA4FF4E040ADF800000320BB
:1012D0008DF8020010208DF8030069460148FFF7E1
:1012E000B5FE08BD000C014010B500F011FEFFF77F
:1012F000E5FF00F019F9112000F0A4FA7820FFF7BB
:101300009AFCB12000F09EFA012000F083FA2C2014
:1013100000F080FA2D2000F07DFAB22000F092FA61
:10132000012000F077FA2C2000F074FA2D2000F054
:1013300071FAB32000F086FA012000F06BFA2C203D
:1013400000F068FA2D2000F065FA012000F062FA42
:101350002C2000F05FFA2D2000F05CFAB42000F0A1
:1013600071FA072000F056FAC02000F06BFAA220B4
:1013700000F050FA022000F04DFA842000F04AFA02
:10138000C12000F05FFAC52000F044FAC22000F04E
:1013900059FA0A2000F03EFA002000F03BFAC32080
:1013A00000F050FA8A2000F035FA2A2000F032FAD4
:1013B000C42000F047FA8A2000F02CFAEE2000F05A
:1013C00029FAC52000F03EFA0E2000F023FA36205C
:1013D00000F038FAC82000F01DFAE02000F032FAE0
:1013E0000F2000F017FA1A2000F014FA0F2000F076
:1013F00011FA182000F00EFA2F2000F00BFA282026
:1014000000F008FA202000F005FA222000F002FA8D
:101410001F2000F0FFF91B2000F0FCF9232000F052
:10142000F9F9372000F0F6F9002000F0F3F9072071
:1014300000F0F0F9022000F0EDF9102000F0EAF9D8
:10144000E12000F0FFF90F2000F0E4F91B2000F08C
:10145000E1F90F2000F0DEF9172000F0DBF933206E
:1014600000F0D8F92C2000F0D5F9292000F0D2F9AD
:101470002E2000F0CFF9302000F0CCF9302000F021
:10148000C9F9392000F0C6F93F2000F0C3F9002067
:1014900000F0C0F9072000F0BDF9032000F0BAF910
:1014A000102000F0B7F92A2000F0CCF9002000F05D
:1014B000B1F9002000F0AEF9002000F0ABF97F2078
:1014C00000F0A8F92B2000F0BDF9002000F0A2F9EF
:1014D000002000F09FF9002000F09CF99F2000F010
:1014E00099F9F02000F0AEF9012000F093F9F62010
:1014F00000F0A8F9002000F08DF93A2000F0A2F9E0
:10150000052000F087F9292000F09CF9002000F068
:10151000C3F90120034908604FF6FF70FFF756FE3C
:1015200010BD0000B881214210B54FF400500749AA
:1015300008606420FFF77FFB4FF400500349091F48
:1015400008603220FFF777FB10BD0000140C01404B
:1015500070B504460D462B4622462946204600F02B
:1015600001F870BD2DE9F04104460D4616461F46B0
:101570001749887A00F066F9002000F04BF9144909
:10158000897B2144C8B200F045F9002000F042F9FF
:101590000F49897B3144C8B200F03CF90C49087B03
:1015A00000F050F9002000F035F90949C97B2944C1
:1015B000C8B200F02FF9002000F02CF90449C97BD3
:1015C0003944C8B200F026F900F054F9BDE8F081C2
:1015D000D42C00202DE9FF4F83B081468A469346E4
:1015E000DDE91064404800880290A6F12000C6B2F0
:1015F00004EBD47009EB6000401E82B20AEB0400D9
:10160000401E83B2514648460194FFF7ABFF129843
:1016100050BB002525E00C2C07D106EB46003349D2
:1016200001EB800010F8058004E0314800EB061063
:1016300010F8058000270DE008F0010018B15846A9
:1016400000F09EF902E0069800F09AF94FEA680867
:10165000781CC7B204EBD471B7EB610FECDB681CEC
:10166000C5B2A542D7DB2DE0002529E00C2C07D11F
:1016700006EB46001D4901EB800010F8058004E0F0
:101680001B4800EB061010F80580002711E01648F3
:10169000A0F800B008F0010038B10AEB050291B2E1
:1016A00009EB070290B2FFF7C1FD4FEA6808781C0A
:1016B000C7B204EBD471B7EB610FE8DB681CC5B2AD
:1016C000A542D3DB0849029808800A484088401E9A
:1016D00083B208480088401E82B200210846FFF706
:1016E00041FF07B0BDE8F08FE800002076600008F9
:1016F000EA640008D42C00202DE9FF4F83B0074690
:1017000091461E46109C4FF0000A002543E0701BD6
:10171000401EC1B20A2001F08DFCB9FBF0F00A2195
:10172000B0FBF1F201FB1208BAF1000F1BD1701EE1
:10173000A84218DDB8F1000F13D100202021A346E4
:10174000CDE90014029004EBDB71491001FB057137
:1017500088B213490B8813490A880499FFF73AFFA6
:1017600017E04FF0010A002108F13000C0B2A34693
:10177000CDE90141009004EBDB71491001FB0571DB
:1017800088B207490B8807490A880499FFF722FFA6
:1017900000BF681CC5B2B542B9DB07B0BDE8F08F29
:1017A000EA000020E80000202DE9FE4306460F462F
:1017B00015461C46DDF828801DE013480088401EB1
:1017C000B04204DB10484088401EB84201DABDE850
:1017D000FE8320788DE821010C4803880C4802889C
:1017E00039463046FFF7F6FE284605EBD07106EB8A
:1017F00061018EB2641C20787E2802DC20782028CB
:10180000DBDA00BFE3E70000D42C0020EA00002070
:10181000E800002010B504461020074908600002C7
:10182000064908602146064800F0C8FB102002491E
:10183000091F086010BD000014080140100C014091
:101840000030014010B5044610200749086000022E
:10185000064908602146064800F0B0FB1020024906
:10186000091F086010BD000014080140140C01405D
:101870000030014010B50249087AFFF7E3FF10BDC0
:10188000D42C002070B505460C462846FFF7DAFF39
:10189000E0B2FFF7BFFF70BD10B504462A20224911
:1018A00048812B2088812C20088134B1012C11D053
:1018B000022C1CD0032C34D126E080201A49088049
:1018C0004880022088730320C873C8213620FFF7A0
:1018D000D9FF27E0802014490880488003208873BE
:1018E0000220C873A8213620FFF7CCFF1AE0802021
:1018F0000D4908804880022088730120C8730821A0
:101900003620FFF7BFFF0DE08020074908804880A0
:10191000012088730220C87368213620FFF7B2FFC8
:1019200000E000BF00BF10BDD42C002008B501218D
:10193000102000F0EDFE4FF40050ADF80000102034
:101940008DF8030003208DF8020069460148FFF777
:101950007DFB08BD0010014010B54FF40051024856
:10196000FFF708FC10BD00000010014010B54FF457
:1019700000510248FFF700FC10BD000000100140BC
:1019800010B50446102009490860000208490860A3
:101990002112084800F012FBE1B2064800F00EFBED
:1019A00010200249091F086010BD00001408014002
:1019B000100C01400030014010B5002000F0B6F9D5
:1019C00010BD70B50446002604B90124002504E0CA
:1019D000FFF7F2FF0644681CC5B2A542F8DBB6FB70
:1019E000F4F080B270BD000010B501210148FFF78E
:1019F000B8FB10BD000C01402DE9F0410446204623
:101A000000F012F906460D49304600F0A9F90746E4
:101A10000B480168384603F0B9FF8046094A0A4975
:101A2000404600F061F905460021284604F002F91D
:101A300000D200252846BDE8F08100000000A0414A
:101A4000F80000207E8A5F3FFF0695BE10B501209A
:101A500000F06CF910BD70B50446002604B90124ED
:101A6000002504E0FFF7F2FF0644681CC5B2A5425A
:101A7000F8DBB6FBF4F080B270BD000010B50221B7
:101A80000148FFF76EFB10BD000C01402DE9F0414D
:101A90000446204600F0C8F806460D49304600F0DE
:101AA0005FF907460B480168384603F06FFF804630
:101AB000094A0A49404600F017F905460021284620
:101AC00004F0B8F800D200252846BDE8F0810000F7
:101AD00000002041FC0000209B201A3F9B209ABE62
:101AE00030B50246002300BF01F07F00C90909B1EB
:101AF00040F080001C465D1CABB210550029F3D1AC
:101B0000184630BD70B506460EB9002070BD4FF4C2
:101B100000711148FFF722F90546042D01DA002073
:101B2000F4E7002413E00C48005D20280DD10A4999
:101B3000601C085C022808D1A01C085C28B9E01CC5
:101B4000085C40B230700120E0E7601C84B2E01C09
:101B5000A842E8DB0020D9E7743200202DE9F047E5
:101B600007460D464FEA272807F0FF0933E04FF4F8
:101B700000711B48FFF7F2F80646052E1ADB002419
:101B800015E01748005D90280FD11549601C085CCE
:101B900003280AD1A01C085C404506D1E01C085C63
:101BA000484502D10120BDE8F087601C84B2201DA9
:101BB000B042E6DBFFF7EEF882460AA1FEF71CFC16
:101BC00008B10020EFE7142000F04CFA142D01D3E7
:101BD000143D00E00025002DC9D10020E3E70000FE
:101BE00074320020434C4F53454400002DE9F0412E
:101BF00005460C4617463846FEF710FC86B23112F1
:101C00002288501C2080A9542288501C2080AE5469
:101C10002188481932463946FEF71FFC2088304497
:101C20002080BDE8F081000070B50446204603F036
:101C3000EDFF0646034903F0A9FE0546024904F0FC
:101C40002DF870BD00F07F453333534000B587B0A9
:101C500001214FF4037000F05BFD0320ADF8180084
:101C600000208DF81B0006A91C48FFF7EFF90320A0
:101C7000ADF8180048208DF81B0006A91848FFF79A
:101C8000E5F91848FEF7AEFD002001908DF8080038
:101C90008DF809004FF4602003900020049001208B
:101CA0008DF8140001A90F48FEF7ECFD01210D4845
:101CB000FEF78CFD0B48FEF769FE00BF0948FEF7F2
:101CC000D6FD0128FAD00748FEF770FE00BF054890
:101CD000FEF7B6FD0128FAD007B000BD00080140AC
:101CE000000C0140002401402DE9F04706460F4654
:101CF00014460C49304603F09DFF00D8094E30468B
:101D000001F09CF880462146404604F0CFF8814619
:101D1000394603F03BFE05462946034801F096F993
:101D2000BDE8F08717B7D1380000204110B5044650
:101D30000723012221460948FEF7CCFD012107486F
:101D4000FEF729FE00BF02210448FEF787FD0028A8
:101D5000F9D00248FEF77EFD10BD000000240140CE
:101D60002DE9F04104460D460C49204603F062FF80
:101D700000D80A4C0A49204604F05CF800D8084C08
:101D80000849204604F087F80746294603F086FFF5
:101D90000646214603F0FAFDBDE8F0816F12833A52
:101DA000D12253403333534000BFFEE708B5002033
:101DB000009005E000BFBDF80000401C80B200901C
:101DC000BDF800007828F5DB08BD000008B501214A
:101DD000082000F09DFC14208DF80300C020ADF811
:101DE000000003208DF8020069460448FFF72EF931
:101DF000C0210248FFF7C0F908BD0000000C0140F7
:101E000010B580210348FFF7ACF90446FFF7CEFF79
:101E1000204610BD000C014010B5012000F06CF808
:101E2000012000F05DF8FFF7EBFF0446002000F012
:101E300057F8204610BD70B50025012000F05CF871
:101E400000240EE0012000F04BF8FFF7D9FF012835
:101E500002D1802020410543002000F041F8601CA1
:101E6000C4B2082CEEDB284670BD10B504462046EF
:101E700000F042F8012000F033F8002000F030F8C4
:101E800010BD70B5054600240DE08021214101EA16
:101E9000050000F031F8012000F022F8002000F0E9
:101EA0001FF8601CC4B2082CEFDB70BD10B5012018
:101EB00000F016F8012000F01FF8002000F01CF8D8
:101EC000002000F00DF810BD10B5002000F014F84F
:101ED000012000F005F8012000F00EF810BD000010
:101EE00010B50446224640210248FFF747F9FFF7A4
:101EF0005DFF10BD000C014010B504462246802154
:101F00000248FFF73BF9FFF751FF10BD000C0140FD
:101F100000B587B001210C2000F0FAFB0121080375
:101F200000F0F6FBA020ADF8180018208DF81B007B
:101F300003208DF81A0006A91948FFF787F810202A
:101F4000ADF818008DF81B0006A91548FFF77EF8BC
:101F50000020ADF804004FF48270ADF806000020B8
:101F6000ADF80800ADF80A00ADF80C004FF40070B1
:101F7000ADF80E001820ADF810000020ADF81200EA
:101F80000720ADF8140001A9064800F065FC012106
:101F9000044800F047FC012000F006F807B000BD3F
:101FA000000801400030014010B5044622461021CF
:101FB0000148FFF7E3F810BD0008014070B5044682
:101FC0000D4600BF0221204600F038FC0028F9D061
:101FD0002946204600F03EFC00BF0121204600F0CB
:101FE0002DFC0028F9D0204600F031FCC0B270BDB5
:101FF0007047000070B5002100230F22C47804B39D
:10200000154C246804F4E064C4F5E064210AC1F1CD
:102010000403CA40447804FA03F18478144021434D
:1020200009010E4C0678A155047804F01F0501241F
:10203000AC4005786D11AD0005F1E025C5F8004113
:1020400009E0047804F01F050124AC40044D067833
:10205000761145F8264070BD0CED00E000E400E08C
:1020600080E100E008B50AE00021009103E000BF34
:102070000099491C00910099B1F5FA5FF7D3011E50
:10208000A0F10100F0D108BD2DE9FC4705468A46C4
:1020900016461F46DDE90A4800206049087060497D
:1020A0000870FF205F49087015B10EB107B12CB957
:1020B00001205A4908700020BDE8FC8733465AA227
:1020C0004FF400716348CDE90074FEF7E1F84FF476
:1020D000FA6261A15F48FEF7C1FE002866D14FF4A5
:1020E000FA625DA15DA0FEF7B9FEA8B93B46324693
:1020F00051462846CDE9004800F010F920B90420E7
:10210000464908700020D7E70120454908700020A3
:10211000424908700120CFE7334659A24FF40071BD
:102120004C48FEF7B5F84FF4FA624BA14948FEF768
:1021300095FE20B90220394908700020BCE73B46D3
:1021400056A24FF400714348FEF7A2F84FF4FA622A
:1021500041A14048FEF782FE20B902202F490870B5
:102160000020A9E7234654A24FF400713948FEF736
:102170008FF840F6B83238A13648FEF76FFEA8B99E
:102180003B46324651462846CDE9004800F0C6F8A5
:1021900020B904202149087000208DE70120204942
:1021A000087000201D490870012085E7434649A2B8
:1021B0004FF400712748FEF76BF840F6B83226A1BD
:1021C0002448FEF74BFE20B9032014490870002074
:1021D00072E72B4647A24FF400711E48CDF800A0CD
:1021E000FEF756F844F620621BA11A48FEF736FEA9
:1021F00078B9FEF7CFFD8146B9F1000F04D043A1B5
:102200004846FEF7F9F820B9042004490870002078
:1022100052E700200149087001204DE7020100202B
:10222000030100200401002041542B4D515454550A
:102230005345524346473D302C312C222573222CE6
:10224000222573222C222573222C302C302C222282
:1022500000000000743400204F4B000041542B4D0F
:10226000515454555345524346473D302C312C224E
:10227000222C22222C22222C302C302C2222000034
:1022800041542B4D5154544C4F4E47434C49454EAD
:102290005449443D302C22257322000041542B4DDB
:1022A0005154544C4F4E47555345524E414D453D68
:1022B000302C22257322000041542B4D5154544C94
:1022C0004F4E4750415353574F52443D302C2225D7
:1022D0007322000041542B4D515454434F4E4E43F2
:1022E00046473D302C25752C302C22222C22222CC6
:1022F000302C300041542B4D515454434F4E4E3DE1
:10230000302C222573222C25752C31002B4D515455
:1023100054434F4E4E454354454400002DE9FF4F72
:1023200087B017461C46DDE9148900200590384621
:10233000FEF774F81FFA80FB2046FEF76FF880B2B4
:1023400004904046FEF76AF880B20390FF200290A6
:10235000DDE90701FEF714FE18B900200BB0BDE857
:10236000F08F0BF10E0004990844801C0399084477
:102370001FFA80FA1021BDF81420501C80B205907D
:102380003A488154514606A8FFF7AAFB054637494B
:10239000BDF8142088182A4606A9FEF75EF8BDF895
:1023A0001400284480B2059031A205A92F48FFF7F8
:1023B0001DFC0421BDF81420501C80B205902B4850
:1023C0008154C221BDF81420501C80B205902748CA
:1023D00081544FEA2921BDF81420501C80B2059089
:1023E00022488154BDF81420501C80B205901F482B
:1023F00000F802903A4605A9FFF7F8FB224605A926
:102400001A48FFF7F3FB424605A91848FFF7EEFB11
:10241000FEF74EFCBDF814101448FEF743FD08B952
:1024200000209BE700261CE002A8FFF76BFB50B1E1
:102430009DF90800104908709DF8080008B90120AE
:102440008CE700208AE7FEF7A5FC0CA10190FDF7C0
:10245000D3FF08B1002081E76420FFF703FE701C62
:10246000C6B2502EE0DB002078E700007430002078
:102470004D5154540000000004010020434C4F53C0
:1024800045440000014890F9000070470401002015
:102490000148007870470000020100202DE9F04F4C
:1024A00085B006460F4690469946002406B11FB9EE
:1024B000002005B0BDE8F08FB8F1020F01DD4FF04C
:1024C0000008B9F1010F01DD4FF000093348007831
:1024D00000284FD03046FDF7A1FF85B23846FDF702
:1024E0009DFF1FFA80FAA81C504480B2039008F0A8
:1024F0000300302141EA4000B9F1000F01D0012171
:1025000000E0002108432146621C94B2244A505442
:1025100004A80399FFF7E4FA8346214908195A46AB
:1025200004A9FDF79AFF04EB0B0084B22A1220469F
:10253000611C8CB21A490A542046611C8CB218499D
:102540000D5408192A463146FDF787FF601984B2F9
:102550001349081952463946FDF77FFF04EB0A007C
:1025600084B221460E48FEF79DFC08B90020A0E782
:1025700001209EE733460BA24FF4007111488DE80D
:102580008003FDF785FE41F288320FA10D48FEF76A
:1025900065FC08B900208CE701208AE703010020D0
:1025A0007430002041542B4D5154545055423D300D
:1025B0002C222573222C222573222C25752C25757F
:1025C00000000000743400204F4B00002DE9FC4750
:1025D00006460F46002416B90020BDE8FC87022FEE
:1025E00000DD002737480078002858D03046FDF736
:1025F00015FF85B2681D1FFA80FA3348B0F80080D5
:102600000088401C3049088082222046611C8CB220
:102610002E490A54514601A8FFF762FA81462B4918
:1026200008194A4601A9FDF718FF04EB090084B216
:102630004FEA28222046611C8CB224490A542046C5
:10264000611C8CB2214901F800802A122146601CCD
:1026500084B21E4842542046611C8CB21B490D5462
:1026600008192A463146FDF7F8FE601984B2204663
:10267000611C8CB215490F54FEF71AFB2146134812
:10268000FEF710FC08B90020A7E740F6B831404635
:10269000FFF764FA08B900209FE701209DE7334661
:1026A0000BA24FF4007110480097FDF7F1FD41F2C5
:1026B00088320EA10C48FEF7D1FB08B900208CE748
:1026C00001208AE703010020060100207430002069
:1026D00041542B4D5154545355423D302C222573B7
:1026E000222C257500000000743400204F4B0000A0
:1026F00029B1064AD2690243044BDA6104E0034A75
:10270000D2698243014BDA61704700000010024039
:1027100029B1064A92690243044B9A6104E0034AD4
:1027200092698243014B9A61704700000010024099
:1027300029B1064AD2680243044BDA6004E0034A36
:10274000D2688243014BDA607047000000100240FB
:1027500030B500210022002400232D4D6D6805F0C6
:102760000C0121B1042905D0082923D105E0294D08
:10277000056022E0274D05601FE0254D6D6805F4DA
:102780007012234D6D6805F48034022505EB9242EA
:102790001CB9214D554305600BE01D4D6D6805F4D6
:1027A00000351DB11C4D5543056002E0194D5543E0
:1027B000056002E0174D056000BF00BF144D6D6855
:1027C00005F0F0010909154D6B5C0568DD404560B9
:1027D0000F4D6D6805F4E061090A104D6B5C4568AA
:1027E000DD4085600A4D6D6805F46051C90A0B4DE6
:1027F0006B5C4568DD40C560054D6D6805F4404182
:10280000890B074D6B5CC568B5FBF3F5056130BD01
:102810000010024000127A0000093D000000002074
:102820001000002021B1028842F04002028004E042
:1028300002884FF6BF731A4002807047024600209C
:1028400013890B400BB1012000E0002070470146C6
:10285000888970478181704710B50022028802F490
:1028600041520B884C8823438C882343CC882343D4
:102870000C8923434C8923438C892343CC892343EC
:102880001A430280838B4FF2FF74234083830B8AA9
:10289000038210BD10B500F001F810BD0CB500208A
:1028A000019000903348006840F48030314908605E
:1028B00000BF3048006800F4003000900198401CD0
:1028C0000190009818B90198B0F5A06FF1D129488E
:1028D000006800F4003010B10120009001E00020F9
:1028E00000900098012843D12348006840F0100070
:1028F000214908600846006820F003000860084687
:10290000006840F0020008601A48406819494860B1
:102910000846406848600846406840F48060486067
:102920000846406820F47C1048600846406840F43F
:10293000E81048600846006840F08070086000BFFA
:102940000C48006800F000700028F9D00948406881
:1029500020F00300074948600846406840F0020044
:10296000486000BF0348406800F00C000828F9D117
:102970000CBD0000001002400020024010B502F023
:102980009BFB10BD10B51348006840F001001149D1
:10299000086008464068104908400E4948600846EB
:1029A00000680E4908400B4908600846006820F49A
:1029B000802008600846406820F4FE0048604FF41C
:1029C0001F008860FFF766FF4FF000600449086051
:1029D00010BD0000001002400000FFF8FFFFF6FEEF
:1029E00008ED00E010B586B00446012144F2040071
:1029F000FFF78EFE4FF40070ADF8140018208DF82C
:102A0000170003208DF8160005A91D48FEF71EFBD0
:102A10004FF48060ADF8140004208DF8170005A96C
:102A20001748FEF713FB01940020ADF80800ADF83D
:102A30000A00ADF80C00ADF810000C20ADF80E0047
:102A400001A9104800F004F9012240F225510D4877
:102A500000F0D8F825208DF8000007208DF801003F
:102A600000208DF8020001208DF803006846FFF772
:102A7000C1FA0121034800F082F806B010BD000041
:102A80000008014000380140411C88B2802800DB6A
:102A90000020704710B504462146054800F049F96A
:102AA00000BF8021024800F076F80028F9D010BD60
:102AB0000038014070B540F225510E4800F078F81A
:102AC000B8B10C4800F030F9C5B20B480088FFF7E8
:102AD000DBFF044609480088844205D008480649BF
:102AE000098845540448048040F22551014800F00B
:102AF00037F870BD00380140680000206A000020EF
:102B00000801002010B540F22551124800F050F89D
:102B1000F8B1104800F008F9C4B20F480088B0F5C9
:102B2000FF7F0ADC0C490888411C0B4A11800B49C5
:102B30000C5400201288885406E0002006490880C2
:102B40000649054A1288885440F22551014800F090
:102B500007F810BD0044004000010020E42C0020D4
:102B600010B50022002340F66A14A14200D100BF34
:102B70000A1201249440A3B2DC43048010BD21B1A9
:102B8000828942F40052828104E082894DF6FF730B
:102B90001A408281704702460020B1F5007F00D1C3
:102BA00000BF13880B400BB1012000E000207047EC
:102BB00070B50246002400230025002040F66A1666
:102BC000B14200D100BFC1F3421501F01F0301263D
:102BD00006FA03F3012D02D19689334006E0022D57
:102BE00002D1168A334001E0968A33400C12012646
:102BF00006FA04F41688344013B10CB1012000E049
:102C0000002070BDF0B503460024002600250020FA
:102C100040F66A17B94200D100BF1846C1F342140A
:102C200001F01F06012707FA06F5012C01D10C302F
:102C300004E0022C01D1103000E014301AB1076812
:102C40002F43076002E00768AF430760F0BD000054
:102C50002DE9F04786B005460E460024A24600BF87
:102C6000A1460027B08900B100BF2F462C8A4CF640
:102C7000FF700440F08804432C82AC894EF6F310B8
:102C80000440B08831890843718908430443AC810A
:102C9000AC8A4FF6FF400440B0890443AC8201A8DF
:102CA000FFF756FD1F48874202D1DDF810A001E072
:102CB000DDF80CA0A88900F4004040B10AEBCA007E
:102CC00000EB0A1031684900B0FBF1F807E00AEBAD
:102CD000CA0000EB0A1031688900B0FBF1F86420EB
:102CE000B8FBF0F004012009642101FB1089A889D8
:102CF00000F4004040B1322000EBC900B0FBF1F01D
:102D000000F00700044308E0322000EB09106421C2
:102D1000B0FBF1F000F00F0004432C8106B0BDE8D9
:102D2000F08700000038014001468888C0F30800A1
:102D30007047C1F308028280704700BFFEE7410080
:102D4000080218BF04200A0E18BF40F001004FF01F
:102D50007F4232EA010108BF40F00200012808BFAB
:102D60000520704700214FF07E5002F00FBE012178
:102D700003F043B902F096BD0021084602F006BEFA
:102D800061214FF0E04003F038B96FF05E010807B1
:102D900003F033B970472DE9F0478046894616465F
:102DA0003046FDF73BFB85B2B8F1000F03D016B1FA
:102DB0000DB1A94502DA0020BDE8F087002713E035
:102DC000002408E0381918F80000315D884200D06E
:102DD00003E0601C84B2AC42F4DB00BFAC4201D122
:102DE0000120E9E7781C87B2A9EB050080B2B84260
:102DF000E6DA0020E0E770B504460D46E0B2FFF7E2
:102E000049FE204670BD00001CB5FEF76DFA06486D
:102E1000062100238022CDE9001004A1064802F01B
:102E20009BFA02F0BBF81CBD1400002073746172A1
:102E3000745F7461736B0000094200082DE9F04172
:102E40000026A0F50001B1F1FE4F7DD200F5002271
:102E50006FF07E0101EBE251C2F3025477184FF09C
:102E60007E52A0EBC15602EB045557EA040047D04E
:102E70002946304602F016FD80462946304603F0CA
:102E800015F8414602F082FD0546014602F006FFB4
:102E900080464A4902F002FF494902F003FD064616
:102EA0004146284602F0FAFE314602F0F7FE064699
:102EB000384602F093FE0746424902F0EFFE4249CF
:102EC000794451F8241002F0EDFC314602F0EAFC9E
:102ED00006463E49284602F0E1FE314602F0E2FC99
:102EE000054638463A4902F0D9FE3A49794451F844
:102EF000241002F0D7FC2946BDE8F04102F0D2BC14
:102F00004FF07E51304602F0D1FF0546324902F0C3
:102F1000C5FE324902F0C6FC294602F0BFFE304928
:102F200002F0C0FC294602F0B9FE2E4902F0BAFCBC
:102F300004462946084602F0B1FE214602F0AEFEE4
:102F400004462949284600E00EE002F0A7FE21468B
:102F500002F0A8FC04462549284602F09FFE2146BF
:102F6000BDE8F04102F09EBC4FF07F42B2EB400F53
:102F700003D2BDE8F041FFF7FABEB0F1FF4F08BF42
:102F8000BDE8F081B0F1004F06D90120FDF704FB48
:102F9000BDE8F041FFF7F0BE30F0004105D06FF022
:102FA0001606172103F029F850E70220FDF7F4FA7E
:102FB000FFF7D8FE80F00040BDE8F081DE02323E2F
:102FC0003B3D943EFC849A3680480000D95B5E3FCE
:102FD00000209A3E34480000924FA93D7279DEBD30
:102FE0002D3E143ED85B5EBE157B4B3C0000D83EA8
:102FF000FEF79CFCFEF778F9FDF7DDFC4FF4E130BD
:10300000FFF7F0FC03A0FDF737F901E0FFF7FCFE46
:10301000FCE7000053797374656D207374617274FA
:103020002C20554152543120403131353230300D51
:103030000A00000010B50246012000E050430B1EBC
:10304000A1F10104E1B2F9D110BD00002DE9F04D6C
:103050000E460023A0F5000C4FF00071354684B0F9
:1030600002464FF07E5401EB45014FF07F48BCF122
:10307000FE4F80F09F81B1F1804FC0F0DB81FE49AF
:103080000144B1F5005F40F2A78200F58021C90C30
:1030900001F00F07C1F307117F39A2EBC15501EB16
:1030A000030B384602F09AFD6FF0030102F0A5FF12
:1030B0004FF07E5102F0F6FB01460290284602F0E6
:1030C000F5FE01902846029902F0ECFB00F5006A3B
:1030D0006FF30B0A00905146029802F0E7FE294672
:1030E00002F0E0FB02904FF07E50009902F04EFC9F
:1030F00001460090019802F0D1FD00F500656FF3E4
:103100000B052846029902F0C9FD02905146284657
:1031100002F0C4FD019902F0BEFE029902F0C6FE63
:10312000009902F0BBFD01460190284602F0BAFB6F
:103130000146029002F0B2FD8246D04902F0AEFD97
:10314000CF4902F0AFFB514602F0A8FD82460021B4
:10315000284602F052FF00905146029802F09EFD70
:1031600005460021019802F048FF294602F09AFB2B
:1031700082460146009802F095FB00F500656FF36A
:103180000B052946009802F091FE514602F08AFB99
:103190008246BC49284602F081FD0090BA4950465B
:1031A00002F07CFD8246B949284602F077FD51467F
:1031B00002F078FB82460146009802F073FB00F5AE
:1031C00000656FF30B052946009802F06FFE51462B
:1031D00002F068FB8246AE48784450F8371000EBA6
:1031E000C700019147684FEA0B1002F0F7FC00900E
:1031F0003946504602F056FB294602F053FB01992E
:1032000002F050FB009902F04DFB00F5006B6FF3EC
:103210000B0B5846009902F049FE019902F046FE58
:10322000294602F043FE394602F040FE514602F0C4
:1032300032FE06F5006782466FF30B0739463046CB
:1032400002F034FE0021009008464FF0000000F02C
:103250000C063946584602F021FD054620F0004094
:10326000B0F18B4F0ADDB8EB400F07D34FF08B4026
:1032700060F31E052F464FF0000A1FE03846009904
:1032800002F010FB514602F009FD0746584600992E
:1032900002F004FD394602F005FB8246014628464D
:1032A00002F000FB00F500676FF30B073946284674
:1032B00002F0FCFD514602F0F5FA824631460C2040
:1032C0004FF000005146384602F0ECFA02F03CFCA8
:1032D0000646051102F082FC394602F0DCFD51463B
:1032E00002F0E0FA07466B4902F0D8FC6A4902F0A6
:1032F000D9FA394602F0D2FC684902F0D3FA3946CD
:1033000002F0CCFC0146664806F00F06784450F8FF
:10331000260002F0C3FC6349794451F8261002F0FC
:10332000C1FA6149794451F8261002F0BBFA05F15F
:103330007D01FC2908D2294602F05FFE04B0214637
:10334000BDE8F04D02F0AABC05F1BF01B1F5BF7FA9
:1033500016D8294602F051FE214602F09FFC054690
:10336000B8EB450F1AD068000CD02846FFF7E7FCF1
:10337000042808BFFFF709FD284604B0BDE8F08D1A
:10338000002D0BDA0220FDF707F9FFF7FEFC0146DE
:10339000204604B061F31E00BDE8F08D0220FDF769
:1033A000FBF8FFF7EDFC0146204604B061F31E0078
:1033B000BDE8F08DB1F1804F3CD300BF00F1FF417B
:1033C000B1F1FE4F21D200BF20F00042C5F3C7513A
:1033D00010467F290DDB9729BFF651AEC1F196014A
:1033E0004FF0010C0CFA01F1A1F1010C1CEA050FE0
:1033F00007D00120FDF7D0F804B0BDE8F04DFFF78D
:10340000BBBC294218BF294C39E641001CBF4FF014
:103410008071B1EB400F09D91B2102F0EEFD02468D
:103420006FF01A0310F0004FCED128E6BCF1FE4F2A
:1034300018D224E6B1F1007F0ED336F0004105D05A
:1034400006F0004141F0FC552E46B7E7410018BF99
:10345000B8EB400F78D8B1E7B1F1807F38BFA5F560
:103460000006ABD320F000416FF0FF4C104C01EB95
:103470000C03A3422FD31DE0001080C07EE24C3E1F
:10348000ABAAAA3E00B038423BAA3842D49AB8BB95
:1034900088450000FC596337C9FF753A1872313D01
:1034A0005445000008450000BC440000000080BFF7
:1034B000FFFF3F0025F000439C44A4450BD3B0F12F
:1034C0007E5F18BF5FEA450C3ED0B1F1FF4F98BF59
:1034D000B3F1FF4F05D904B03146BDE8F04DFFF719
:1034E00049BCB0F1FF4F0FD0C5F3C7517F2909DBAD
:1034F000972911DAC1F19601012202FA01F14A1E5F
:103500002A4205D0002108E015F0004F55D128E0EF
:10351000294218BF012100D1022110F5000F14D05B
:1035200020B3B0F1004F27D010F1814F4ED04FF0B3
:10353000FE41B1EB400F94BF01200020012101EBBF
:10354000E571884239D10CE040E015F0004F02D01F
:10355000012936D031E0012902BF3F4804B0BDE85F
:10356000F08D4FF0FF4004B0BDE8F08D15F0004045
:103570000ED104B0BDE8F08DB5F1FF4F1DD015F5AB
:10358000000F05D015F0004F14D009B1012907D064
:103590000220FDF701F804B0BDE8F04DFFF7E2BBF3
:1035A0000220FCF7F9FFFFF7DDFB04B080F00040DC
:1035B000BDE8F08D09B1012903D004B00020BDE8B9
:1035C000F08D04B04FF00040BDE8F08D04B04FF036
:1035D0007E50BDE8F08D00BF4FF07E5102F066FCDA
:1035E00005466FF0010102F008FD1C4902F053FC92
:1035F000294602F053FB4FF07C5102F04CFC074689
:103600002946084602F04AFB80F00040394602F0A5
:1036100045FB82461249284602F040FB0746114905
:10362000504602F03BFB82460F49284602F036FB2B
:10363000514602F037F905460146384602F032F9A4
:1036400000F5006B6FF30B0B5946384602F02EFC69
:10365000294602F027F9ECE5000080FFABAAAA3E5C
:1036600000B0B8413BAAB841D49A38BB30B5ADF5EB
:10367000017D00254FF4007101A8FDF76FFB0446A2
:1036800014B90DF5017D30BD1AA2214601A8FFF73E
:1036900082FB28B91AA2214601A8FFF77CFB30B1B2
:1036A00001201A4908701A490870012512E019A270
:1036B000214601A8FFF76FFB28B919A2214601A8EE
:1036C000FFF769FB30B10120104908700020104954
:1036D000087001255DB10E48007808B114A000E023
:1036E00014A0014614A0FCF7C7FDFDF7E1FA00BFE6
:1036F000C7E70000224C4544223A74727565000009
:10370000224C4544223A2074727565004E00002018
:103710004F000020224C4544223A66616C736500DC
:10372000224C4544223A2066616C7365000000001B
:103730004F4E00004F464600436C6F7564204C4569
:103740004420636D64202D3E2025730D0A00000087
:103750002DE9F04105460E46294807680020294911
:10376000096881F8590027480068001D01F052FAE5
:1037700050B92448006890F82C1001208840224954
:103780000968814320480160681CD8B9D6B11F4937
:1037900048681C49096888601A4982680968CA60D3
:1037A00018490968091D8268516016490968091D90
:1037B0008160164A134909684A6111460968491C23
:1037C00011601AE07C190F4800684460BC4207D2BF
:1037D0000C480168091D0E48006801F03FFA0CE032
:1037E00008480168091D0B48006801F037FA0A48CB
:1037F0000068844201D208480460BDE8F0810000FE
:103800008400002070000020880000209804002020
:103810007800002074000020A000002010B50446AD
:1038200001F042FA31480068401C304908603048D5
:10383000006840B92E4804600846006801280DD190
:1038400000F0E2F90AE02B48006838B9284800681F
:10385000C06AE16A884201D82548046026480068A9
:10386000401C2549086008460068606494F82C10E4
:103870000120884021490968084320490860E16A1D
:1038800001EB81011E4A02EB81014868A060826859
:10389000E260211D826851608160E16A01EB810173
:1038A000174A02EB81026261E16A01EB8101144A6D
:1038B00052F82110491CE26A02EB8202104B43F8D5
:1038C000221001F003FA0B48006868B1084800684C
:1038D000C06AE16A884207D24FF080500949086007
:1038E000BFF34F8FBFF36F8F10BD0000800000202B
:1038F000700000208C0000209C0000208800002028
:10390000C801002004ED00E010B501F0CDF9104829
:103910000068D0B90F4801F091F90F4801F08EF915
:103920000C480E4908600C480D490860002210211F
:10393000052001F0DBFB064908600846006820B15D
:1039400008A10348006801F013FA01F0BFF910BDA7
:10395000B8000020AC040020C0040020B00000200B
:10396000B4000020546D72510000000010B516E044
:1039700001F09AF90C48C068C468201D01F04AF9AA
:103980000A480068401E0949086009480068401E4E
:103990000749086001F09AF9204600F05FF80448F2
:1039A00000680028E4D110BD8404002080000020BD
:1039B0007C00002070B504460D46206C70B1216C6F
:1039C000E0680144E160D4E90210884201D3216833
:1039D000E1602846226CE168FCF73FFD70BD2DE9EF
:1039E000F04104460F4615464FF00008A66B206CC8
:1039F00048B9206800282CD1A06801F0ABFD8046B2
:103A00000020A06025E07DB93946226C6068FCF793
:103A100024FD216C606808446060D4E9010188429B
:103A200017D32068606014E03946226CE068FCF728
:103A300014FD216CE068411AE1602168E068884269
:103A400003D2216CA068411AE160022D01D106B1B8
:103A5000761E701CA0634046BDE8F08110B5044698
:103A6000206B01F043F9204601F040F910BD000041
:103A70000146084A126812680AB9012200E00022D1
:103A80000A600A6822B9034A1268D268106800E026
:103A900000207047B000002030B54FF42053174885
:103AA00000F007042CB1C01D20F00700134C041BCC
:103AB0001B1B0246124C22600024114D6C60D01872
:103AC000083820F007000F4C206000240D4D2D68B1
:103AD0006C600C4D2D682C601146441A4C60094CEA
:103AE00024680C60084D4C682C60084D4C682C60B4
:103AF0004FF00044064D2C6030BD0000D40400207F
:103B0000C4000020CC000020D4000020D000002001
:103B1000E000002000BFFFF729FF064800680128E9
:103B2000F9D94FF0805004490860BFF34F8FBFF3BD
:103B30006F8FF0E7C801002004ED00E02DE9F041AF
:103B400006460D4617469846069C0DB9246000E0CF
:103B50002760E66325640121204601F0EDFA84F830
:103B600050800020A064BDE8F0812DE9F05F81461F
:103B70000E4690469A460A9F0C9C4FEA8801A52261
:103B8000206BFCF7AFFCA8F10100216B01EB800B6F
:103B90002BF0070B86B1002507E0715D04F13400BE
:103BA0004155705D00B902E06D1C102DF5D300BFCA
:103BB00000214320015502E0002084F83400202F2A
:103BC00000D31F27E762E76400202065201D01F075
:103BD00042F804F1180001F03EF82461C7F120001A
:103BE000A06164620020606584F8580084F8590080
:103BF00052464946584600F0F5FA20600B9808B145
:103C00000B980460BDE8F09F10B5002407E004EBBA
:103C100084010F4A02EB810001F010F8641C202C93
:103C2000F5D30C4801F00AF80B4801F007F80B48EF
:103C300001F004F80A4801F001F80A4800F0FEFF1C
:103C400004480949086004480849086010BD00009C
:103C5000C8010020480400205C04002070040020FB
:103C600084040020980400207400002078000020C4
:103C700010B50146164800E0006803688B42FBD38C
:103C80000246436813448B4204D143684C68234482
:103C9000436001460A464B6813440468A34211D1AD
:103CA0000C4C03682468A34208D04B68046864681D
:103CB00023444B6003681B680B6005E0054B1B68E1
:103CC0000B6001E003680B60884200D0016010BD0A
:103CD000C4000020CC0000202DE9F04104460D4630
:103CE00016461F464FF0000865602461B5420CD8A7
:103CF000F01BA169884202D34FF0010811E0211D99
:103D00000948006800F0AAFF0BE0BE4204D2BD42A1
:103D100002D34FF0010804E0211D0448006800F0C0
:103D20009DFF4046BDE8F081B4000020B0000020B7
:103D300070B5054600F0B8FFA86B08B9012400E093
:103D4000002400F0C3FF204670BDF1B50098846CDC
:103D50000026A06BE16B88421BD294F945500022EB
:103D600069462046FFF73BFE0646681C60B9606A5C
:103D700008B9012000E0002050B904F1240001F04E
:103D80003FFC28B1012603E0681C40B284F84500DE
:103D900000BF3046F8BD000070B505460E460E481F
:103DA0000068C068C468201D00F034FF94F8280043
:103DB00000F0040028B132462946204600F0D0F831
:103DC00005E094F8280000F0FE0084F82800204662
:103DD000216A884770BD0000B000002070B586B031
:103DE00077E00298002805DA03AED6E90020B16832
:103DF000904700BF029800286BDB049C606908B9FB
:103E0000012000E0002010B9201D00F003FF01A8F0
:103E100000F0D2F8054602980A2858D2DFE800F0F0
:103E20005705072E364706082F3700BF00BF00BFD3
:103E300094F8280040F0010084F828000398A26953
:103E4000811803462A462046FFF746FFA8B194F89A
:103E5000280000F0040038B10398A26981182A46AE
:103E6000204600F07DF805E094F8280000F0FE0000
:103E700084F828002046216A884729E000BF94F88A
:103E8000280000F0FE0084F8280021E000BF94F82C
:103E9000280040F0010084F828000398A061A06980
:103EA00041192B462A462046FFF716FF10E094F8EA
:103EB000280000F0020018B9204600F017FF05E0C6
:103EC00094F8280000F0FE0084F8280000E000BF0D
:103ED00000BF002202A90448006801F07DF9002813
:103EE0007FF47FAF06B070BDB8000020F8B505467E
:103EF0000C4601F08FF8684600F05EF80646009820
:103F000020BB44B9B54206D801F0FEFB3146284635
:103F1000FFF742FF1CE03CB10E480068006808B99A
:103F2000012000E000200446A91B22460A48006840
:103F300000F042FF01F0E8FB50B94FF08050074914
:103F40000860BFF34F8FBFF36F8F01E001F0DCFB20
:103F5000F8BD0000B4000020B800002004ED00E02F
:103F600070B504460D46164604E0A0690544204697
:103F7000216A8847A06941192B4632462046FFF73F
:103F8000ABFE0028F1D170BD09480068006808B98F
:103F9000012000E0002020B14FF0FF30054908600B
:103FA00005E003480068C06800680249086070477F
:103FB00074000020A000002070B5044601F0FCF958
:103FC000054607480068854204D200F00BF801203E
:103FD000206001E00020206001480560284670BD97
:103FE000C000002070B508E00D480068C068046893
:103FF0004FF0FF312046FFF7CFFE09480068006808
:1040000008B9012000E000200028EDD00448056830
:1040100004480068024908600248056070BD00005D
:10402000B0000020B400002000BF502080F31188B1
:10403000BFF34F8FBFF36F8F00BF00BFFEE708B520
:1040400000BF6846FFF714FD044620460099FFF7BD
:104050004DFFFFF7C3FEF4E770B5044600F024FE01
:1040600094F9455019E0A06C30B12046FFF76DFE81
:1040700088B100F057FF0EE0606A08B9012000E047
:10408000002038B904F1240001F0BAFA18B100F0A8
:1040900049FF00E003E0681E45B2002DE3DC00BFED
:1040A000FF2084F8450000F011FE00F0FDFD94F9BA
:1040B000445010E0206908B9012000E0002048B910
:1040C00004F1100001F09CFA08B100F02BFF681E0B
:1040D00045B200E001E0002DECDC00BFFF2084F8D9
:1040E000440000F0F3FD70BD2DE9F04104464FF0AF
:1040F000000800F08FFF3548006808B9FFF7CCFCD6
:1041000033480068204000285BD1B4B104F10800B6
:10411000A04212D9083404F0070078B104F0070077
:10412000C0F108002044A04205D904F00700C0F106
:104130000800044402E0002400E00024002C40D0E9
:104140002448006884423CD8234E3046056801E08C
:104150002E462D686868A04202D228680028F7D150
:104160001A48006885422CD0306800F10808286899
:1041700030606868001B102807D92F196868001B79
:1041800078606C603846FFF773FD1249686809680B
:10419000081A1049086008460068104909688842F2
:1041A00003D20C4800680D4908600949686809682D
:1041B000084368600020286009480068401C0849DE
:1041C000086001F0A1FA4046BDE8F081CC00002073
:1041D000E0000020D0000020C4000020D400002017
:1041E000D8000020001F4FF080730360001F21F0F3
:1041F00001030360001F034B036014380260203882
:1042000070470000294000081CB5044600F04CFD32
:104210001C48022100238022CDE900101AA11C486D
:1042200001F09AF81B48032100238022CDE90010F9
:1042300019A11B4801F090F81A480421002380229C
:10424000CDE9001018A11A4801F086F81948052197
:1042500000238022CDE9001017A1194801F07CF855
:104260001848012100238A02CDE9001016A1184840
:1042700001F072F800F02AFD1648006800F0DCFD3D
:104280001CBD0000180000207461736B3100000039
:10429000D94200081C0000207461736B32000000DA
:1042A000E5420008200000207461736B33000000B9
:1042B000D9460008240000207461736B34000000AC
:1042C0003D470008280000207461736B3500000032
:1042D000A54700081400002002E0642000F092FDD1
:1042E000FBE7000008B5FCF766FBFCF756FC4FF651
:1042F000FF70FCF76BFF0020C94908808FE1FCF7D5
:1043000097FB04464CB1C74920680860C6496068FD
:1043100008600120C549087002E00020C349087008
:10432000FCF762FCC24908600021C148006801F046
:1043300081FD03D80120BF49087002E00020BD497B
:104340000870BD48006801F029FC8246BB4800683F
:1043500001F024FC83464FF6FF707F231A460021AC
:1043600000900846FCF770FFB048007800287AD02B
:10437000B349AC48006801F091FC814601F0C8FBEC
:104380000746AF49A848006801F088FC814601F063
:10439000BFFB05462E46002E00DA76420120A9A377
:1043A0000C22042100900220FDF7FEF9002D08DA0E
:1043B0000120A6A30C22042100902620FDF7F4F989
:1043C00007E00120A2A30C22042100902620FDF783
:1043D000EBF90A2096FBF0F90C2002234A4604214F
:1043E00000902C20FDF788F901209AA30C220421CB
:1043F00000903820FDF7D8F90A2096FBF0F100FB79
:1044000011690C2001234A46042100903E20FDF74B
:1044100073F9012090A30C22142100900220FDF7D3
:10442000C3F90A2097FBF0F90C2002234A46142115
:1044300000902620FDF760F9012086A30C221421AC
:1044400000903220FDF7B0F90A2097FBF0F100FB55
:1044500011790C2001234A46142100903820FDF7E1
:104460004BF910E0FFE701207DA30C22042100900E
:104470000220FDF799F901207BA30C221421009062
:104480000220FDF791F96B48007888B36C496848C1
:10449000006801F003FC814601F03AFB80460120F0
:1044A00073A30C22242100900220FDF77DF90A203D
:1044B00098FBF0F90C2005234A46242100901E2089
:1044C000FDF71AF9012063A30C22242100903C205F
:1044D000FDF76AF90A2098FBF0F100FB11890C2026
:1044E00001234A46242100904220FDF705F908E007
:1044F000FFE7012060A30C22242100900220FDF799
:1045000053F901205EA30C22342100900220FDF714
:104510004BF90C2005235246342100901E20FDF754
:10452000EBF8012058A30C22342100904220FDF723
:104530003BF9012055A30C22442100900220FDF7F5
:1045400033F90C2005235A46442100901E20FDF724
:10455000D3F801204CA30C22442100904220FDF707
:1045600023F901204BA30C22542100900220FDF7D7
:104570001BF90C20012300904848027854212C207C
:10458000FDF7BAF8012046A30C22542100903C20EC
:10459000FDF70AF90C2001230090434802785421CA
:1045A0006620FDF7A9F8012040A30C2264210090A9
:1045B0000220FDF7F9F83F48007840B101203EA302
:1045C0000C22642100902620FDF7EEF807E0012080
:1045D0003AA30C22642100902620FDF7E5F8012083
:1045E00037A30C22642100904620FDF7DDF8364801
:1045F000007840B1012035A30C22642100900846C8
:10460000FDF7D2F807E0012031A30C2264210090CD
:104610000846FDF7C9F84FF4FA7000F0F3FB6EE6B8
:10462000E80000202C000020300000203400002092
:10463000380000203C0000204400002048000020FA
:104640000000204174656D703A0000002D000000EC
:10465000200000002E00000068756D693A0000001F
:1046600074656D703A3F000068756D693A3F0000EF
:104670006C75783A000000006C75783A3F000000D5
:104680006D71343A0000000070706D006D71373A42
:10469000000000006D7134646F3A00004200002099
:1046A0006D7137646F3A00004300002068756D61DA
:1046B0006E3A00004C000020796573006E6F0000B8
:1046C000776966693A000000500000204F4B0000F7
:1046D0004641494C00000000FDF7B8FA21E00820EF
:1046E000FDF76FF90F4908800820FDF7B4F90E496E
:1046F0000880FDF779F90D490870FDF7BFF90C49FD
:10470000087008480088FDF777F90A4908600648EC
:104710000088FDF7BBF9084908604FF4967000F077
:1047200071FBDCE73E00002040000020420000203A
:10473000430000204400002048000020FCF724FD36
:1047400027E0FCF737FD134908701348007870B173
:104750001248007828B1FDF709F9012010490870C6
:1047600013E0FDF7F9F800200D4908700DE0094845
:10477000007828B1FDF7FAF801200949087004E033
:10478000FDF7EAF80020064908704FF47A7000F04F
:1047900039FBD6E74C0000204E0000204F000020DF
:1047A0004D000020D0B000200F904FF4E130FCF716
:1047B00001FB1AE18DA0007810B18DA0007868B9D6
:1047C00000208E4908708E4908700F908DA0FBF76D
:1047D00053FD41F2883000F015FB06E18748007870
:1047E00000281BD143F6982281A180A0FCF772FA21
:1047F00030B10120814908708FA0FBF73DFD0DE02D
:1048000000207E4908707E4908700F9091A0FBF748
:1048100033FD40F6B83000F0F5FAE6E0784800786D
:1048200000283BD17820924992A395A2CDE90010AF
:1048300040F25B7194A0FDF727FC40B10120704964
:10484000087000200F9095A0FBF716FD26E00020D1
:104850006B490870FDF71CFE0146099094A0FBF718
:104860000BFDFDF70FFE0146099098A0FBF704FD34
:10487000FCF790FA0146099099A0FBF7FDFCFCF7C4
:1048800089FA9BA10990FBF7B7FD10B19AA0FBF73D
:10489000F3FC40F6B83000F0B5FAA6E00F98002817
:1048A00017D10021A3A0FDF791FE30B101200F9098
:1048B000A0A1ABA0FBF7E0FC0BE000205049087082
:1048C0000F90ADA0FBF7D8FC4FF47A7000F09AFA85
:1048D0008BE0FEF7CBFEAE48007808B1ADA000E05B
:1048E000AEA00D90AF48007808B1AAA000E0ABA040
:1048F0000C90AD48007808B1A6A000E0A7A00B90EE
:10490000AA48007808B1A3A000E0A4A00A90A84992
:10491000A848006801F0C2F9099001F0F9F80546CD
:10492000A349A548006801F0B9F9099001F0F0F831
:1049300006469F49A148006801F0B0F9099001F0CE
:10494000E7F804460A2095FBF0FA95FBF0F100FB2E
:104950001157002F00DA7F420A2096FBF0F00E90EC
:104960000A2096FBF0F100FB1168B8F1000F01DAA4
:10497000C8F100080A2094FBF0FB94FBF0F100FB67
:104980001149B9F1000F01DAC9F100090AA80BC8F1
:104990000D9ACDE90523CDE907100E985346884AB4
:1049A0004FF48071CDE903B9CDE90108009710A853
:1049B000FBF76EFC00231A4610A982A0FDF76EFDDE
:1049C00050B900200E49087089A0FBF755FC4FF440
:1049D0007A7000F017FA08E010A98AA0FBF74CFCE7
:1049E00041F2883000F00EFA00BFE3E636343000C2
:1049F00031323334353637380000000050000020A3
:104A00005100002053657420574946495F5353496C
:104A1000442F574946495F50415353574F52442002
:104A2000696E206672656572746F735F64656D6F21
:104A30002E630D0A000000004553503832363620F0
:104A40005769466920636F6E6E65637465640D0A0D
:104A50000000000045535038323636205769466909
:104A600020636F6E6E656374206661696C0D0A0069
:104A7000A4780008365332365A6B6638345000003A
:104A800045535038323636006D717474732E686534
:104A9000636C6F7564732E636F6D00004D515454D9
:104AA00020636F6E6E65637465640D0A000000001C
:104AB0004D51545420636F6E6E6563742066616956
:104AC0006C2C206572723D25640D0A00434F4E4EDA
:104AD00041434B20636F64653D25640D0A0000006F
:104AE000455350207273703A2025730D0A00000060
:104AF00052656376000000005469703A20434F4EBF
:104B00004E4543542073656E742C20636865636B57
:104B1000204F6E654E455420617574682F746F7018
:104B200069632F636C69656E7420706172616D7367
:104B30000D0A0000247379732F365332365A6B6690
:104B40003834502F455350383236362F7468696EDA
:104B5000672F70726F70657274792F7365740000BF
:104B60004D51545420737562736372696265206F8E
:104B70006B3A2025730D0A004D5154542073756211
:104B8000736372696265206661696C0D0A000000DA
:104B90004D000020747275650000000066616C7342
:104BA0006500000043000020420000204C0000206F
:104BB00000002041300000202C00002038000020A0
:104BC00024790008247379732F365332365A6B6672
:104BD0003834502F455350383236362F7468696E4A
:104BE000672F70726F70657274792F706F737400B5
:104BF0004D515454207075626C6973682066616908
:104C00006C0D0A004D515454207075623A20257382
:104C10000D0A000001460A69D1E901309860D1E926
:104C2000010358605068884201D1886850600020B4
:104C300008611068401E10601068704700F108019C
:104C400041604FF0FF31816000F10801C1600161F6
:104C500000210160704700210161704710B50246D4
:104C60000B685C1C0CB9106907E002F1080000E059
:104C70004068446824689C42FAD944684C604C6897
:104C8000A160886041600A611468641C146010BDF2
:104C900042684A6093688B609368596091600861CC
:104CA00003685B1C0360704700BF502080F31188CD
:104CB000BFF34F8FBFF36F8F00BF03480068401CE6
:104CC0000149086070470000E400002006480068C1
:104CD000401E054908600846006820B9002080F39E
:104CE000118800BF00BF7047E400002070B5064681
:104CF0003546FEB1083D2C460F49606809680840FA
:104D0000C0B12068B0B90C49606809688843606028
:104D100000F080F90949606809680844074908609B
:104D20002046FEF7A5FF06480068401C04490860BD
:104D300000F0EAFC70BD0000E0000020D000002080
:104D4000DC00002000204FF0E02108618861074866
:104D50000068C0084FF47A71B0FBF1F0401E4FF0CC
:104D6000E0214861032008617047000054000020E2
:104D700010B502460B460021BBB1002012E00D4CDD
:104D800004EBC0046468944203D10A4C04EBC001F4
:104D90000AE031B9074C54F8304014B9054C04EB23
:104DA000C001401C0828EAD300BF09B10B604A606B
:104DB00010BD0000880100202DE9F04105460E4697
:104DC00017462C46FFF770FF94F94400401C10B9B9
:104DD000002084F8440094F94500401C10B90020DC
:104DE00084F84500FFF772FFA06B28B93A463146B8
:104DF00004F1240000F0ACF82046FFF72DF9BDE8DF
:104E0000F081000070B50446002544B100F002F9BD
:104E100000212046FEF79CFC00F076FC05463DB9DB
:104E20004FF0805003490860BFF34F8FBFF36F8F7F
:104E300070BD000004ED00E070B50546FFF734FFDB
:104E400015B92948006800E028460446201DFFF7F0
:104E5000E1FE78B9E06A00EB8000244951F82000B7
:104E600040B994F82C1001208840214909688143F9
:104E70001F480160A06A18B104F11800FFF7CAFECC
:104E80001C480068401C1B490860174800688442A1
:104E900009D1211D1848FFF7FBFE18480068401C87
:104EA0001649086006E016480068401E144908606C
:104EB000FFF76AF8FFF70AFF0B480068844202D048
:104EC0002046FEF7CBFD0F48006858B10648006841
:104ED000844207D14FF080500B490860BFF34F8FD9
:104EE000BFF36F8F70BD000070000020C80100206C
:104EF000880000209C000020840400207C0000200A
:104F0000800000208C00002004ED00E003490968C7
:104F10000160034909684160704700009800002063
:104F2000840000200120014908607047940000209F
:104F300070B505460C460548016818312846FFF74C
:104F40008DFE01212046FEF703FC70BD700000209D
:104F500070B504460E46154660680F490968C86179
:104F60000D49826809680A620B490968183182682C
:104F700051600949096818318160074909688C62E4
:104F80002168491C21600DB14FF0FF36294630469B
:104F9000FEF7DEFB70BD0000700000201CB5154858
:104FA00000210B468022CDE9001013A1144800F027
:104FB000D3F90446012C02D100F054FC0446012C24
:104FC00014D100BF502080F31188BFF34F8FBFF37F
:104FD0006F8F00BF4FF0FF300A49086001200A4977
:104FE000086000200949086000F04CF80848006893
:104FF0001CBD0000A400002049444C4500000000F6
:10500000153B0008A00000208C0000208400002038
:10501000A800002002480068401C01490860704751
:10502000AC0000201248006818B101201149086046
:105030001DE000200F4908600F480068B0FA80F0BA
:10504000C0F11F0101EB81020C4B03EB82004268AF
:105050005268426000F108024368934202D14268FC
:10506000526842604268D268054B1A6000BF7047C0
:10507000AC0000209400002088000020C80100201F
:105080007000002010B50A48006840F4700008491C
:1050900008600846006840F070400860FFF752FE64
:1050A000002004490860FBF78BF8002010BD0000C9
:1050B00020ED00E0E400002010B500BF502080F398
:1050C0001188BFF34F8FBFF36F8F00BF00F07AF9E5
:1050D00018B14FF080500449086000BF002080F3F1
:1050E000118800BF10BD000004ED00E02DE9F84379
:1050F00004460E4617460025DCB1681EB0FBF4F0EE
:10510000B04216D304FB06F010F1550F11D804FB82
:1051100006F909F15400FEF7E7FF05464DB1A84630
:1051200008F154083B464246314620460095FEF7BA
:1051300005FD2846BDE8F8832DE9F04105460E46F9
:1051400001272C46002C41D0E06B00283ED0B91E30
:10515000E06BB1FBF0F0216C884237D3FFF7A4FD80
:10516000D4E90F12206801FB0200A0600020A063B8
:1051700020686060E06B401E226C216800FB021119
:10518000E160FF2084F8440084F845009EB920695E
:1051900008B9012000E00020A8B904F1100000F0D7
:1051A0002FFA80B14FF080500A490860BFF34F8F4B
:1051B000BFF36F8F07E004F11000FFF73FFD04F12C
:1051C0002400FFF73BFDFFF781FD00E00027384694
:1051D000BDE8F08104ED00E02DE9F74183B005461C
:1051E0000F464FF000082C4600BFFFF75DFDA66B91
:1051F000F6B139462046FEF7DDFB701EA06320693C
:1052000008B9012000E0002060B904F1100000F0AE
:10521000F7F938B14FF080502F490860BFF34F8F36
:10522000BFF36F8FFFF752FD012006B0BDE8F0819C
:10523000059818B9FFF74AFD0020F6E7B8F1000F0E
:1052400004D101A8FFF762FE4FF00108FFF73EFD11
:10525000FFF7E0FEFFF728FD94F94400401C10B969
:10526000002084F8440094F94500401C10B9002047
:1052700084F84500FFF72AFD05A901A800F02EF8E3
:10528000F0B92046FEF754FDA0B104F124000599C1
:10529000FFF74EFE2046FEF7DFFE00F035FA00284D
:1052A000A3D14FF080500C490860BFF34F8FBFF37C
:1052B0006F8F9AE72046FEF7CFFE00F025FA94E7BD
:1052C0002046FEF7C9FE00F01FFA2046FEF730FD2B
:1052D00000288AD00020A8E704ED00E070B506465B
:1052E0000C46FFF7E1FC194802687068131A184869
:1052F000006890F8590030B100201549096881F81C
:10530000590001251EE02068401C08B9002519E05D
:10531000104930680968884206D07068904203D806
:105320000125002020600DE02068984207D9206800
:10533000C01A20603046FFF7E9FD002502E000209A
:1053400020600125FFF7C2FC284670BD84000020C4
:1053500070000020980000202DE9FF4F85B08046A6
:1053600089461746DDE912ABB800FEF7BDFE0646DA
:1053700056B15C20FEF7B8FE04460CB1266304E08B
:105380003046FFF7B3FC00E000247CB10020CDE9FB
:1053900000ABCDE902403A4649464046089BFEF73D
:1053A000E4FB2046FEF73AFA012501E04FF0FF3515
:1053B000284609B0BDE8F08F014908687047000031
:1053C000840000202DE9F04100275748006800289C
:1053D0007ED156480068451C544805608DB9544834
:1053E000D0F8008053480068514908605148C0F81F
:1053F000008051480068401C4F490860FEF7C4FD1A
:1054000000BF4E480068854276D300BF4848006818
:10541000006808B9012000E0002020B14FF0FF3003
:105420004649086067E042480068C068C46866682A
:10543000B54202D2414806605DE06069D4E90212DB
:105440008A60D4E902214A60211D42688A4201D162
:10545000E1684160002262610168491E0160A06A42
:1054600098B1A06AD4E907128A60D4E907214A609A
:1054700004F1180142688A4201D1216A4160002288
:10548000A2620168491E016000BF94F82C1001203F
:1054900088402B490968084329490860E16A01EB03
:1054A0008101284A02EB81014868A0608268E260BD
:1054B000211D826851608160E16A01EB8101214A0E
:1054C00002EB81026261E16A01EB81011D4A00E0A9
:1054D00022E052F82110491CE26A02EB8202194BC9
:1054E00043F822101849E06A0968C96A88428DD3D6
:1054F00001278BE700E000BF13480068C06A00EB9B
:105500008000104951F82000012800D901270F48D8
:10551000006800B1012704E00D480068401C0C49F8
:1055200008603846BDE8F081AC000020840000200F
:10553000740000207800002098000020A0000020C7
:1055400088000020C8010020700000209400002086
:105550009000002070B505462C460026002D48D04E
:10556000206D401E2065E16CE06A884241D0206DCC
:1055700000283ED1201DFFF74DFB40B994F82C10B8
:10558000012088401C49096881431B480160E06C88
:10559000E062E06AC0F12000A06194F82C100120C4
:1055A000884015490968084313490860E16A01EB1E
:1055B0008101124A02EB81014868A0608268E260C2
:1055C000211D826851608160E16A01EB81010B4A13
:1055D00002EB81026261E16A01EB8101074A52F844
:1055E0002110491CE26A02EB8202044B43F82210AC
:1055F0000126304670BD000088000020C801002050
:1056000070B50346D868C168886AD1E90745A560C6
:10561000D1E90754656001F118044568A54201D13C
:105620000C6A446000258D620468641E0460304882
:10563000006800283DD14869D1E90245A560D1E95B
:10564000025465600C1D4568A54201D1CC684460D8
:1056500000254D610468641E046091F82C4001200F
:10566000A040244C24682043224C2060CC6A04EBE8
:105670008404214D05EB8404606888608568CD60F2
:105680000C1D85686C608460CC6A04EB84041A4D40
:1056900005EB84054D61CC6A04EB8404164D55F886
:1056A0002440641CCD6A05EB8505134E46F8254061
:1056B00010E0124C6068C86185680D6201F1180441
:1056C00085686C6084600D4D8D622C462468641C76
:1056D0002C6000BF0A4CC86A2468E46AA04204D95E
:1056E00001220120074C206000E00022104670BD1E
:1056F000AC00002088000020C801002070040020B9
:10570000700000209400002070B500240026FFF7F0
:10571000CBFA4B480068401E4949086008460068BB
:1057200000287DD147480068002879D05BE04648D2
:10573000C068C468A06AD4E907128A60D4E9072166
:105740004A6004F1180142688A4201D1216A41602D
:105750000022A2620168491E01606069D4E9021258
:105760008A60D4E902214A60211D42688A4201D13F
:10577000E1684160002262610168491E016094F89D
:105780002C10012088403149096808432F490860DE
:10579000E16A01EB81012E4A02EB81014868A060B9
:1057A0008268E260211D826851608160E16A01EBDC
:1057B0008101274A02EB81026261E16A01EB81010A
:1057C000234A52F82110491CE26A02EB8202204B64
:1057D00043F822101F49E06A0968C96A884202D367
:1057E00001201D4908601848006808B9012000E040
:1057F000002000289BD00CB1FEF7C6FB17480568B7
:1058000065B100BFFFF7DEFD10B10120124908604D
:105810006D1E002DF6D10020104908600E4800E0F2
:1058200009E0006838B1012630070D490860BFF370
:105830004F8FBFF36F8FFFF749FA304670BD0000FE
:10584000AC000020800000207004002088000020B0
:10585000C80100207000002094000020900000206B
:1058600004ED00E01CB50024FEF74EF8084800687F
:1058700058B108481F2100234FF48072CDE9001071
:1058800005A10748FFF768FD044620461CBD00003F
:10589000B8000020BC000020546D722053766300D5
:1058A0003F40000890EA010F48BF81F0004100F13D
:1058B0000483421A3CBF801A89184FEAD0524FF035
:1058C0007F4C1CEA410FA2EBD15318BF9CEA026F38
:1058D00000F03B804FF0004C4CEA00204CEA0121E4
:1058E00021FA03FC10EB0C0C1ED202F1FF325FEA2E
:1058F0001C2040EBC25038BF70471CF07F0F4FEAAE
:10590000400C18BFBCF17F4F38BF7047C3F1200374
:10591000994008BF20F00100BCF17F4F38BF7047AD
:10592000A0F1C04000F081BA4FEA3C00000A40EB11
:10593000C25028BF1CF0FF0F4FEA400CE6D018BF42
:10594000BCF17F4F38BF7047EAE79CEA026F05D091
:1059500010EA5C0F08BF00F00040704710B500F07F
:105960001EFA00BF64FBBE3E014800F014BB00BF3E
:105970000000C07F401058BFC0F14040491058BFE0
:10598000C1F140418142EFF3008070474FF47F0C3A
:105990001CEAD0121EBF1CEAD11392EA0C0F93EA44
:1059A0000C0F00F0858090EA010F48BF42F480722E
:1059B00040F4000C41F400002CF07F4120F07F40C7
:1059C00000B58142A2EB03020FF2081CACEB504E73
:1059D000C0F100009EF800E04FEA4E0E00FB0EFC06
:1059E00038BF49004FEA2C1C02F5FA020CFB0EF3FB
:1059F0004FEACE1E4FEA112C4FEAC1210EEB635E37
:105A000042EB22420EFB0CFC4FEA1C5300FB03113D
:105A10004FEA112C4FEA01310EFB0CFC4FEADC4C33
:105A200000FB0C11C14228BF09184CEB03335DF891
:105A300004EB10EB410143EBC250B2F57C0F38BFD1
:105A4000704729D512F0F00F1CBF00F1C04000F0E4
:105A500000407047008182838485868788898B8C8B
:105A60008D8E8F919293959697999A9C9D9FA0A2C7
:105A7000A3A5A7A8AAACAEB0B2B3B5B7B9BCBEC017
:105A8000C2C5C7C9CCCED1D4D7D9DCDFE2E6E9ECB8
:105A9000F0F3F7FAFE0000004FEA400C0CF1807CB6
:105AA000BCF17E4F28BF7047B0F1C04000F0BDB9D7
:105AB00090EA010F0CEAD11348BF42F480726245AC
:105AC00038BF634507D213F47F0F16D080EA010078
:105AD00000F00040704710B500F061F9097EFC3E0F
