:020000040800F2
:100000004832002021020008ED0500088F05000895
:10001000E90500086B040008610700080000000003
:10002000000000000000000000000000890100083E
:100030006F04000800000000CD010008F906000868
:100040003B0200083B0200083B0200083B0200089C
:100050003B0200083B0200083B0200083B0200088C
:100060003B0200083B0200083B0200083B0200087C
:100070003B0200083B0200083B0200083B0200086C
:100080003B0200083B0200083B0200083B0200085C
:100090003B0200083B0200083B0200083B0200084C
:1000A0003B0200083B0200083B0200083B0200083C
:1000B0003B0200083B0200083B0200083B0200082C
:1000C0003B0200083B0200083B0200083B0200081C
:1000D0003B0200083B0200083B0200083B0200080C
:1000E0003B0200083B0200083B02000800F002F857
:1000F00000F03AF80AA090E8000C82448344AAF188
:100100000107DA4501D100F02FF8AFF2090EBAE885
:100110000F0013F0010F18BFFB1A43F0010318473B
:100120004C1E00006C1E0000103A24BF78C878C135
:10013000FAD8520724BF30C830C144BF04680C60ED
:10014000704700000023002400250026103A28BF35
:1001500078C1FBD8520728BF30C148BF0B60704739
:100160001FB51FBD10B510BD00F045F91146FFF7D2
:10017000F7FF00F00FFB00F063F903B4FFF7F2FFA5
:1001800003BC00F06BF90000224B19680868B0E866
:10019000F00F80F30988BFF36F8F4FF0000080F3FA
:1001A00011884EF00D0E70470000000006480068F0
:1001B000006880F3088862B661B6BFF34F8FBFF363
:1001C0006F8F00DF00BF00BF08ED00E0EFF3098094
:1001D000BFF36F8F0F4B1A6820E9F00F106008B55E
:1001E0004FF0500080F31188BFF34F8FBFF36F8F34
:1001F00001F07CFA4FF0000080F31188BDE8084060
:1002000019680868B0E8F00F80F30988BFF36F8FB2
:10021000704700BF20000020EFF30580704700000A
:100220000948804709480047FEE7FEE7FEE7FEE78A
:10023000FEE7FEE7FEE7FEE7FEE7FEE704480549C6
:10024000054A064B7047000001070008ED00000852
:10025000482C002048320020482E0020482E002044
:10026000032A40F2308010F0030C00F0158011F8E2
:10027000013BBCF1020F624498BF11F801CB00F8BA
:10028000013B38BF11F8013BA2F1040298BF00F80E
:1002900001CB38BF00F8013B11F0030300F0578099
:1002A000083AC0F0088051F8043B083A51F804CBF2
:1002B000A0E80810F5E7121D5CBF51F8043B40F8B8
:1002C000043BAFF30080D20724BF11F8013B11F8C3
:1002D00001CB48BF11F8012B24BF00F8013B00F807
:1002E00001CB48BF00F8012B704702F0FF0343EA3F
:1002F000032242EA024200F05EB84FF0000200B56D
:10030000134694469646203922BFA0E80C50A0E838
:100310000C50B1F12001BFF4F7AF090728BFA0E8E6
:100320000C5048BF0CC05DF804EB890028BF40F8B2
:10033000042B08BF704748BF20F8022B11F0804FF4
:1003400018BF00F8012B704770477047704710B511
:10035000203AC0F00B80B1E81850203AA0E81850BD
:10036000B1E81850A0E81850BFF4F5AF5FEA027C7E
:1003700024BFB1E81850A0E8185044BF18C918C0ED
:10038000BDE810405FEA827C24BF51F8043B40F88E
:10039000043B08BF7047D20728BF31F8023B48BF73
:1003A00011F8012B28BF20F8023B48BF00F8012BB1
:1003B00070474FF000020429C0F0128010F0030CC7
:1003C0003FF49DAFCCF1040CBCF1020F18BF00F854
:1003D000012BA8BF20F8022BA1EB0C01FFF78FBF68
:1003E0005FEAC17C24BF00F8012B00F8012B48BF55
:1003F00000F8012B7047754600F02CF8AE4605005A
:100400006946534620F00700854618B020B5FFF72F
:1004100015FFBDE820404FF000064FF000074FF0F9
:1004200000084FF0000B21F00701AC46ACE8C00912
:10043000ACE8C009ACE8C009ACE8C0098D4670471B
:1004400010B50446AFF300802046BDE81040FFF72A
:1004500094BE000000487047E42B0020014918209A
:10046000ABBEFEE726000200704700BFFEE7704704
:100470002DE9F0410246002500260020002300243B
:10048000002791F803C00CF00F0591F803C00CF0A1
:10049000100CBCF1000F03D091F802C04CEA050526
:1004A00091F800C0BCF1000F31D0146800202BE09F
:1004B0004FF0010C0CFA00F3B1F800C00CEA03068F
:1004C0009E4220D183004FF00F0C0CFA03F7BC437F
:1004D00005FA03FC4CEA040491F803C0BCF1280FB0
:1004E00006D14FF0010C0CFA00FCC2F814C00AE06F
:1004F00091F803C0BCF1480F05D14FF0010C0CFA84
:1005000000FCC2F810C0401C0828D1D31460B1F818
:1005100000C0BCF1FF0F34DD546800202EE000F174
:10052000080C4FF0010808FA0CF3B1F800C00CEA0F
:1005300003069E4221D183004FF00F0C0CFA03F703
:10054000BC4305FA03FC4CEA040491F803C0BCF177
:10055000280F05D100F1080C08FA0CF8C2F8148035
:1005600091F803C0BCF1480F07D100F1080C4FF01F
:10057000010808FA0CF8C2F81080401C0828CED3F5
:100580005460BDE8F081416170470161704700BF70
:10059000FEE7000008B50121102000F029F84FF413
:1005A0000050ADF8000010208DF8030003208DF8F6
:1005B000020069460148FFF75BFF08BD00100140DB
:1005C00010B54FF400510248FFF7DFFF10BD0000E7
:1005D0000010014010B54FF400510248FFF7D3FF5F
:1005E00010BD00000010014000BFFEE77047000092
:1005F00029B1064A92690243044B9A6104E0034A16
:1006000092698243014B9A617047000000100240DA
:1006100010B500F001F810BD0CB50020019000905D
:100620003348006840F480303149086000BF3048EA
:10063000006800F4003000900198401C0190009880
:1006400018B90198B0F5A06FF1D12948006800F4FD
:10065000003010B10120009001E0002000900098CF
:10066000012843D12348006840F010002149086068
:100670000846006820F0030008600846006840F063
:10068000020008601A4840681949486008464068F6
:1006900048600846406840F480604860084640680A
:1006A00020F47C1048600846406840F4E810486038
:1006B0000846006840F08070086000BF0C48006881
:1006C00000F000700028F9D00948406820F00300CD
:1006D000074948600846406840F00200486000BF93
:1006E0000348406800F00C000828F9D10CBD000058
:1006F000001002400020024010B501F041F810BD8A
:1007000010B51348006840F0010011490860084620
:100710004068104908400E494860084600680E4984
:1007200008400B4908600846006820F480200860F3
:100730000846406820F4FE0048604FF41F008860BF
:10074000FFF766FF4FF000600449086010BD00002D
:10075000001002400000FFF8FFFFF6FE08ED00E089
:1007600000BFFEE71CB50648012100238022CDE929
:10077000001004A1064801F053F900F073FF1CBDFE
:100780000000002073746172745F7461736B000009
:1007900059120008FFF7FEFE01E0FFF7E3FFFCE758
:1007A0002DE9F04105460E462948076800202949F1
:1007B000096881F8590027480068001D00F08DFD88
:1007C00050B92448006890F82C1001208840224934
:1007D0000968814320480160681CD8B9D6B11F4917
:1007E00048681C49096888601A4982680968CA60B3
:1007F00018490968091D8268516016490968091D70
:100800008160164A134909684A6111460968491C02
:1008100011601AE07C190F4800684460BC4207D29E
:100820000C480168091D0E48006800F07AFD0CE0D4
:1008300008480168091D0B48006800F072FD0A486D
:100840000068844201D208480460BDE8F0810000DD
:10085000340000202000002038000020A8030020E1
:1008600028000020240000205000002010B504467D
:1008700000F07EFD31480068401C30490860304877
:10088000006840B92E4804600846006801280DD170
:1008900000F0E2F90AE02B48006838B928480068FF
:1008A000C06AE16A884201D8254804602648006889
:1008B000401C2549086008460068606494F82C10C4
:1008C0000120884021490968084320490860E16AFD
:1008D00001EB81011E4A02EB81014868A060826839
:1008E000E260211D826851608160E16A01EB810153
:1008F000174A02EB81026261E16A01EB8101144A4D
:1009000052F82110491CE26A02EB8202104B43F8B4
:10091000221000F03FFD0B48006868B108480068ED
:10092000C06AE16A884207D24FF0805009490860E6
:10093000BFF34F8FBFF36F8F10BD0000300000205A
:10094000200000203C0000204C0000203800002047
:10095000D800002004ED00E010B500F009FD1048BB
:100960000068D0B90F4800F0CCFC0F4800F0C9FC7B
:100970000C480E4908600C480D49086000221021FF
:10098000052000F017FF064908600846006820B1FE
:1009900008A10348006800F04FFD00F0FBFC10BD0B
:1009A00068000020BC030020D0030020600000206D
:1009B00064000020546D72510000000010B516E074
:1009C00000F0D6FC0C48C068C468201D00F085FC0F
:1009D0000A480068401E0949086009480068401E2E
:1009E0000749086000F0D6FC204600F05FF8044894
:1009F00000680028E4D110BD9403002030000020DE
:100A00002C00002070B504460D46206C70B1216C9E
:100A1000E0680144E160D4E90210884201D3216812
:100A2000E1602846226CE168FFF71AFC70BD2DE9F1
:100A3000F04104460F4615464FF00008A66B206CA7
:100A400048B9206800282CD1A06801F0E7F880465A
:100A50000020A06025E07DB93946226C6068FFF770
:100A6000FFFB216C606808446060D4E901018842A2
:100A700017D32068606014E03946226CE068FFF705
:100A8000EFFB216CE068411AE1602168E068884270
:100A900003D2216CA068411AE160022D01D106B198
:100AA000761E701CA0634046BDE8F08110B5044678
:100AB000206B00F07FFC204600F07CFC10BD0000A5
:100AC0000146084A126812680AB9012200E00022B1
:100AD0000A600A6822B9034A1268D268106800E006
:100AE000002070476000002030B54FF420531748B5
:100AF00000F007042CB1C01D20F00700134C041BAC
:100B00001B1B0246124C22600024114D6C60D01851
:100B1000083820F007000F4C206000240D4D2D6890
:100B20006C600C4D2D682C601146441A4C60094CC9
:100B300024680C60084D4C682C60084D4C682C6093
:100B40004FF00044064D2C6030BD0000E40300204F
:100B5000740000207C000020840000208000002021
:100B60009000002000BFFFF729FF06480068012819
:100B7000F9D94FF0805004490860BFF34F8FBFF39D
:100B80006F8FF0E7D800002004ED00E02DE9F04180
:100B900006460D4617469846069C0DB9246000E0AF
:100BA0002760E66325640121204600F029FE84F8D1
:100BB00050800020A064BDE8F0812DE9F05F8146FF
:100BC0000E4690469A460A9F0C9C4FEA8801A52241
:100BD000206BFFF78AFBA8F10100216B01EB800B72
:100BE0002BF0070B86B1002507E0715D04F134009E
:100BF0004155705D00B902E06D1C102DF5D300BFAA
:100C000000214320015502E0002084F83400202F09
:100C100000D31F27E762E76400202065201D00F055
:100C20007DFB04F1180000F079FB2461C7F120007E
:100C3000A06164620020606584F8580084F859005F
:100C400052464946584600F0F5FA20600B9808B124
:100C50000B980460BDE8F09F10B5002407E004EB9A
:100C600084010F4A02EB810000F04BFB641C202C36
:100C7000F5D30C4800F045FB0B4800F042FB0B4855
:100C800000F03FFB0A4800F03CFB0A4800F039FB4B
:100C900004480949086004480849086010BD00007C
:100CA000D8000020580300206C030020800300209F
:100CB00094030020A8030020240000202800002026
:100CC00010B50146164800E0006803688B42FBD36C
:100CD0000246436813448B4204D143684C68234462
:100CE000436001460A464B6813440468A34211D18D
:100CF0000C4C03682468A34208D04B6804686468FD
:100D000023444B6003681B680B6005E0054B1B68C0
:100D10000B6001E003680B60884200D0016010BDE9
:100D2000740000207C0000202DE9F04104460D46AF
:100D300016461F464FF0000865602461B5420CD886
:100D4000F01BA169884202D34FF0010811E0211D78
:100D50000948006800F0E5FA0BE0BE4204D2BD424B
:100D600002D34FF0010804E0211D0448006800F0A0
:100D7000D8FA4046BDE8F081640000206000002001
:100D800070B5054600F0F4FAA86B08B9012400E03C
:100D9000002400F0FFFA204670BDF1B50098846C85
:100DA0000026A06BE16B88421BD294F945500022CB
:100DB00069462046FFF73BFE0646681C60B9606A3C
:100DC00008B9012000E0002050B904F1240000F02F
:100DD0007BFF28B1012603E0681C40B284F845007F
:100DE00000BF3046F8BD000070B505460E460E48FF
:100DF0000068C068C468201D00F06FFA94F82800ED
:100E000000F0040028B132462946204600F0D0F810
:100E100005E094F8280000F0FE0084F82800204641
:100E2000216A884770BD00006000002070B586B060
:100E300077E00298002805DA03AED6E90020B16811
:100E4000904700BF029800286BDB049C606908B9DA
:100E5000012000E0002010B9201D00F03EFA01A89A
:100E600000F0D2F8054602980A2858D2DFE800F0D0
:100E70005705072E364706082F3700BF00BF00BFB3
:100E800094F8280040F0010084F828000398A26933
:100E9000811803462A462046FFF746FFA8B194F87A
:100EA000280000F0040038B10398A26981182A468E
:100EB000204600F07DF805E094F8280000F0FE00E0
:100EC00084F828002046216A884729E000BF94F86A
:100ED000280000F0FE0084F8280021E000BF94F80C
:100EE000280040F0010084F828000398A061A06960
:100EF00041192B462A462046FFF716FF10E094F8CA
:100F0000280000F0020018B9204600F053FA05E06E
:100F100094F8280000F0FE0084F8280000E000BFEC
:100F200000BF002202A90448006800F0B9FC0028B4
:100F30007FF47FAF06B070BD68000020F8B50546AD
:100F40000C4600F0CBFB684600F05EF806460098C1
:100F500020BB44B9B54206D800F03AFF31462846D6
:100F6000FFF742FF1CE03CB10E480068006808B97A
:100F7000012000E000200446A91B22460A48006820
:100F800000F07EFA00F024FF50B94FF0805007497E
:100F90000860BFF34F8FBFF36F8F01E000F018FFC1
:100FA000F8BD0000640000206800002004ED00E0AF
:100FB00070B504460D46164604E0A0690544204677
:100FC000216A8847A06941192B4632462046FFF71F
:100FD000ABFE0028F1D170BD09480068006808B96F
:100FE000012000E0002020B14FF0FF3005490860EB
:100FF00005E003480068C06800680249086070475F
:10100000240000205000002070B5044600F038FD98
:10101000054607480068854204D200F00BF801201D
:10102000206001E00020206001480560284670BD76
:101030007000002070B508E00D480068C0680468C2
:101040004FF0FF312046FFF7CFFE094800680068E7
:1010500008B9012000E000200028EDD00448056810
:1010600004480068024908600248056070BD00003D
:10107000600000206400002000BF502080F3118831
:10108000BFF34F8FBFF36F8F00BF00BFFEE708B500
:1010900000BF6846FFF714FD044620460099FFF79D
:1010A0004DFFFFF7C3FEF4E770B5044600F060F9AA
:1010B00094F9455019E0A06C30B12046FFF76DFE61
:1010C00088B100F093FA0EE0606A08B9012000E0F0
:1010D000002038B904F1240000F0F6FD18B100F04A
:1010E00085FA00E003E0681E45B2002DE3DC00BF96
:1010F000FF2084F8450000F04DF900F039F994F92B
:10110000445010E0206908B9012000E0002048B9EF
:1011100004F1100000F0D8FD08B100F067FA681E75
:1011200045B200E001E0002DECDC00BFFF2084F8B8
:10113000440000F02FF970BD2DE9F04104464FF056
:10114000000800F0CBFA3548006808B9FFF7CCFC7E
:1011500033480068204000285BD1B4B104F1080096
:10116000A04212D9083404F0070078B104F0070057
:10117000C0F108002044A04205D904F00700C0F1E6
:101180000800044402E0002400E00024002C40D0C9
:101190002448006884423CD8234E3046056801E06C
:1011A0002E462D686868A04202D228680028F7D130
:1011B0001A48006885422CD0306800F10808286879
:1011C00030606868001B102807D92F196868001B59
:1011D00078606C603846FFF773FD124968680968EB
:1011E000081A1049086008460068104909688842D2
:1011F00003D20C4800680D4908600949686809680D
:10120000084368600020286009480068401C0849BD
:10121000086000F0DDFD4046BDE8F0817C00002064
:101220009000002080000020740000208400002036
:1012300088000020001F4FF080730360001F21F022
:1012400001030360001F034B036014380260203861
:1012500070470000791000081CB5044600F088F8BB
:101260000D48022100238022CDE900100BA10D487A
:1012700000F0D6FB0C48032100238022CDE90010AA
:101280000AA10C4800F0CCFB0B48006800F038F9CC
:1012900000F080F81CBD0000040000207461736B36
:1012A00031000000BD120008080000207461736B5B
:1012B00032000000CB1200080000002004E0FFF71D
:1012C00089F9C82000F002F9F9E705E0FFF778F99D
:1012D0004FF4967000F0FAF8F8E701460A69D1E990
:1012E00001309860D1E9010358605068884201D10B
:1012F00088685060002008611068401E1060106807
:10130000704700F1080141604FF0FF31816000F14A
:101310000801C16001610021016070470021016185
:10132000704710B502460B685C1C0CB9106907E0E9
:1013300002F1080000E04068446824689C42FAD941
:1013400044684C604C68A160886041600A61146820
:10135000641C146010BD42684A6093688B60936897
:1013600059609160086103685B1C0360704700006E
:1013700000BF502080F31188BFF34F8FBFF36F8FF2
:1013800000BF03480068401C014908607047000026
:101390009400002006480068401E05490860084681
:1013A000006820B9002080F3118800BF00BF70479B
:1013B0009400002070B506463546FEB1083D2C4627
:1013C0000F49606809680840C0B12068B0B90C498D
:1013D000606809688843606000F080F909496068C6
:1013E00009680844074908602046FFF769FC064879
:1013F0000068401C0449086000F0EAFC70BD000071
:1014000090000020800000208C00002000204FF081
:10141000E0210861886107480068C0084FF47A71CC
:10142000B0FBF1F0401E4FF0E0214861032008615D
:10143000704700000C00002010B502460B4600214A
:10144000BBB1002012E00D4C04EBC0046468944270
:1014500003D10A4C04EBC0010AE031B9074C54F83F
:10146000304014B9054C04EBC001401C0828EAD3F5
:1014700000BF09B10B604A6010BD00009800002059
:101480002DE9F04105460E4617462C46FFF770FF42
:1014900094F94400401C10B9002084F8440094F9E9
:1014A0004500401C10B9002084F84500FFF772FF8A
:1014B000A06B28B93A46314604F1240000F0ACF89C
:1014C0002046FFF7F1FDBDE8F081000070B504464D
:1014D000002544B100F002F900212046FFF760F931
:1014E00000F076FC05463DB94FF080500349086096
:1014F000BFF34F8FBFF36F8F70BD000004ED00E0AE
:1015000070B50546FFF734FF15B92948006800E0BB
:1015100028460446201DFFF7E0FE78B9E06A00EB9C
:101520008000244951F8200040B994F82C10012083
:1015300088402149096881431F480160A06A18B1A9
:1015400004F11800FFF7C9FE1C480068401C1B4945
:10155000086017480068844209D1211D1848FFF728
:10156000FAFE18480068401C1649086006E0164854
:101570000068401E14490860FFF72EFDFFF70AFFC0
:101580000B480068844202D02046FFF78FFA0F48CC
:10159000006858B106480068844207D14FF0805077
:1015A0000B490860BFF34F8FBFF36F8F70BD000012
:1015B00020000020D8000020380000204C0000202F
:1015C000940300202C000020300000203C0000206C
:1015D00004ED00E0034909680160034909684160BE
:1015E000704700004800002034000020012001491D
:1015F000086070474400002070B505460C46054859
:10160000016818312846FFF78CFE01212046FFF7BC
:10161000C7F870BD2000002070B504460E46154680
:1016200060680F490968C8610D49826809680A62E3
:101630000B490968183182685160094909681831F5
:101640008160074909688C622168491C21600DB1DD
:101650004FF0FF3629463046FFF7A2F870BD000074
:10166000200000201CB5154800210B468022CDE942
:10167000001013A1144800F0D3F90446012C02D144
:1016800000F054FC0446012C14D100BF502080F31C
:101690001188BFF34F8FBFF36F8F00BF4FF0FF3044
:1016A0000A49086001200A490860002009490860C9
:1016B00000F04CF8084800681CBD000054000020F1
:1016C00049444C4500000000650B00085000002014
:1016D0003C00002034000020580000200248006830
:1016E000401C0149086070475C00002012480068F7
:1016F00018B10120114908601DE000200F49086061
:101700000F480068B0FA80F0C0F11F0101EB8102C0
:101710000C4B03EB820042685268426000F1080201
:101720004368934202D14268526842604268D2687C
:10173000054B1A6000BF70475C0000204400002089
:1017400038000020D80000202000002010B50A48F2
:10175000006840F47000084908600846006840F0DE
:1017600070400860FFF752FE002004490860FEF751
:101770001DFD002010BD000020ED00E094000020C1
:1017800010B500BF502080F31188BFF34F8FBFF317
:101790006F8F00BF00F07AF918B14FF08050044904
:1017A000086000BF002080F3118800BF10BD00005A
:1017B00004ED00E02DE9F84304460E4617460025E7
:1017C000DCB1681EB0FBF4F0B04216D304FB06F0A7
:1017D00010F1550F11D804FB06F909F15400FFF779
:1017E000ABFC05464DB1A84608F154083B464246BD
:1017F000314620460095FFF7C9F92846BDE8F88331
:101800002DE9F04105460E4601272C46002C41D01B
:10181000E06B00283ED0B91EE06BB1FBF0F0216C0C
:10182000884237D3FFF7A4FDD4E90F12206801FBEB
:101830000200A0600020A06320686060E06B401E92
:10184000226C216800FB0211E160FF2084F8440053
:1018500084F845009EB9206908B9012000E0002005
:10186000A8B904F1100000F02FFA80B14FF08050B9
:101870000A490860BFF34F8FBFF36F8F07E004F191
:101880001000FFF73EFD04F12400FFF73AFDFFF7DB
:1018900081FD00E000273846BDE8F08104ED00E05E
:1018A0002DE9F74183B005460F464FF000082C465E
:1018B00000BFFFF75DFDA66BF6B139462046FFF786
:1018C000A1F8701EA063206908B9012000E0002083
:1018D00060B904F1100000F0F7F938B14FF0805012
:1018E0002F490860BFF34F8FBFF36F8FFFF752FD93
:1018F000012006B0BDE8F081059818B9FFF74AFD50
:101900000020F6E7B8F1000F04D101A8FFF762FE4E
:101910004FF00108FFF73EFDFFF7E0FEFFF728FD5F
:1019200094F94400401C10B9002084F8440094F954
:101930004500401C10B9002084F84500FFF72AFD3F
:1019400005A901A800F02EF8F0B92046FFF718FA13
:10195000A0B104F124000599FFF74EFE2046FFF7E1
:10196000A3FB00F035FA0028A3D14FF080500C49BA
:101970000860BFF34F8FBFF36F8F9AE72046FFF7E2
:1019800093FB00F025FA94E72046FFF78DFB00F06B
:101990001FFA2046FFF7F4F900288AD00020A8E7B4
:1019A00004ED00E070B506460C46FFF7E1FC19486F
:1019B00002687068131A1848006890F8590030B12E
:1019C00000201549096881F8590001251EE02068AA
:1019D000401C08B9002519E01049306809688842A0
:1019E00006D07068904203D80125002020600DE0E9
:1019F0002068984207D92068C01A20603046FFF757
:101A0000E9FD002502E0002020600125FFF7C2FC6F
:101A1000284670BD3400002020000020480000202F
:101A20002DE9FF4F85B0804689461746DDE912ABA8
:101A3000B800FFF781FB064656B15C20FFF77CFB40
:101A400004460CB1266304E03046FFF7B3FC00E027
:101A500000247CB10020CDE900ABCDE902403A463C
:101A600049464046089BFFF7A8F82046FEF7FEFED1
:101A7000012501E04FF0FF35284609B0BDE8F08FA1
:101A80000149086870470000340000202DE9F0414A
:101A900000275748006800287ED156480068451C3A
:101AA000544805608DB95448D0F800805348006808
:101AB000514908605148C0F8008051480068401CF6
:101AC0004F490860FFF788FA00BF4E48006885421A
:101AD00076D300BF48480068006808B9012000E0DC
:101AE000002020B14FF0FF304649086067E04248CF
:101AF0000068C068C4686668B54202D241480660A2
:101B00005DE06069D4E902128A60D4E902214A608A
:101B1000211D42688A4201D1E16841600022626170
:101B20000168491E0160A06A98B1A06AD4E9071251
:101B30008A60D4E907214A6004F1180142688A42A8
:101B400001D1216A41600022A2620168491E016040
:101B500000BF94F82C10012088402B4909680843E5
:101B600029490860E16A01EB8101284A02EB810101
:101B70004868A0608268E260211D826851608160CF
:101B8000E16A01EB8101214A02EB81026261E16AB3
:101B900001EB81011D4A00E022E052F82110491CAE
:101BA000E26A02EB8202194B43F822101849E06AFC
:101BB0000968C96A88428DD301278BE700E000BF1E
:101BC00013480068C06A00EB8000104951F82000FB
:101BD000012800D901270F48006800B1012704E05F
:101BE0000D480068401C0C4908603846BDE8F0818B
:101BF0005C00002034000020240000202800002089
:101C0000480000205000002038000020D8000020AC
:101C100020000020440000204000002070B5054650
:101C20002C460026002D48D0206D401E2065E16C1A
:101C3000E06A884241D0206D00283ED1201DFFF788
:101C40004CFB40B994F82C10012088401C490968CD
:101C500081431B480160E06CE062E06AC0F1200053
:101C6000A06194F82C1001208840154909680843A8
:101C700013490860E16A01EB8101124A02EB81011C
:101C80004868A0608268E260211D826851608160BE
:101C9000E16A01EB81010B4A02EB81026261E16AB8
:101CA00001EB8101074A52F82110491CE26A02EB5C
:101CB0008202044B43F822100126304670BD00001A
:101CC00038000020D800002070B50346D868C168ED
:101CD000886AD1E90745A560D1E90754656001F13B
:101CE00018044568A54201D10C6A446000258D6244
:101CF0000468641E04603048006800283DD14869CB
:101D0000D1E90245A560D1E9025465600C1D456822
:101D1000A54201D1CC68446000254D610468641E71
:101D2000046091F82C400120A040244C24682043FA
:101D3000224C2060CC6A04EB8404214D05EB840422
:101D4000606888608568CD600C1D85686C60846003
:101D5000CC6A04EB84041A4D05EB84054D61CC6A12
:101D600004EB8404164D55F82440641CCD6A05EB41
:101D70008505134E46F8254010E0124C6068C86196
:101D800085680D6201F1180485686C6084600D4DF2
:101D90008D622C462468641C2C6000BF0A4CC86A03
:101DA0002468E46AA04204D901220120074C206083
:101DB00000E00022104670BD5C00002038000020CA
:101DC000D8000020800300202000002044000020D4
:101DD00070B500240026FFF7CBFA4B480068401E80
:101DE000494908600846006800287DD147480068D6
:101DF000002879D05BE04648C068C468A06AD4E98E
:101E000007128A60D4E907214A6004F11801426888
:101E10008A4201D1216A41600022A2620168491E02
:101E200001606069D4E902128A60D4E902214A6043
:101E3000211D42688A4201D1E1684160002262614D
:101E40000168491E016094F82C1001208840314936
:101E5000096808432F490860E16A01EB81012E4AB5
:101E600002EB81014868A0608268E260211D8268FF
:101E700051608160E16A01EB8101274A02EB810236
:101E80006261E16A01EB8101234A52F82110491C89
:101E9000E26A02EB8202204B43F822101F49E06AFB
:101EA0000968C96A884202D301201D4908601848A0
:101EB000006808B9012000E0002000289BD00CB188
:101EC000FFF78AF81748056865B100BFFFF7DEFD28
:101ED00010B10120124908606D1E002DF6D10020BE
:101EE000104908600E4800E009E0006838B101269A
:101EF00030070D490860BFF34F8FBFF36F8FFFF7B7
:101F000049FA304670BD00005C000020300000201F
:101F10008003002038000020D8000020200000208E
:101F2000440000204000002004ED00E01CB5002427
:101F3000FEF712FD0848006858B108481F21002329
:101F40004FF48072CDE9001005A10748FFF768FD46
:101F5000044620461CBD0000680000206C000020E4
:101F6000546D7220537663008F1000088C1F000898
:101F7000000000209800000028010008242000082C
:101F800098000020B031000044010008000000006B
:101F9000000000000000000000A24A040000000051
:101FA0000000000001020304060708090000000009
:101FB0000000000000000000000000000000000021
:101FC0000000000000000000000000000000000011
:101FD0000000000000000000000000000000000001
:101FE000000000001F0000000000000000000000D2
:101FF00000000000000000000000000000000000E1
:1020000000000000000000000000000000000000D0
:1020100000000000000000000000000000000000C0
:04202000AAAAAAAA14
:04000005080000ED02
:00000001FF
