:020000040800F2
:100000006032002021020008310F0008DF050008DF
:100010004D0E00086B0400081511000800000000D8
:10002000000000000000000000000000890100083E
:100030006F04000800000000CD010008AD100008AA
:100040003B0200083B0200083B0200083B0200089C
:100050003B0200083B0200083B0200083B0200088C
:100060003B0200083B0200083B0200083B0200087C
:100070003B0200083B0200083B0200083B0200086C
:100080003B0200083B0200083B0200083B0200085C
:100090003B0200083B0200083B0200083B0200084C
:1000A0003B0200083B0200083B0200083B0200083C
:1000B0003B0200083B0200083B0200083B0200082C
:1000C0003B0200083B0200083B0200083B0200081C
:1000D0003B0200083B0200083B0200083B0200080C
:1000E0003B0200083B0200083B02000800F002F857
:1000F00000F03AF80AA090E8000C82448344AAF188
:100100000107DA4501D100F02FF8AFF2090EBAE885
:100110000F0013F0010F18BFFB1A43F0010318473B
:10012000603F0000803F0000103A24BF78C878C1CB
:10013000FAD8520724BF30C830C144BF04680C60ED
:10014000704700000023002400250026103A28BF35
:1001500078C1FBD8520728BF30C148BF0B60704739
:100160001FB51FBD10B510BD00F045F91146FFF7D2
:10017000F7FF00F0E9FF00F063F903B4FFF7F2FFC7
:1001800003BC00F06BF90000224B19680868B0E866
:10019000F00F80F30988BFF36F8F4FF0000080F3FA
:1001A00011884EF00D0E70470000000006480068F0
:1001B000006880F3088862B661B6BFF34F8FBFF363
:1001C0006F8F00DF00BF00BF08ED00E0EFF3098094
:1001D000BFF36F8F0F4B1A6820E9F00F106008B55E
:1001E0004FF0500080F31188BFF34F8FBFF36F8F34
:1001F00001F0AEFF4FF0000080F31188BDE8084029
:1002000019680868B0E8F00F80F30988BFF36F8FB2
:10021000704700BF20000020EFF30580704700000A
:100220000948804709480047FEE7FEE7FEE7FEE78A
:10023000FEE7FEE7FEE7FEE7FEE7FEE704480549C6
:10024000054A064B70470000B5100008ED00000895
:10025000602C002060320020602E0020602E0020E4
:10026000032A40F2308010F0030C00F0158011F8E2
:10027000013BBCF1020F624498BF11F801CB00F8BA
:10028000013B38BF11F8013BA2F1040298BF00F80E
:1002900001CB38BF00F8013B11F0030300F0578099
:1002A000083AC0F0088051F8043B083A51F804CBF2
:1002B000A0E80810F5E7121D5CBF51F8043B40F8B8
:1002C000043BAFF30080D20724BF11F8013B11F8C3
:1002D00001CB48BF11F8012B24BF00F8013B00F807
:1002E00001CB48BF00F8012B704702F0FF0343EA3F
:1002F000032242EA024200F05EB84FF0000200B56D
:10030000134694469646203922BFA0E80C50A0E838
:100310000C50B1F12001BFF4F7AF090728BFA0E8E6
:100320000C5048BF0CC05DF804EB890028BF40F8B2
:10033000042B08BF704748BF20F8022B11F0804FF4
:1003400018BF00F8012B704770477047704710B511
:10035000203AC0F00B80B1E81850203AA0E81850BD
:10036000B1E81850A0E81850BFF4F5AF5FEA027C7E
:1003700024BFB1E81850A0E8185044BF18C918C0ED
:10038000BDE810405FEA827C24BF51F8043B40F88E
:10039000043B08BF7047D20728BF31F8023B48BF73
:1003A00011F8012B28BF20F8023B48BF00F8012BB1
:1003B00070474FF000020429C0F0128010F0030CC7
:1003C0003FF49DAFCCF1040CBCF1020F18BF00F854
:1003D000012BA8BF20F8022BA1EB0C01FFF78FBF68
:1003E0005FEAC17C24BF00F8012B00F8012B48BF55
:1003F00000F8012B7047754600F02CF8AE4605005A
:100400006946534620F00700854618B020B5FFF72F
:1004100015FFBDE820404FF000064FF000074FF0F9
:1004200000084FF0000B21F00701AC46ACE8C00912
:10043000ACE8C009ACE8C009ACE8C0098D4670471B
:1004400010B50446AFF300802046BDE81040FFF72A
:1004500094BE000000487047FC2B00200149182082
:10046000ABBEFEE726000200704700BFFEE7704704
:1004700000B5034603E04FF47A7000F005F8181E4B
:10048000A3F10103F7D100BD00EBC001C9004FF09B
:10049000E0225161002191610521116100BF4FF0FF
:1004A000E021096901F480310029F8D004214FF0DE
:1004B000E022116170472DE9F04102460025002637
:1004C000002000230024002791F803C00CF00F0542
:1004D00091F803C00CF0100CBCF1000F03D091F8A0
:1004E00002C04CEA050591F800C0BCF1000F31D004
:1004F000146800202BE04FF0010C0CFA00F3B1F867
:1005000000C00CEA03069E4220D183004FF00F0C7E
:100510000CFA03F7BC4305FA03FC4CEA040491F817
:1005200003C0BCF1280F06D14FF0010C0CFA00FCFF
:10053000C2F814C00AE091F803C0BCF1480F05D11D
:100540004FF0010C0CFA00FCC2F810C0401C082847
:10055000D1D31460B1F800C0BCF1FF0F34DD546892
:1005600000202EE000F1080C4FF0010808FA0CF30F
:10057000B1F800C00CEA03069E4221D183004FF07F
:100580000F0C0CFA03F7BC4305FA03FC4CEA040415
:1005900091F803C0BCF1280F05D100F1080C08FA4E
:1005A0000CF8C2F8148091F803C0BCF1480F07D1D1
:1005B00000F1080C4FF0010808FA0CF8C2F810809E
:1005C000401C0828CED35460BDE8F08141617047DB
:1005D000016170470AB1016100E04161704700BFED
:1005E000FEE7000070B5064613484088401E83B2FF
:1005F00011480088401E82B20021084600F0FCF934
:1006000010200E49086000020D49086000240AE02D
:10061000002503E0304600F0FDFB6D1C0648008815
:10062000A842F7D8641C04484088A042F0D81020A3
:100630000249091F086070BDEC2B0020140801401E
:10064000100C01402DE9FF4F85B081468A460020FD
:10065000049003900798A0EB09050898A0EB0A0600
:10066000CDF80890CDF804A0002D01DD012705E0AC
:100670000DB9002702E04FF0FF376D42002E02DD7A
:100680004FF0010806E016B94FF0000802E04FF005
:10069000FF387642B54201DD2C4600E034464FF08B
:1006A000000B21E0019A91B2029A90B200F022F878
:1006B0000498284404900398304403900498A0427E
:1006C00005DD0498001B04900298384402900398BA
:1006D000A04205DD0398001B03900198404401905F
:1006E0000BF101001FFA80FB601C8345DADD09B0C5
:1006F000BDE8F08F70B504460D462946204600F04F
:1007000071F90248008800F085FB70BD9800002058
:100710002DE9F04104460D4616461F462B4632464B
:1007200029462046FFF78EFF3B46224629462046B3
:10073000FFF788FF3B46324639462046FFF782FFE7
:100740003B46324629463046FFF77CFFBDE8F08144
:1007500008B50121082000F0EDFB4FF4E040ADF8B2
:10076000000003208DF8020010208DF80300694678
:100770000148FFF7A0FE08BD000C014010B500F0D5
:1007800067FBFFF7E5FF00F019F9112000F0A4FA6C
:100790007820FFF76DFEB12000F09EFA012000F0F6
:1007A00083FA2C2000F080FA2D2000F07DFAB22090
:1007B00000F092FA012000F077FA2C2000F074FA91
:1007C0002D2000F071FAB32000F086FA012000F02D
:1007D0006BFA2C2000F068FA2D2000F065FA012059
:1007E00000F062FA2C2000F05FFA2D2000F05CFA95
:1007F000B42000F071FA072000F056FAC02000F093
:100800006BFAA22000F050FA022000F04DFA84208A
:1008100000F04AFAC12000F05FFAC52000F044FA67
:10082000C22000F059FA0A2000F03EFA002000F041
:100830003BFAC32000F050FA8A2000F035FA2A2053
:1008400000F032FAC42000F047FA8A2000F02CFAB7
:10085000EE2000F029FAC52000F03EFA0E2000F04C
:1008600023FA362000F038FAC82000F01DFAE02004
:1008700000F032FA0F2000F017FA1A2000F014FAF4
:100880000F2000F011FA182000F00EFA2F2000F0CF
:100890000BFA282000F008FA202000F005FA2220A8
:1008A00000F002FA1F2000F0FFF91B2000F0FCF915
:1008B000232000F0F9F9372000F0F6F9002000F0CD
:1008C000F3F9072000F0F0F9022000F0EDF9102014
:1008D00000F0EAF9E12000F0FFF90F2000F0E4F960
:1008E0001B2000F0E1F90F2000F0DEF9172000F0E6
:1008F000DBF9332000F0D8F92C2000F0D5F92920BD
:1009000000F0D2F92E2000F0CFF9302000F0CCF921
:10091000302000F0C9F9392000F0C6F93F2000F07E
:10092000C3F9002000F0C0F9072000F0BDF9032052
:1009300000F0BAF9102000F0B7F92A2000F0CCF945
:10094000002000F0B1F9002000F0AEF9002000F026
:10095000ABF97F2000F0A8F92B2000F0BDF90020B2
:1009600000F0A2F9002000F09FF9002000F09CF9AF
:100970009F2000F099F9F02000F0AEF9012000F07E
:1009800093F9F62000F0A8F9002000F08DF93A2044
:1009900000F0A2F9052000F087F9292000F09CF969
:1009A000002000F0C3F90120034908604FF6FF70F2
:1009B000FFF718FE10BD0000B881214210B54FF4BA
:1009C0000050074908606420FFF752FD4FF40050C3
:1009D0000349091F08603220FFF74AFD10BD0000DF
:1009E000140C014070B504460D462B46224629469C
:1009F000204600F001F870BD2DE9F04104460D4697
:100A000016461F461749887A00F066F9002000F064
:100A10004BF91449897B2144C8B200F045F9002004
:100A200000F042F90F49897B3144C8B200F03CF92B
:100A30000C49087B00F050F9002000F035F9094915
:100A4000C97B2944C8B200F02FF9002000F02CF92E
:100A50000449C97B3944C8B200F026F900F054F9C2
:100A6000BDE8F081EC2B00202DE9FF4F83B08146DB
:100A70008A469346DDE91064404800880290A6F15A
:100A80002000C6B204EBD47009EB6000401E82B2B5
:100A90000AEB0400401E83B2514648460194FFF71A
:100AA000ABFF129850BB002525E00C2C07D106EBBC
:100AB0004600334901EB800010F8058004E031481E
:100AC00000EB061010F8058000270DE008F001008B
:100AD00018B1584600F09EF902E0069800F09AF925
:100AE0004FEA6808781CC7B204EBD471B7EB610F0A
:100AF000ECDB681CC5B2A542D7DB2DE0002529E060
:100B00000C2C07D106EB46001D4901EB800010F8C4
:100B1000058004E01B4800EB061010F80580002754
:100B200011E01648A0F800B008F0010038B10AEB57
:100B3000050291B209EB070290B2FFF7DBFD4FEA25
:100B40006808781CC7B204EBD471B7EB610FE8DB1F
:100B5000681CC5B2A542D3DB0849029808800A4840
:100B60004088401E83B208480088401E82B200219F
:100B70000846FFF741FF07B0BDE8F08F980000205E
:100B8000D0290008442E0008EC2B00202DE9FF4F4F
:100B900083B0074691461E46109C4FF0000A002580
:100BA00043E0701B401EC1B20A2000F0D5FAB9FB29
:100BB000F0F00A21B0FBF1F201FB1208BAF1000FCC
:100BC0001BD1701EA84218DDB8F1000F13D1002010
:100BD0002021A346CDE90014029004EBDB714910FB
:100BE00001FB057188B213490B8813490A880499DF
:100BF000FFF73AFF17E04FF0010A002108F130003B
:100C0000C0B2A346CDE90141009004EBDB7149106D
:100C100001FB057188B207490B8807490A880499C6
:100C2000FFF722FF00BF681CC5B2B542B9DB07B0B1
:100C3000BDE8F08F9A000020980000202DE9FE43C7
:100C400006460F4615461C46DDF828801DE0134871
:100C50000088401EB04204DB10484088401EB84265
:100C600001DABDE8FE8320788DE821010C48038875
:100C70000C48028839463046FFF7F6FE284605EB59
:100C8000D07106EB61018EB2641C20787E2802DCF4
:100C900020782028DBDA00BFE3E70000EC2B0020FF
:100CA0009A0000209800002010B504461020074943
:100CB00008600002064908602146064800F01EF957
:100CC00010200249091F086010BD000014080140EF
:100CD000100C01400030014010B5044610200749B7
:100CE00008600002064908602146064800F006F93F
:100CF00010200249091F086010BD000014080140BF
:100D0000140C01400030014010B50249087AFFF789
:100D1000E3FF10BDEC2B002070B505460C462846BD
:100D2000FFF7DAFFE0B2FFF7BFFF70BD10B5044672
:100D30002A20224948812B2088812C20088134B127
:100D4000012C11D0022C1CD0032C34D126E08020A1
:100D50001A4908804880022088730320C873C8217C
:100D60003620FFF7D9FF27E080201449088048800B
:100D7000032088730220C873A8213620FFF7CCFF18
:100D80001AE080200D4908804880022088730120E5
:100D9000C87308213620FFF7BFFF0DE08020074908
:100DA00008804880012088730220C873682136209B
:100DB000FFF7B2FF00E000BF00BF10BDEC2B00202A
:100DC00008B50121102000F0B5F84FF40050ADF83F
:100DD000000010208DF8030003208DF80200694602
:100DE0000148FFF768FB08BD0010014010B54FF443
:100DF00000510248FFF7ECFB10BD0000001001405D
:100E000010B54FF400510248FFF7E0FB10BD0000A1
:100E10000010014010B50446102009490860000286
:100E2000084908602112084800F068F8E1B2064855
:100E300000F064F810200249091F086010BD00008E
:100E400014080140100C01400030014000BFFEE7D3
:100E500000B587B001210C2000F06CF801210803D7
:100E600000F068F8A020ADF8180018208DF81B00DD
:100E700003208DF81A0006A91948FFF71CFB102063
:100E8000ADF818008DF81B0006A91548FFF713FBF5
:100E90000020ADF804004FF48270ADF80600002089
:100EA000ADF80800ADF80A00ADF80C004FF4007082
:100EB000ADF80E001820ADF810000020ADF81200BB
:100EC0000720ADF8140001A9064800F05DF80121E3
:100ED000044800F03FF8012000F006F807B000BD1C
:100EE000000801400030014010B5044622461021A0
:100EF0000148FFF76FFB10BD0008014070B50446C4
:100F00000D4600BF0221204600F030F80028F9D03D
:100F10002946204600F036F800BF0121204600F0A7
:100F200025F80028F9D0204600F029F8C0B270BD9D
:100F30007047000029B1064A92690243044B9A6146
:100F400004E0034A92698243014B9A6170470000B2
:100F50000010024021B1028842F04002028004E009
:100F600002884FF6BF731A40028070470246002085
:100F700013890B400BB1012000E0002070470146AF
:100F8000888970478181704710B50022028802F479
:100F900041520B884C8823438C882343CC882343BD
:100FA0000C8923434C8923438C892343CC892343D5
:100FB0001A430280838B4FF2FF74234083830B8A92
:100FC000038210BD10B500F001F810BD0CB5002073
:100FD000019000903348006840F480303149086047
:100FE00000BF3048006800F4003000900198401CB9
:100FF0000190009818B90198B0F5A06FF1D1294877
:10100000006800F4003010B10120009001E00020E1
:1010100000900098012843D12348006840F0100058
:10102000214908600846006820F00300086008466F
:10103000006840F0020008601A484068194948609A
:101040000846406848600846406840F48060486050
:101050000846406820F47C1048600846406840F428
:10106000E81048600846006840F08070086000BFE3
:101070000C48006800F000700028F9D0094840686A
:1010800020F00300074948600846406840F002002D
:10109000486000BF0348406800F00C000828F9D100
:1010A0000CBD0000001002400020024010B501F00D
:1010B00099F810BD10B51348006840F001001149BF
:1010C000086008464068104908400E4948600846D4
:1010D00000680E4908400B4908600846006820F483
:1010E000802008600846406820F4FE0048604FF405
:1010F0001F008860FFF766FF4FF00060044908603A
:1011000010BD0000001002400000FFF8FFFFF6FED7
:1011100008ED00E000BFFEE71CB5064801210023F2
:101120008022CDE9001004A1064801F0ABF900F0DF
:10113000CBFF1CBD0000002073746172745F74618A
:10114000736B0000291C0008FFF73AFEFFF716FB3F
:1011500001E0FFF7E1FFFCE710B50246012000E0E7
:1011600050430B1EA1F10104E1B2F9D110BD000002
:101170002DE9F04105460E46294807680020294917
:10118000096881F8590027480068001D00F0D8FD63
:1011900050B92448006890F82C100120884022495A
:1011A0000968814320480160681CD8B9D6B11F493D
:1011B00048681C49096888601A4982680968CA60D9
:1011C00018490968091D8268516016490968091D96
:1011D0008160164A134909684A6111460968491C29
:1011E00011601AE07C190F4800684460BC4207D2C5
:1011F0000C480168091D0E48006800F0C5FD0CE0B0
:1012000008480168091D0B48006800F0BDFD0A4848
:101210000068844201D208480460BDE8F081000003
:10122000340000202000002038000020B0030020FF
:1012300028000020240000205000002010B50446A3
:1012400000F0C8FD31480068401C30490860304853
:10125000006840B92E4804600846006801280DD196
:1012600000F0E2F90AE02B48006838B92848006825
:10127000C06AE16A884201D82548046026480068AF
:10128000401C2549086008460068606494F82C10EA
:101290000120884021490968084320490860E16A23
:1012A00001EB81011E4A02EB81014868A06082685F
:1012B000E260211D826851608160E16A01EB810179
:1012C000174A02EB81026261E16A01EB8101144A73
:1012D00052F82110491CE26A02EB8202104B43F8DB
:1012E000221000F089FD0B48006868B108480068CA
:1012F000C06AE16A884207D24FF08050094908600D
:10130000BFF34F8FBFF36F8F10BD00003000002080
:10131000200000203C0000204C000020380000206D
:10132000E000002004ED00E010B500F053FD10488F
:101330000068D0B90F4800F017FD0F4800F014FD09
:101340000C480E4908600C480D4908600022102125
:10135000052000F061FF064908600846006820B1DA
:1013600008A10348006800F099FD00F045FD10BD9C
:1013700068000020C4030020D80300206000002083
:1013800064000020546D72510000000010B516E09A
:1013900000F020FD0C48C068C468201D00F0D0FC9F
:1013A0000A480068401E0949086009480068401E54
:1013B0000749086000F020FD204600F05FF804486F
:1013C00000680028E4D110BD9C03002030000020FC
:1013D0002C00002070B504460D46206C70B1216CC5
:1013E000E0680144E160D4E90210884201D3216839
:1013F000E1602846226CE168FEF732FF70BD2DE9FE
:10140000F04104460F4615464FF00008A66B206CCD
:1014100048B9206800282CD1A06801F031F9804635
:101420000020A06025E07DB93946226C6068FEF797
:1014300017FF216C606808446060D4E901018842AC
:1014400017D32068606014E03946226CE068FEF72C
:1014500007FF216CE068411AE1602168E06888427A
:1014600003D2216CA068411AE160022D01D106B1BE
:10147000761E701CA0634046BDE8F08110B504469E
:10148000206B00F0C9FC204600F0C6FC10BD000037
:101490000146084A126812680AB9012200E00022D7
:1014A0000A600A6822B9034A1268D268106800E02C
:1014B000002070476000002030B54FF420531748DB
:1014C00000F007042CB1C01D20F00700134C041BD2
:1014D0001B1B0246124C22600024114D6C60D01878
:1014E000083820F007000F4C206000240D4D2D68B7
:1014F0006C600C4D2D682C601146441A4C60094CF0
:1015000024680C60084D4C682C60084D4C682C60B9
:101510004FF00044064D2C6030BD0000EC0300206D
:10152000740000207C000020840000208000002047
:101530009000002000BFFFF729FF0648006801283F
:10154000F9D94FF0805004490860BFF34F8FBFF3C3
:101550006F8FF0E7E000002004ED00E02DE9F0419E
:1015600006460D4617469846069C0DB9246000E0D5
:101570002760E66325640121204600F073FE84F8AD
:1015800050800020A064BDE8F0812DE9F05F814625
:101590000E4690469A460A9F0C9C4FEA8801A52267
:1015A000206BFEF7A2FEA8F10100216B01EB800B7E
:1015B0002BF0070B86B1002507E0715D04F13400C4
:1015C0004155705D00B902E06D1C102DF5D300BFD0
:1015D00000214320015502E0002084F83400202F30
:1015E00000D31F27E762E76400202065201D00F07C
:1015F000C8FB04F1180000F0C4FB2461C7F120000F
:10160000A06164620020606584F8580084F8590085
:1016100052464946584600F0F5FA20600B9808B14A
:101620000B980460BDE8F09F10B5002407E004EBC0
:1016300084010F4A02EB810000F096FB641C202C11
:10164000F5D30C4800F090FB0B4800F08DFB0B48E5
:1016500000F08AFB0A4800F087FB0A4800F084FB90
:1016600004480949086004480849086010BD0000A2
:10167000E0000020600300207403002088030020A5
:101680009C030020B003002024000020280000203C
:1016900010B50146164800E0006803688B42FBD392
:1016A0000246436813448B4204D143684C68234488
:1016B000436001460A464B6813440468A34211D1B3
:1016C0000C4C03682468A34208D04B680468646823
:1016D00023444B6003681B680B6005E0054B1B68E7
:1016E0000B6001E003680B60884200D0016010BD10
:1016F000740000207C0000202DE9F04104460D46D6
:1017000016461F464FF0000865602461B5420CD8AC
:10171000F01BA169884202D34FF0010811E0211D9E
:101720000948006800F030FB0BE0BE4204D2BD4225
:1017300002D34FF0010804E0211D0448006800F0C6
:1017400023FB4046BDE8F0816400002060000020DB
:1017500070B5054600F03EFBA86B08B9012400E017
:10176000002400F049FB204670BDF1B50098846C60
:101770000026A06BE16B88421BD294F945500022F1
:1017800069462046FFF73BFE0646681C60B9606A62
:1017900008B9012000E0002050B904F1240000F055
:1017A000C5FF28B1012603E0681C40B284F845005B
:1017B00000BF3046F8BD000070B505460E460E4825
:1017C0000068C068C468201D00F0BAFA94F82800C8
:1017D00000F0040028B132462946204600F0D0F837
:1017E00005E094F8280000F0FE0084F82800204668
:1017F000216A884770BD00006000002070B586B087
:1018000077E00298002805DA03AED6E90020B16837
:10181000904700BF029800286BDB049C606908B900
:10182000012000E0002010B9201D00F089FA01A875
:1018300000F0D2F8054602980A2858D2DFE800F0F6
:101840005705072E364706082F3700BF00BF00BFD9
:1018500094F8280040F0010084F828000398A26959
:10186000811803462A462046FFF746FFA8B194F8A0
:10187000280000F0040038B10398A26981182A46B4
:10188000204600F07DF805E094F8280000F0FE0006
:1018900084F828002046216A884729E000BF94F890
:1018A000280000F0FE0084F8280021E000BF94F832
:1018B000280040F0010084F828000398A061A06986
:1018C00041192B462A462046FFF716FF10E094F8F0
:1018D000280000F0020018B9204600F09DFA05E04B
:1018E00094F8280000F0FE0084F8280000E000BF13
:1018F00000BF002202A90448006800F003FD002890
:101900007FF47FAF06B070BD68000020F8B50546D3
:101910000C4600F015FC684600F05EF8064600989C
:1019200020BB44B9B54206D800F084FF31462846B2
:10193000FFF742FF1CE03CB10E480068006808B9A0
:10194000012000E000200446A91B22460A48006846
:1019500000F0C8FA00F06EFF50B94FF08050074910
:101960000860BFF34F8FBFF36F8F01E000F062FF9D
:10197000F8BD0000640000206800002004ED00E0D5
:1019800070B504460D46164604E0A069054420469D
:10199000216A8847A06941192B4632462046FFF745
:1019A000ABFE0028F1D170BD09480068006808B995
:1019B000012000E0002020B14FF0FF300549086011
:1019C00005E003480068C068006802490860704785
:1019D000240000205000002070B5044600F082FD75
:1019E000054607480068854204D200F00BF8012044
:1019F000206001E00020206001480560284670BD9D
:101A00007000002070B508E00D480068C0680468E8
:101A10004FF0FF312046FFF7CFFE0948006800680D
:101A200008B9012000E000200028EDD00448056836
:101A300004480068024908600248056070BD000063
:101A4000600000206400002000BF502080F3118857
:101A5000BFF34F8FBFF36F8F00BF00BFFEE708B526
:101A600000BF6846FFF714FD044620460099FFF7C3
:101A70004DFFFFF7C3FEF4E770B5044600F0AAF986
:101A800094F9455019E0A06C30B12046FFF76DFE87
:101A900088B100F0DDFA0EE0606A08B9012000E0CC
:101AA000002038B904F1240000F040FE18B100F025
:101AB000CFFA00E003E0681E45B2002DE3DC00BF72
:101AC000FF2084F8450000F097F900F083F994F9BD
:101AD000445010E0206908B9012000E0002048B916
:101AE00004F1100000F022FE08B100F0B1FA681E07
:101AF00045B200E001E0002DECDC00BFFF2084F8DF
:101B0000440000F079F970BD2DE9F04104464FF032
:101B1000000800F015FB3548006808B9FFF7CCFC59
:101B200033480068204000285BD1B4B104F10800BC
:101B3000A04212D9083404F0070078B104F007007D
:101B4000C0F108002044A04205D904F00700C0F10C
:101B50000800044402E0002400E00024002C40D0EF
:101B60002448006884423CD8234E3046056801E092
:101B70002E462D686868A04202D228680028F7D156
:101B80001A48006885422CD0306800F1080828689F
:101B900030606868001B102807D92F196868001B7F
:101BA00078606C603846FFF773FD12496868096811
:101BB000081A1049086008460068104909688842F8
:101BC00003D20C4800680D49086009496868096833
:101BD000084368600020286009480068401C0849E4
:101BE000086000F027FE4046BDE8F0817C00002040
:101BF000900000208000002074000020840000205D
:101C000088000020001F4FF080730360001F21F048
:101C100001030360001F034B036014380260203887
:101C200070470000491A00081CB5044600F0D2F8BD
:101C30000D48032100238022CDE900100BA10D489F
:101C400000F020FC0C48022100238022CDE9001086
:101C50000AA10C4800F016FC0B48006800F082F95D
:101C600000F0CAF81CBD0000040000207461736B12
:101C7000310000008D1C0008080000207461736BA7
:101C800032000000A51C00080000002009E0FFF75A
:101C9000B7F8C82000F04CF9FFF7A8F8C82000F00A
:101CA00047F9F4E708B54FF6FF74002537E04FF623
:101CB000FF70844208D11F244FF6E0701849088055
:101CC0001F201849088008E04FF6FF744FF4784051
:101CD000134908802046134908802046FEF782FCFD
:101CE0007C231A4603210846FEF712FD01200EA3AD
:101CF0001022192100900A20FEF7A0FF01200EA358
:101D00001022322100900A20FEF798FF10202A4668
:101D10006D1C0523322100903E20FEF737FFC6E7F9
:101D2000980000209A0000205461736B32204C43CD
:101D300044205465737400004672616D653A00007A
:101D400001460A69D1E901309860D1E90103586080
:101D50005068884201D1886850600020086110688E
:101D6000401E10601068704700F1080141604FF09C
:101D7000FF31816000F10801C16001610021016053
:101D8000704700210161704710B502460B685C1C6A
:101D90000CB9106907E002F1080000E040684468EF
:101DA00024689C42FAD944684C604C68A160886001
:101DB00041600A611468641C146010BD42684A6086
:101DC00093688B60936859609160086103685B1C3D
:101DD0000360704700BF502080F31188BFF34F8F1E
:101DE000BFF36F8F00BF03480068401C01490860C3
:101DF000704700009400002006480068401E054916
:101E000008600846006820B9002080F3118800BFF0
:101E100000BF70479400002070B506463546FEB1FD
:101E2000083D2C460F49606809680840C0B1206829
:101E3000B0B90C49606809688843606000F080F9B7
:101E40000949606809680844074908602046FFF7A7
:101E50001FFC06480068401C0449086000F0EAFCCA
:101E600070BD000090000020800000208C00002049
:101E700000204FF0E0210861886107480068C00831
:101E80004FF47A71B0FBF1F0401E4FF0E021486151
:101E900003200861704700000C00002010B50246C6
:101EA0000B460021BBB1002012E00D4C04EBC00436
:101EB0006468944203D10A4C04EBC0010AE031B9D2
:101EC000074C54F8304014B9054C04EBC001401CD9
:101ED0000828EAD300BF09B10B604A6010BD0000BA
:101EE000A00000202DE9F04105460E4617462C467D
:101EF000FFF770FF94F94400401C10B9002084F8EB
:101F0000440094F94500401C10B9002084F84500B5
:101F1000FFF772FFA06B28B93A46314604F124005E
:101F200000F0ACF82046FFF7A7FDBDE8F081000007
:101F300070B50446002544B100F002F900212046A6
:101F4000FFF716F900F076FC05463DB94FF08050DA
:101F500003490860BFF34F8FBFF36F8F70BD000060
:101F600004ED00E070B50546FFF734FF15B92948C8
:101F7000006800E028460446201DFFF7E1FE78B91E
:101F8000E06A00EB8000244951F8200040B994F841
:101F90002C10012088402149096881431F480160B5
:101FA000A06A18B104F11800FFF7CAFE1C480068C7
:101FB000401C1B49086017480068844209D1211D54
:101FC0001848FFF7FBFE18480068401C16490860D7
:101FD00006E016480068401E14490860FFF7E4FC5C
:101FE000FFF70AFF0B480068844202D02046FFF743
:101FF00045FA0F48006858B106480068844207D186
:102000004FF080500B490860BFF34F8FBFF36F8FC5
:1020100070BD000020000020E000002038000020FB
:102020004C0000209C0300202C00002030000020E9
:102030003C00002004ED00E0034909680160034909
:10204000096841607047000048000020340000200B
:1020500001200149086070474400002070B5054622
:102060000C460548016818312846FFF78DFE01210E
:102070002046FFF77DF870BD2000002070B50446B3
:102080000E46154660680F490968C8610D498268A7
:1020900009680A620B490968183182685160094968
:1020A000096818318160074909688C622168491CF8
:1020B00021600DB14FF0FF3629463046FFF758F842
:1020C00070BD0000200000201CB5154800210B4603
:1020D0008022CDE9001013A1144800F0D3F9044682
:1020E000012C02D100F054FC0446012C14D100BF95
:1020F000502080F31188BFF34F8FBFF36F8F00BF65
:102100004FF0FF300A49086001200A4908600020AA
:102110000949086000F04CF8084800681CBD000040
:102120005400002049444C450000000035150008CB
:10213000500000203C000020340000205800002007
:1021400002480068401C0149086070475C0000209C
:102150001248006818B10120114908601DE00020F4
:102160000F4908600F480068B0FA80F0C0F11F0105
:1021700001EB81020C4B03EB820042685268426023
:1021800000F108024368934202D1426852684260FB
:102190004268D268054B1A6000BF70475C0000209F
:1021A0004400002038000020E00000202000002033
:1021B00010B50A48006840F47000084908600846F5
:1021C000006840F070400860FFF752FE00200449AC
:1021D0000860FDF7EBFF002010BD000020ED00E0DF
:1021E0009400002010B500BF502080F31188BFF389
:1021F0004F8FBFF36F8F00BF00F07AF918B14FF027
:1022000080500449086000BF002080F3118800BF9F
:1022100010BD000004ED00E02DE9F84304460E4631
:1022200017460025DCB1681EB0FBF4F0B04216D3AF
:1022300004FB06F010F1550F11D804FB06F909F163
:102240005400FFF761FC05464DB1A84608F154085B
:102250003B464246314620460095FFF77FF9284627
:10226000BDE8F8832DE9F04105460E4601272C46CE
:10227000002C41D0E06B00283ED0B91EE06BB1FBD2
:10228000F0F0216C884237D3FFF7A4FDD4E90F1298
:10229000206801FB0200A0600020A063206860604D
:1022A000E06B401E226C216800FB0211E160FF2000
:1022B00084F8440084F845009EB9206908B90120DB
:1022C00000E00020A8B904F1100000F02FFA80B15E
:1022D0004FF080500A490860BFF34F8FBFF36F8FF4
:1022E00007E004F11000FFF73FFD04F12400FFF7C1
:1022F0003BFDFFF781FD00E000273846BDE8F08197
:1023000004ED00E02DE9F74183B005460F464FF09C
:1023100000082C4600BFFFF75DFDA66BF6B13946FD
:102320002046FFF757F8701EA063206908B9012006
:1023300000E0002060B904F1100000F0F7F938B1B6
:102340004FF080502F490860BFF34F8FBFF36F8F5E
:10235000FFF752FD012006B0BDE8F081059818B9DD
:10236000FFF74AFD0020F6E7B8F1000F04D101A8FD
:10237000FFF762FE4FF00108FFF73EFDFFF7E0FEBA
:10238000FFF728FD94F94400401C10B9002084F8A0
:10239000440094F94500401C10B9002084F8450021
:1023A000FFF72AFD05A901A800F02EF8F0B9204694
:1023B000FFF7CEF9A0B104F124000599FFF74EFE16
:1023C0002046FFF759FB00F035FA0028A3D14FF063
:1023D00080500C490860BFF34F8FBFF36F8F9AE7AF
:1023E0002046FFF749FB00F025FA94E72046FFF767
:1023F00043FB00F01FFA2046FFF7AAF900288AD015
:102400000020A8E704ED00E070B506460C46FFF793
:10241000E1FC194802687068131A1848006890F8BF
:10242000590030B100201549096881F8590001258B
:102430001EE02068401C08B9002519E010493068EA
:102440000968884206D07068904203D801250020B0
:1024500020600DE02068984207D92068C01A2060EB
:102460003046FFF7E9FD002502E00020206001254D
:10247000FFF7C2FC284670BD340000202000002079
:10248000480000202DE9FF4F85B080468946174659
:10249000DDE912ABB800FFF737FB064656B15C200A
:1024A000FFF732FB04460CB1266304E03046FFF729
:1024B000B3FC00E000247CB10020CDE900ABCDE905
:1024C00002403A4649464046089BFFF75EF82046E0
:1024D000FEF7B4FE012501E04FF0FF35284609B0B4
:1024E000BDE8F08F01490868704700003400002003
:1024F0002DE9F04100275748006800287ED1564852
:102500000068451C544805608DB95448D0F80080D7
:1025100053480068514908605148C0F8008051484C
:102520000068401C4F490860FFF73EFA00BF4E4864
:102530000068854276D300BF48480068006808B943
:10254000012000E0002020B14FF0FF304649086034
:1025500067E042480068C068C4686668B54202D255
:10256000414806605DE06069D4E902128A60D4E9FE
:1025700002214A60211D42688A4201D1E16841601E
:10258000002262610168491E0160A06A98B1A06AD8
:10259000D4E907128A60D4E907214A6004F11801DE
:1025A00042688A4201D1216A41600022A262016828
:1025B000491E016000BF94F82C10012088402B496F
:1025C0000968084329490860E16A01EB8101284A4A
:1025D00002EB81014868A0608268E260211D826888
:1025E00051608160E16A01EB8101214A02EB8102C5
:1025F0006261E16A01EB81011D4A00E022E052F8CC
:102600002110491CE26A02EB8202194B43F82210A6
:102610001849E06A0968C96A88428DD301278BE7A7
:1026200000E000BF13480068C06A00EB800010495A
:1026300051F82000012800D901270F48006800B197
:10264000012704E00D480068401C0C49086038462A
:10265000BDE8F0815C000020340000202400002050
:1026600028000020480000205000002038000020F2
:10267000E000002020000020440000204000002056
:1026800070B505462C460026002D48D0206D401E12
:102690002065E16CE06A884241D0206D00283ED17F
:1026A000201DFFF74DFB40B994F82C100120884005
:1026B0001C49096881431B480160E06CE062E06AE4
:1026C000C0F12000A06194F82C1001208840154929
:1026D0000968084313490860E16A01EB8101124A65
:1026E00002EB81014868A0608268E260211D826877
:1026F00051608160E16A01EB81010B4A02EB8102CA
:102700006261E16A01EB8101074A52F82110491C1C
:10271000E26A02EB8202044B43F8221001263046A3
:1027200070BD000038000020E000002070B50346B6
:10273000D868C168886AD1E90745A560D1E907541E
:10274000656001F118044568A54201D10C6A446036
:1027500000258D620468641E04603048006800280B
:102760003DD14869D1E90245A560D1E902546560CF
:102770000C1D4568A54201D1CC68446000254D611F
:102780000468641E046091F82C400120A040244C91
:1027900024682043224C2060CC6A04EB8404214D41
:1027A00005EB8404606888608568CD600C1D8568D1
:1027B0006C608460CC6A04EB84041A4D05EB8405DC
:1027C0004D61CC6A04EB8404164D55F82440641C1A
:1027D000CD6A05EB8505134E46F8254010E0124CF6
:1027E0006068C86185680D6201F1180485686C60D5
:1027F00084600D4D8D622C462468641C2C6000BFE3
:102800000A4CC86A2468E46AA04204D90122012063
:10281000074C206000E00022104670BD5C000020E4
:1028200038000020E0000020880300202000002065
:102830004400002070B500240026FFF7CBFA4B4877
:102840000068401E494908600846006800287DD19C
:1028500047480068002879D05BE04648C068C468F3
:10286000A06AD4E907128A60D4E907214A6004F11A
:10287000180142688A4201D1216A41600022A262A5
:102880000168491E01606069D4E902128A60D4E9D6
:1028900002214A60211D42688A4201D1E1684160FB
:1028A000002262610168491E016094F82C10012029
:1028B00088403149096808432F490860E16A01EB03
:1028C00081012E4A02EB81014868A0608268E260C3
:1028D000211D826851608160E16A01EB8101274A14
:1028E00002EB81026261E16A01EB8101234A52F845
:1028F0002110491CE26A02EB8202204B43F82210AD
:102900001F49E06A0968C96A884202D301201D494B
:1029100008601848006808B9012000E0002000287D
:102920009BD00CB1FFF740F81748056865B100BFB0
:10293000FFF7DEFD10B10120124908606D1E002D69
:10294000F6D10020104908600E4800E009E0006858
:1029500038B1012630070D490860BFF34F8FBFF330
:102960006F8FFFF749FA304670BD00005C00002011
:10297000300000208803002038000020E000002004
:1029800020000020440000204000002004ED00E072
:102990001CB50024FEF7C8FC0848006858B1084878
:1029A0001F2100234FF48072CDE9001005A10748D4
:1029B000FFF768FD044620461CBD000068000020AB
:1029C0006C000020546D7220537663005F1A00087B
:1029D00000000000000000000000000000000404EF
:1029E000040404040004000000140A0A00000000AB
:1029F00000000000000014143F140A3F0A0A0000FF
:102A000000041E1505060C14150F04000000121515
:102A10000D0A142C2A1200000000040A0A1E1515C3
:102A20000936000000020201000000000000000062
:102A300000201008080808080810200000020408F8
:102A4000080808080804020000000004150E0E150E
:102A50000400000000000404041F0404040000003B
:102A60000000000000000000000202010000000061
:102A7000001F000000000000000000000000000037
:102A8000000200000010080808040402020201000D
:102A900000000E1111111111110E000000000406AA
:102AA00004040404040E000000000E1111080402C6
:102AB000011F000000000E11100C1010110E00007C
:102AC0000000080C0A0A091E0818000000001F0177
:102AD000010F1010110E000000000E09010F11115E
:102AE000110E000000001F09080404040404000083
:102AF00000000E11110E1111110E000000000E1138
:102B000011111E10120E0000000000000400000051
:102B100000040000000000000004000000040400A5
:102B2000002010080402040810200000000000002B
:102B30001F00001F00000000000204081020100801
:102B40000402000000000E1111080404000400003B
:102B500000000E111915151D011E000000000404CF
:102B60000C0A0A1E1233000000000F12120E12127D
:102B7000120F000000001E1101010101110E0000E2
:102B800000000F1212121212120F000000001F128A
:102B90000A0E0A02121F000000001F120A0E0A028B
:102BA0000207000000001C1201013911120C000084
:102BB00000003312121E12121233000000001F0414
:102BC00004040404041F000000003E08080808086C
:102BD00008090700000037120A060A0A1237000027
:102BE0000000070202020202223F000000001B1B3D
:102BF0001B1B15151515000000003B1216161A1A9E
:102C00001217000000000E1111111111110E000019
:102C100000000F12120E02020207000000000E1147
:102C200011111117190E180000000F12120E0A12BE
:102C30001237000000001E1101060810110F0000DD
:102C400000001F1504040404040E000000003312E9
:102C500012121212120C000000003312120A0A0C97
:102C60000404000000001515150E0A0A0A0A0000E7
:102C700000001B0A0A04040A0A1B000000001B0AC9
:102C80000A040404040E000000001F0908040402E2
:102C9000121F0000001C04040404040404041C00AB
:102CA000000202020404080808100000000E0808D0
:102CB0000808080808080E0000040A0000000000C8
:102CC0000000000000000000000000000000003FC5
:102CD00000040000000000000000000000000000F0
:102CE000000C121C123C000000000302020E121223
:102CF000120E000000000000001C1202021C000066
:102D000000001810101C1212123C000000000000FD
:102D1000000C121E021C000000003804041E0404F3
:102D2000041E000000000000003C120C021E221CC9
:102D300000000302020E121212370000000004000D
:102D400000060404040E000000000800000C08083F
:102D50000808080700000302023A0A0E12370000B2
:102D60000000070404040404041F00000000000025
:102D7000000F15151515000000000000000F1212BD
:102D80001237000000000000000C1212120C0000AC
:102D900000000000000F1212120E020700000000D7
:102DA000001C1212121C103800000000001B06024A
:102DB0000207000000000000001E020C101E0000B0
:102DC00000000004040E04040418000000000000C9
:102DD000001B1212123C0000000000000037120A13
:102DE0000C040000000000000015150E0A0A000087
:102DF00000000000001B0A040A1B00000000000085
:102E00000037120A0C04040300000000001E08042E
:102E1000041E000000180808080408080808180024
:102E20000808080808080808080808080006040434
:102E30000408040404040600022518000000000031
:102E40000000000000000000000000000000000082
:102E5000000000000000000808080808080800003A
:102E60001818000000486C24120000000000000048
:102E7000000000000000002424247F1212127F12A0
:102E8000121200000000081C2A2A0A0C1828282AFE
:102E90002A1C080800000022251515152A5854542C
:102EA000542200000000000C1212120A762529118B
:102EB000916E000000060604030000000000000000
:102EC0000000000000402010100808080808081042
:102ED0001020400000020408081010101010100804
:102EE000080402000000000008086B1C1C6B0808A6
:102EF0000000000000000000080808087F0808081B
:102F000008000000000000000000000000000000B9
:102F1000060604030000000000000000FE000000A0
:102F200000000000000000000000000000000000A1
:102F30000606000000008040402020101008080411
:102F4000040202000000001824424242424242426F
:102F500024180000000000080E08080808080808E7
:102F6000083E00000000003C4242422020100804BD
:102F7000427E00000000003C4242201820404042B7
:102F8000221C0000000000203028242422227E2061
:102F9000207800000000007E0202021A2640404213
:102FA000221C0000000000382402021A264242427D
:102FB000241800000000007E2222101008080808D3
:102FC000080800000000003C42424224182442420B
:102FD000423C000000000018244242426458404035
:102FE000241C000000000000000018180000000071
:102FF0001818000000000000000000080000000099
:103000000008080400000040201008040204081012
:10301000204000000000000000007F0000007F0052
:1030200000000000000000020408102040201008EA
:10303000040200000000003C424246402010100004
:10304000181800000000001C225A555555552D42F5
:10305000221C00000000000808181414243C22421E
:1030600042E700000000001F2222221E22424242AC
:10307000221F00000000007C4242010101010142C8
:10308000221C00000000001F2242424242424242F3
:10309000221F00000000003F4212121E12120242C4
:1030A000423F00000000003F4212121E12120202B4
:1030B000020700000000003C2222010101712122D0
:1030C000221C0000000000E7424242427E4242428F
:1030D00042E700000000003E080808080808080849
:1030E000083E00000000007C10101010101010109E
:1030F0001010110F0000007722120A0E0A1212227D
:10310000227700000000000702020202020202020F
:10311000427F000000000077363636362A2A2A2AF7
:103120002A6B0000000000E346464A4A52525262AF
:10313000624700000000001C2241414141414141E1
:10314000221C00000000003F424242423E020202B6
:10315000020700000000001C2241414141414D5343
:10316000321C60000000003F4242423E1212222206
:1031700042C700000000007C424202041820404286
:10318000423E00000000007F4908080808080808BF
:10319000081C0000000000E7424242424242424214
:1031A000423C0000000000E742422224241414188C
:1031B000080800000000006B49494949555536226E
:1031C00022220000000000E74224241818182424BA
:1031D00042E70000000000772222141408080808C3
:1031E000081C00000000007E21201010080404428A
:1031F000423F000000780808080808080808080886
:1032000008087800000002020404080808101020D2
:1032100020204040001E1010101010101010101030
:1032200010101E00003844000000000000000000E4
:10323000000000000000000000000000000000008E
:10324000000000FF00060800000000000000000071
:1032500000000000000000000000003C42784442F2
:1032600042FC0000000000030202021A2642424211
:10327000261A00000000000000000038440202028C
:103280004438000000000060404040784442424220
:1032900064D80000000000000000003C427E0202F2
:1032A000423C0000000000F08808087E080808087A
:1032B000083E0000000000000000007C22221C02EA
:1032C0003C42423C000000030202023A46424242B3
:1032D00042E700000000000C0C00000E080808087F
:1032E000083E000000000030300000382020202080
:1032F0002020221E0000000302020272120A16128F
:10330000227700000000000E0808080808080808D6
:10331000083E0000000000000000007F92929292A0
:1033200092B70000000000000000003B464242420D
:1033300042E70000000000000000003C4242424220
:10334000423C0000000000000000001B26424242F8
:10335000221E0207000000000000007844424242A2
:10336000447840E000000000000000774C040404B2
:10337000041F0000000000000000007C42023C40EE
:10338000423E0000000000000008083E080808084F
:10339000083000000000000000000063424242428A
:1033A00062DC000000000000000000E7422424145A
:1033B0000808000000000000000000EB49495555D6
:1033C00022220000000000000000007624181818D7
:1033D000246E000000000000000000E742242414D6
:1033E00018080807000000000000007E22100808EE
:1033F000447E000000C0202020202010202020201B
:103400002020C000101010101010101010101010FC
:10341000101010100006080808080810080808080E
:10342000080806000C32C200000000000000000086
:1034300000000000C9EE000027FC140414A4811051
:1034400042084040104017FC2040E0E02150224854
:103450002C4620400040DBDA1104112411241124F1
:103460001124FD24112411241124112411241D24BC
:10347000E124422402040404CAD002000100000036
:103480007FFC0100010001003FF82108210821080C
:1034900021082128211001000100C8AB0000000014
:1034A000018002400430180860061FF90100010085
:1034B00001003FF80100010001007FFEB6AF0000EF
:1034C000000000203E20007C002200227F221022EB
:1034D000102212221222224223423D82009CB5E792
:1034E0000000010001001FF0610C410441047FFC59
:1034F0004104410441047FFC01000102010201FC7E
:10350000D7D3000000003FF80010006000800100E9
:1035100000807FFE00400040002000200020184076
:103520000780BCBC10201020102013FEFC201020AF
:10353000102015FC18843088D048105010201050EE
:1035400051882606CAF501000120011001107FFCF8
:103550000380054005400920111021084104810223
:10356000010001000100D3D002000200FFFE0400B0
:1035700004000FF0081018102FF0481088100FF0FA
:103580000810081008500820CFDE00007BF84A0819
:10359000520853F8620852084BF84A444A486A30C5
:1035A00052204210428843064200B9AB008004809A
:1035B00004800840084010202010420882060400C1
:1035C0000440082010203FF010100000CBBE000087
:1035D0003FF8000800087FE8000800081F881088EE
:1035E0001088108810881F88108800280010BBB62B
:1035F00000800080FC8004FC050449082A40144037
:10360000104028A024A045108110020804040802DC
:10361000D3AD00002080133C122402240224F224A3
:103620001224122412B4132812201020282047FE3E
:103630000000C4FA0900090011FC320454489950F2
:1036400011481244144411401080020051045112D8
:1036500090120FF0B4BF00000020102013FE2020B5
:1036600026244A247A241224222423FC7C200022AB
:1036700004227822003CC9AB0000000004000FF0D7
:10368000102020207FFC20842084208420843FF888
:103690002000200220021FFECCEE0000000020408F
:1036A00023FE204079FC220423FC220423FC220474
:1036B00023FC3A0465FA01980204B3E40000010017
:1036C00001007FFE02200410040808043FFC0442AD
:1036D00004400440044208421042607EBED800000C
:1036E0000000207E3E804880488048FE48827F82DD
:1036F00008820C8214FA12842280218040FED0CEEF
:10370000000000007F842208223022C0220222040E
:103710007FC8223022C222022204220822304040E6
:10372000BBAD000000007FFE00000FF01110111073
:10373000111051125FF25112511251124FF2400208
:103740007FFCD4B2000000007FFE47E2481248121E
:1037500047E24FF2501250125112511242924472EB
:10376000580A3FFCCDBC000000003FFE440247F277
:103770004C225362408243625E1A4182406243029D
:1037800040C240223FFCC6AC000000402040204028
:1037900020403FFE2000200020003FE020102010AD
:1037A0002010201040104010CFD4000000003FFC3B
:1037B000200420043FFC200420041FF82444144863
:1037C000144814480C5004407FFECABE000000009C
:1037D0003FFC0000000000007FFE00800890088889
:1037E000108810842084208240820780B2CB0000A1
:1037F000002008207FFE002000783F8811080890F4
:1038000009207FFE018003400D30310C4002B5A538
:1038100000000010081004203FF8210421043FFCA0
:10382000210421043FF801007FFE01000100010096
:10383000D6D000000100010001003FFC210421045A
:1038400021042104210421043FFC010001000100A6
:103850000100D3A20000000008207FFE08200920FC
:1038600001003FF82108210821081FF4014002202F
:103870000C10700ECEC400000100010000803F7CDF
:10388000081008100410042002200240018001806A
:1038900002601C18E006D7DB00000000102011FEBB
:1038A0002202220249FC5800300013FE2528792408
:1038B00001240D24722202A2BACF00000000018070
:1038C00002400430180860061FF800001FF82004AA
:1038D00020042004200420041FF8C1C100000100BE
:1038E00001007FFE00003FF820083FF83FF8400647
:1038F00047C24824082008221022603EB6C80000B3
:10390000000000803FFE44105FFC4410441043F070
:1039100040005FF84408423041C04360BC1EB2E240
:103920000000000067C2145205520552C5522552CC
:103930000552055215521752228222424442483EF5
:10394000CAD4000000002014101417FE001200104A
:10395000601013F0109010901090149214EA1F0A47
:103960000006B3CC0000000019FE7202120212021F
:103970007DFC18001BFE3420502053FE1020102028
:10398000102013FED0F20000000000803FFE400037
:1039900047FC4208413040C05FFE40424042404444
:1039A000404840404440B5F70000000023FE12228A
:1039B00002FA0222E22212FE1272128A128A128A7B
:1039C00016BA1A421202040EB9E200000100010404
:1039D00011080908091009207FFE04400440044032
:1039E0000440084208421042607CB0E6000000003B
:1039F00048FE4900490049007EFE41824144794425
:103A0000452845284510452846440382C8A800009B
:103A10001000100013FC7D0411041904188434886C
:103A20005048505010201050108813041402CBF945
:103A3000000000003F7C204020403E40227E224487
:103A4000224422443E842084208440844104420451
:103A5000C6C100003FF8200820083FF824102220AB
:103A60002FF8222022203FFC2220422044208420C4
:103A70000820C4BB04407FFC04401FF010101FF05E
:103A800010101FF00400FFFE11103FF8D116115066
:103A900011200100D0FD2080108010FE0100FE00EA
:103AA00021FC20243C2424A024A024BC24A024A065
:103AB0004560553E8A00D7AA202020202020FDFC0A
:103AC0004020504093FEFC40108011FC1C04F08804
:103AD0005050102010101010BFAA00007FFC0820CA
:103AE0000820082008200820FFFE082008200820C1
:103AF00008201020102020204020D4B4000027FEF1
:103B00001420144085FC450445FC150415FC2524AF
:103B1000E42024A829242A2230A00040D2BA008020
:103B2000204017FE11208120423C4244166412942A
:103B30002348E24822302220225022880306BEA7D2
:103B40000FE0082008200FE0082008200FE0000008
:103B50007EFC428442847EFC428442847EFC428419
:103B6000CDF800007FFC40044004421452944A54B3
:103B7000442444244A544A54529461044004401456
:103B80004008D5BE1020082008207E20003E0420DA
:103B90004420442025FC290429040F04F104410495
:103BA00001FC0104B0B410401020102013FEFA02F2
:103BB000144410401BFE3088D088110810D010200B
:103BC000105050882304BCFC201020103B7C211492
:103BD00041FE7A14A27C2710F97C251025FE2210C4
:103BE0002A10350028FE0000D0A31040102010201D
:103BF00011FEFC00108831043A025488508890501D
:103C000010501020105010881306D7BC01404120DE
:103C1000212023FE022016201BFC1220222023FC40
:103C2000E2202220222023FE22000200B4A5202030
:103C30002020782049FC91247D24552455247DFCA6
:103C4000552454207C28542457FE45028C00C3FE82
:103C50001110111017FC1110FC0013F8120817F8BE
:103C60001A0833F8D04017FC10A01110520824068F
:103C7000C9EE0000000000001000000800080C7FE2
:103C8000FC04401001C8A00218604230183223180A
:103C900012C30014030004030C047FF0080F800813
:103CA0000B4078136018332018631818831C19030D
:103CB00008180300000300000000DBDA0000000029
:103CC000000004100C04180C04108C04108C041058
:103CD0008C04108C04D08C3F108C04108C04108C3D
:103CE00004108C04108C04108C04108C05F08C0EC5
:103CF000208C78208C20408C00808C01000C0200ED
:103D00000C000000CAD000000000000000300000DD
:103D1000180000180800001C1FFFE0001800001821
:103D20002007FFF00418200418200418200418208D
:103D30000418200418200418200418200418200453
:103D400018E0041840001800001800000000D6D049
:103D5000000000000000000000000000001800004B
:103D600018000018000018003FFFFE301806301839
:103D7000063018063018063018063FFFFE301806C9
:103D800000180000180000180000180000180000BB
:103D90000000000000000000CEC400000000000091
:103DA000000000003800001C00000600FFFFFF06B6
:103DB00000300600300300600300600180C000C1D5
:103DC0008000E300003600001C0000770003C1E023
:103DD0001E003C6000070000000000000000000022
:103DE0000000B2E20000000000000000000000003F
:103DF00040000321FF33398333118333019B33C1E7
:103E00009B33719B33199B33019B33019B33119B74
:103E10003319B333303033306C0330C6036383035C
:103E20002E01BE000000000000000000CAD4000007
:103E3000000000000000000000004000D83000CE6C
:103E40001800C21C00C001FFFF0000C0F800C0182D
:103E500000C019FFC01818401818601918601B1806
:103E6000611E18311C1FB139F01910000F0000003D
:103E7000000000000000D7D600000000000600008F
:103E8000000300000000C0000001C0C0000107C026
:103E90000001FF00021FFE0007F01C0007C07000B9
:103EA0000F00E0000E03F0001C0FF0003C0F70004C
:103EB0003C00E0001800C0000000C0000000C0008E
:103EC0000000600000002000000037000001FF003B
:103ED000007FF80007F830001F80300000803000BD
:103EE00000C03000006060000018E000000FC0005B
:103EF0000006000000000000CCE50000000000000B
:103F00000000000000C0000000E0002001B80070C8
:103F10003FF80061FFC000C3030001C60600038C28
:103F2000060003080C0006080C000E18183F1E10AF
:103F30001BF31F903F0700803C1C0190707C019098
:103F400060FE01A0C3F801A00FD803A00818036009
:103F500000180340001803C0001803800018030075
:103F600000180000001800000010000000300000E1
:103F700000300000000000000000B2E2000000007D
:103F8000000000000000000000000000020C10080B
:103F9000071FF80403BFF00201BC300303EC300339
:103FA000015C600300D8600300D86003809862035E
:103FB00061B8430771B14306313243063376C30615
:103FC0003A64C7063EECC0063E78C0063C30400668
:103FD0007C70000678E060067BFFF006F7C0000604
:103FE000E400000640000006000000060000007C1F
:103FF00000008FF000007C0000000000CAD4000028
:104000000000000000000000000000003F00000071
:104010007F8000000180000000C0000000C00000A0
:1040200000CE038000CFFFC000DD41800FFE0007FF
:10403000FFFC000C00F000180FC03E19FF40F31108
:10404000BC6083307FE003B1FE2003338020037027
:104050000030036000100360001807C0000C07C0A8
:1040600000040780000201000003000000010000BE
:104070000000000000000000000000000000000040
:10408000A040000800000020A00000002801000857
:1040900040410008A0000020C03100004401000899
:1040A00000000000000000000000000000A24A0420
:1040B00000000000000000000102030406070809D8
:1040C00000000000000000000000000000000000F0
:1040D00000000000000000000000000000000000E0
:1040E00000000000000000000000000000000000D0
:1040F00000000000000000001F00000000000000A1
:1041000000000000000000000000000000000000AF
:10411000000000000000000000000000000000009F
:10412000000000000000000000000000000000008F
:1041300000000000AAAAAAAA0000FFFF00000000D9
:04000005080000ED02
:00000001FF
