:020000040800F2
:10000000D03D002035020008311C00086D100008AA
:10001000E91900087D0A0008932900080000000083
:100020000000000000000000000000009D0100082A
:10003000810A000800000000E1010008E525000831
:100040004F0200084F0200084F0200084F0200084C
:100050004F0200084F0200084F0200084F0200083C
:100060004F0200084F0200084F0200084F0200082C
:100070004F0200084F0200084F0200084F0200081C
:100080004F0200084F0200084F0200084F0200080C
:100090004F0200084F0200084F0200084F020008FC
:1000A0004F0200084F0200084F0200084F020008EC
:1000B0004F0200084F0200084F0200084F020008DC
:1000C0004F0200084F0200084F0200084F020008CC
:1000D0004F0200081D2700086D2700084F02000886
:1000E0004F0200084F0200084F02000800F002F81B
:1000F00000F045F80AA090E8000C82448344AAF17D
:100100000107DA4501D100F03AF8AFF2090EBAE87A
:100110000F0013F0010F18BFFB1A43F0010318473B
:100120001C6E00003C6E0000103A24BF78C878C1F5
:10013000FAD8520724BF30C830C144BF04680C60ED
:10014000704700000023002400250026103A28BF35
:1001500078C1FBD8520728BF30C148BF0B60704739
:10016000642900F0DB80752900F0D880732900F045
:10017000C882002070471FB51FBD10B510BD00F02C
:100180000DFB1146FFF7F7FF02F086FC00F02BFB9A
:1001900003B4FFF7F2FF03BC02F0FDFB224B19682A
:1001A0000868B0E8F00F80F30988BFF36F8F4FF055
:1001B000000080F311884EF00D0E70470000000023
:1001C00006480068006880F3088862B661B6BFF32D
:1001D0004F8FBFF36F8F00DF00BF00BF08ED00E05F
:1001E000EFF30980BFF36F8F0F4B1A6820E9F00F10
:1001F000106008B54FF0500080F31188BFF34F8FA7
:10020000BFF36F8F04F0BAFA4FF0000080F311884B
:10021000BDE8084019680868B0E8F00F80F3098865
:10022000BFF36F8F704700BF74000020EFF30580AD
:10023000704700000948804709480047FEE7FEE78D
:10024000FEE7FEE7FEE7FEE7FEE7FEE7FEE7FEE786
:1002500004480549054A064B70470000ED25000893
:10026000ED000008D0370020D03D0020D03900201C
:10027000D0390020704700000FB4044910B503AA1C
:10028000029800F043FA10BC5DF814FB70000020E7
:100290000FB47CB50C0009AA009001D02044401E88
:1002A000084B7B4469460190089800F0F8F9054630
:1002B0001CB10020694600F005FA28467CBC5DF8B8
:1002C00014FB00002904000070B50C460546012A05
:1002D00005D02878800600D5EA69002302E00123D2
:1002E00005E05B1C934202D2E05C0028F9D1A869CA
:1002F000E618C01AA861286A184428622846AFF395
:10030000008004E0D5E9012114F8010B9047B442C4
:10031000F8D32846AFF3008070BD00002DE9F0410E
:100320000646002410687529314616A510D0AFF393
:100330000080002802DA404213A507E031688A07EE
:1003400001D512A502E0490704D511A5012401E059
:10035000AFF3008000210A2206F1240709E0B0FB78
:10036000F2FCB0FBF2F302FB1C003030785418466C
:10037000491C0028F3D123462A463046BDE8F04107
:1003800000F02FB9000000002D0000002B0000003D
:10039000200000002DE9F0410F46054600202862AC
:1003A0002846E968884770B3252805D0D5E901219A
:1003B0009047286A401CF2E7E968284600268847EB
:1003C0006C2804460AD0682C08D04C2C35D06A2CF6
:1003D00031D0742C31D07A2C2FD016E0E968064643
:1003E00028468847B042044608D16C2E23D04FF4EB
:1003F00080662846E9688847044606E06C2E03D0EC
:100400004FF4807601E01EE04026E4B1A4F1410003
:10041000192802D8203446F400663A462146284678
:100420002E60FFF79DFE60B1012808D0FF1D27F068
:1004300007070837B4E78026DBE70026D9E73F1D2A
:10044000AEE72046B2E7286ABDE8F08130B5054640
:100450000B462A4613F8014B12F8010B08B1A042D3
:10046000F8D01CB1002802D06D1CF1E7284630BD41
:1004700010B5431C02E010F8011B71B18107FAD1DD
:100480004FF0013202C88C1A8C4314EAC211F9D021
:10049000C01A0A0603D0C01E10BDC01A10BD0A043F
:1004A00001D0801E10BD0902FCD0401E10BD032AE1
:1004B00040F2308010F0030C00F0158011F8013B81
:1004C000BCF1020F624498BF11F801CB00F8013B68
:1004D00038BF11F8013BA2F1040298BF00F801CB2C
:1004E00038BF00F8013B11F0030300F02181083A06
:1004F000C0F0088051F8043B083A51F804CBA0E85A
:100500000810F5E7121D5CBF51F8043B40F8043BAE
:10051000AFF30080D20724BF11F8013B11F801CBE3
:1005200048BF11F8012B24BF00F8013B00F801CBB4
:1005300048BF00F8012B704702F0FF0343EA032293
:1005400042EA024200F002B84FF000020429C0F073
:10055000128010F0030C00F01B80CCF1040CBCF1F5
:10056000020F18BF00F8012BA8BF20F8022BA1EB47
:100570000C0100F00DB85FEAC17C24BF00F8012B2C
:1005800000F8012B48BF00F8012B70474FF0000224
:1005900000B5134694469646203922BFA0E80C5079
:1005A000A0E80C50B1F12001BFF4F7AF090728BF54
:1005B000A0E80C5048BF0CC05DF804EB890028BFD0
:1005C00040F8042B08BF704748BF20F8022B11F0F9
:1005D000804F18BF00F8012B704770477047704775
:1005E00070472DE9F0470D4699469246044600F1C2
:1005F00024080168880604D5E06921F01001216013
:1006000000E00120A84201DD471B00E00027A169AE
:100610007A1902EB0900081AA0612078C00602D4FA
:100620002046AFF30080002608E0D4E901211AF843
:1006300006009047206A401C761C20624E45F4DB81
:100640002078C0060AD52046AFF3008006E0D4E942
:10065000012130209047206A401C2062381EA7F1FB
:100660000107F4DC07E0D4E9012118F80500904700
:10067000206A401C2062281EA5F10105F3DC2046FB
:10068000AFF300802078000602D50220BDE8F08795
:100690000120FBE701694A1C02610878704700B538
:1006A0008FB0CDE901310021059105497944CDE9AB
:1006B000031011466846FFF76DFE0FB000BD000045
:1006C000E5FFFFFF0A6802F8010B0A607047D1E9F5
:1006D00000239A4202D2531C0B601070704710B571
:1006E000436913B1AFF3008001E0FFF7EDFD012096
:1006F00010BD127800F124010A7000224A70012214
:10070000EDE711684FF0FF32E9E70000074B70B5E5
:100710000D467B44FFF7C3FF0446284600F03AF835
:1007200010B14FF0FF3070BD204670BD3F23000078
:1007300010B5203AC0F00B80B1E81850203AA0E87C
:100740001850B1E81850A0E81850BFF4F5AF5FEAB0
:10075000027C24BFB1E81850A0E8185044BF18C963
:1007600018C0BDE810405FEA827C24BF51F8043B0A
:1007700040F8043B08BF7047D20728BF31F8023B5E
:1007800048BF11F8012B28BF20F8023B48BF00F8F2
:10079000012B7047007B00F080007047754600F029
:1007A0002BF8AE4605006946534620F00700854603
:1007B00018B020B5FFF74CFDBDE820404FF0000613
:1007C0004FF000074FF000084FF0000B21F0070139
:1007D000AC46ACE8C009ACE8C009ACE8C009ACE87C
:1007E000C0098D46704710B50446AFF3008020461F
:1007F000BDE81040FFF7CCBC0048704770370020C0
:1008000010B5002401F002F9282000F00DF800F0E6
:1008100021F8044604F00C000C2804D000F0D5F8B0
:100820000A2000F001F810BD0CB5002101910DE087
:100830000021009103E000BF0099491C009100993C
:10084000B1F5FA5FF7D30199491C019101998142F1
:10085000EED30CBD10B5002401F048F9712001F071
:1008600030F901F0F9F801F006F90446012001F031
:100870001CF901F049F9204610BD00002DE9FC41AA
:1008800000200090019000F0A7F85020FFF7CCFF67
:1008900001F02CF9712001F014F901F0DDF801F0FC
:1008A000EAF88DF80000002001F0FFF801F0E3F80D
:1008B0008DF80100002001F0F8F801F0DCF88DF867
:1008C0000200002001F0F1F801F0D5F88DF80300E6
:1008D000002001F0EAF801F0CEF88DF804000020C5
:1008E00001F0E3F801F0C7F88DF80500012001F0F0
:1008F000DCF801F009F99DF8000000F08000C8BBA9
:10090000002400259DF8010000039DF8021040EA34
:1009100001109DF8031040EA11149DF80300000730
:10092000000B9DF8041040EA01209DF8051040EAF4
:100930000105204604F052FD07464FF0934104F0B4
:100940006FFC06460E4904F091FD0E4908602846EA
:1009500004F044FD80464FF0934104F061FC0746EB
:10096000094904F083FD0646084904F07DFE054967
:10097000486003E0FFE70020BDE8FC810148FBE799
:100980000000C842F4000020000048430000484234
:1009900070B506460C46154601F0A8F8702001F027
:1009A00090F801F059F8304601F08BF801F054F856
:1009B000204601F086F801F04FF8284601F081F852
:1009C00001F04AF801F0A0F870BD10B5002208212E
:1009D000BE20FFF7DDFF10BD10B500223321AC2093
:1009E000FFF7D6FF10BD10B501F010F801F07EF84A
:1009F000462001F066F801F02FF8012001F061F8BF
:100A000001F02AF801F080F80A20FFF70DFF01F04D
:100A10006DF8462001F055F801F01EF8102001F0A5
:100A200050F801F019F801F06FF8B420FFF7FCFE60
:100A300010BD00002DE9F04101F058F8472001F009
:100A400040F801F009F801F016F80446002001F022
:100A50002CF801F010F80546012001F026F801F00D
:100A600053F845EA0426304604F0B8FC074602492C
:100A700004F0D6FBBDE8F0819A99993F00BFFEE7EC
:100A8000704700B5034603E04FF47A7000F005F8B4
:100A9000181EA3F10103F7D100BD00EBC001C9008E
:100AA0004FF0E0225161002191610521116100BFE9
:100AB0004FF0E021096901F480310029F8D00421C8
:100AC0004FF0E0221161704770B504460CB9012067
:100AD00070BD084805880DB90020F9E700200649D7
:100AE000485521460448FFF7B1FC08B10120EFE763
:100AF0000020EDE7FC000020E02D0020002004E0B5
:100B00000021054A1154411C88B2B0F5007FF7DB83
:100B10000021024A11807047E02D0020FC000020D7
:100B200070B5AAB004460D46164600F0B7F910B9E4
:100B300000202AB070BD4FF47A7210A110A000F00E
:100B4000B9F800F049F908B90020F2E723460EA2EF
:100B5000A02102A80095FFF79BFB32460FA102A837
:100B600000F0A8F838B9324604A102A800F0A2F8B3
:100B700008B90020DDE70120DBE700004F4B000053
:100B8000415445300000000041542B43574A415026
:100B90003D222573222C2225732200005749464905
:100BA00020474F542049500010B504460A4604B16E
:100BB0000AB9002010BD08480388934200DD13469F
:100BC000002104E00548405C6054481C81B2994211
:100BD000F8DB1846EEE70000FC000020E02D0020C6
:100BE00005480188B1F5FF7F01DD40F2FF110020CB
:100BF000024A505410467047FC000020E02D0020AF
:100C00000148008870470000FC00002010B586B045
:100C100004460121042001F0BFFB0121480401F03A
:100C2000ABFB0420ADF8140018208DF8170003204A
:100C30008DF8160005A91D4800F05AF90820ADF8F6
:100C4000140004208DF8170005A9184800F050F989
:100C500001940020ADF80800ADF80A00ADF80C00D2
:100C6000ADF810000C20ADF80E0001A9104801F0FD
:100C70001BFE012240F225510D4801F0EFFD262018
:100C80008DF8000007208DF8010001208DF802008A
:100C90008DF80300684600F0CDFF0121044801F003
:100CA0009AFDFFF72BFF06B010BD000000080140C1
:100CB0000044004070B506460C461546FFF71EFF7F
:100CC000304600F07DF804A000F07AF8294620466E
:100CD00000F0F0F870BD00000D0A000010B50446E9
:100CE0002146054801F051FE00BF8021024801F075
:100CF0007EFD0028F9D010BD00440040F0B589B059
:100D000006460C464FF4FA5706B114B9002009B054
:100D1000F0BD23461CA2202101A8FFF7B9FA40F636
:100D2000B8321DA101A8FFF7C5FF08B90020EEE702
:100D3000FFF7E4FE002504E0705DFFF7CFFF681CBD
:100D400085B2A542F8DB18E014A0FFF7BDFE08B19C
:100D50000120DCE713A0FFF7B7FE08B10120D6E7BA
:100D600012A0FFF7B1FE18B912A0FFF7ADFE08B14F
:100D70000020CCE7012000F043F8381EA7F101075E
:100D8000E2D100BFC3E7000041542B434950534513
:100D90004E443D25750000003E00000053454E4482
:100DA000204F4B0052656376000000004552524FC1
:100DB0005200000053454E44204641494C0000007B
:100DC00010B5044603E02078FFF788FF641C207804
:100DD0000028F8D110BD000010B54FF47A7204A1BC
:100DE00004A0FFF767FF08B9002010BD0120FCE751
:100DF0004F4B000041542B43574D4F44453D31006C
:100E000008B50AE00021009103E000BF0099491CE9
:100E100000910099B1F5FA5FF7D3011EA0F101002E
:100E2000F0D108BD30B599B004460D4623460DA259
:100E3000602101A80095FFF72BFA41F2883210A13A
:100E400001A8FFF737FF10B1012019B030BD4FF4F2
:100E50007A720DA101A8FFF72DFF08B10120F4E778
:100E60000020F2E741542B43495053544152543D22
:100E700022544350222C222573222C257500000079
:100E8000434F4E4E45435400414C52454144592036
:100E9000434F4E4E454354454400000010B54FF4B7
:100EA0007A7202A102A0FFF705FF10BD4F4B0000B0
:100EB0004154000070B505460C460EE02846FFF789
:100EC00003FE08B1012070BD07A0FFF7FDFD08B1CA
:100ED0000020F8E70120FFF793FF201EA4F1010492
:100EE000ECD100BFEFE700004552524F5200000026
:100EF0002DE9F041024600250026002000230024B1
:100F0000002791F803C00CF00F0591F803C00CF016
:100F1000100CBCF1000F03D091F802C04CEA05059B
:100F200091F800C0BCF1000F31D0146800202BE014
:100F30004FF0010C0CFA00F3B1F800C00CEA030604
:100F40009E4220D183004FF00F0C0CFA03F7BC43F4
:100F500005FA03FC4CEA040491F803C0BCF1280F25
:100F600006D14FF0010C0CFA00FCC2F814C00AE0E4
:100F700091F803C0BCF1480F05D14FF0010C0CFAF9
:100F800000FCC2F810C0401C0828D1D31460B1F88E
:100F900000C0BCF1FF0F34DD546800202EE000F1EA
:100FA000080C4FF0010808FA0CF3B1F800C00CEA85
:100FB00003069E4221D183004FF00F0C0CFA03F779
:100FC000BC4305FA03FC4CEA040491F803C0BCF1ED
:100FD000280F05D100F1080C08FA0CF8C2F81480AB
:100FE00091F803C0BCF1480F07D100F1080C4FF095
:100FF000010808FA0CF8C2F81080401C0828CED36B
:101000005460BDE8F0810246002093680B400BB1AC
:10101000012000E000207047416170470161704786
:101020000AB1016100E041617047000008B501218B
:10103000082001F0B1F94FF48060ADF800002820DD
:101040008DF8030003208DF8020069460148FFF780
:101050004FFF08BD000C014010B54FF480610248FD
:10106000FFF7D1FF10BD0000000C014000BFFEE7FC
:1010700070B5064613484088401E83B21148008868
:10108000401E82B20021084600F0BEF910200E4931
:10109000086000020D49086000240AE0002503E012
:1010A000304600F0BFFB6D1C06480088A842F7D808
:1010B000641C04484088A042F0D810200249091F4F
:1010C000086070BDD02D002014080140100C0140B4
:1010D00070B504460D462946204600F08BF90248BB
:1010E000008800F09FFB70BDEC0000202DE9F05F50
:1010F00004460D4616461F46301B401C1FFA80FA58
:10110000781B401C1FFA80FB3B463246294620468E
:1011100000F07AF94FF000080FE04FF0000906E008
:101120000A9800F07FFB09F101001FFA80F9D14510
:10113000F6DB08F101001FFA80F8D845EDDB07481F
:101140004088401E83B205480088401E82B20021BC
:10115000084600F059F9BDE8F09F0000D02D0020AE
:1011600008B50121082001F017F94FF4E040ADF86F
:10117000000003208DF8020010208DF8030069465E
:101180000148FFF7B5FE08BD000C014010B500F0A6
:10119000DFFCFFF7E5FF00F019F9112000F0A4FAD9
:1011A0007820FFF76EFCB12000F09EFA012000F0DD
:1011B00083FA2C2000F080FA2D2000F07DFAB22076
:1011C00000F092FA012000F077FA2C2000F074FA77
:1011D0002D2000F071FAB32000F086FA012000F013
:1011E0006BFA2C2000F068FA2D2000F065FA01203F
:1011F00000F062FA2C2000F05FFA2D2000F05CFA7B
:10120000B42000F071FA072000F056FAC02000F078
:101210006BFAA22000F050FA022000F04DFA842070
:1012200000F04AFAC12000F05FFAC52000F044FA4D
:10123000C22000F059FA0A2000F03EFA002000F027
:101240003BFAC32000F050FA8A2000F035FA2A2039
:1012500000F032FAC42000F047FA8A2000F02CFA9D
:10126000EE2000F029FAC52000F03EFA0E2000F032
:1012700023FA362000F038FAC82000F01DFAE020EA
:1012800000F032FA0F2000F017FA1A2000F014FADA
:101290000F2000F011FA182000F00EFA2F2000F0B5
:1012A0000BFA282000F008FA202000F005FA22208E
:1012B00000F002FA1F2000F0FFF91B2000F0FCF9FB
:1012C000232000F0F9F9372000F0F6F9002000F0B3
:1012D000F3F9072000F0F0F9022000F0EDF91020FA
:1012E00000F0EAF9E12000F0FFF90F2000F0E4F946
:1012F0001B2000F0E1F90F2000F0DEF9172000F0CC
:10130000DBF9332000F0D8F92C2000F0D5F92920A2
:1013100000F0D2F92E2000F0CFF9302000F0CCF907
:10132000302000F0C9F9392000F0C6F93F2000F064
:10133000C3F9002000F0C0F9072000F0BDF9032038
:1013400000F0BAF9102000F0B7F92A2000F0CCF92B
:10135000002000F0B1F9002000F0AEF9002000F00C
:10136000ABF97F2000F0A8F92B2000F0BDF9002098
:1013700000F0A2F9002000F09FF9002000F09CF995
:101380009F2000F099F9F02000F0AEF9012000F064
:1013900093F9F62000F0A8F9002000F08DF93A202A
:1013A00000F0A2F9052000F087F9292000F09CF94F
:1013B000002000F0C3F90120034908604FF6FF70D8
:1013C000FFF756FE10BD0000B881214210B54FF462
:1013D0000050074908606420FFF753FB4FF40050AA
:1013E0000349091F08603220FFF74BFB10BD0000C6
:1013F000140C014070B504460D462B462246294682
:10140000204600F001F870BD2DE9F04104460D467C
:1014100016461F461749887A00F066F9002000F04A
:101420004BF91449897B2144C8B200F045F90020EA
:1014300000F042F90F49897B3144C8B200F03CF911
:101440000C49087B00F050F9002000F035F90949FB
:10145000C97B2944C8B200F02FF9002000F02CF914
:101460000449C97B3944C8B200F026F900F054F9A8
:10147000BDE8F081D02D00202DE9FF4F83B08146DB
:101480008A469346DDE91064404800880290A6F140
:101490002000C6B204EBD47009EB6000401E82B29B
:1014A0000AEB0400401E83B2514648460194FFF700
:1014B000ABFF129850BB002525E00C2C07D106EBA2
:1014C0004600334901EB800010F8058004E0314804
:1014D00000EB061010F8058000270DE008F0010071
:1014E00018B1584600F09EF902E0069800F09AF90B
:1014F0004FEA6808781CC7B204EBD471B7EB610FF0
:10150000ECDB681CC5B2A542D7DB2DE0002529E045
:101510000C2C07D106EB46001D4901EB800010F8AA
:10152000058004E01B4800EB061010F8058000273A
:1015300011E01648A0F800B008F0010038B10AEB3D
:10154000050291B209EB070290B2FFF7C1FD4FEA25
:101550006808781CC7B204EBD471B7EB610FE8DB05
:10156000681CC5B2A542D3DB0849029808800A4826
:101570004088401E83B208480088401E82B2002185
:101580000846FFF741FF07B0BDE8F08FEC000020F0
:1015900052570008C65B0008D02D00202DE9FF4FF0
:1015A00083B0074691461E46109C4FF0000A002566
:1015B00043E0701B401EC1B20A2001F0C3FAB9FB20
:1015C000F0F00A21B0FBF1F201FB1208BAF1000FB2
:1015D0001BD1701EA84218DDB8F1000F13D10020F6
:1015E0002021A346CDE90014029004EBDB714910E1
:1015F00001FB057188B213490B8813490A880499C5
:10160000FFF73AFF17E04FF0010A002108F1300020
:10161000C0B2A346CDE90141009004EBDB71491053
:1016200001FB057188B207490B8807490A880499AC
:10163000FFF722FF00BF681CC5B2B542B9DB07B097
:10164000BDE8F08FEE000020EC0000202DE9FE4305
:1016500006460F4615461C46DDF828801DE0134857
:101660000088401EB04204DB10484088401EB8424B
:1016700001DABDE8FE8320788DE821010C4803885B
:101680000C48028839463046FFF7F6FE284605EB3F
:10169000D07106EB61018EB2641C20787E2802DCDA
:1016A00020782028DBDA00BFE3E70000D02D0020FF
:1016B000EE000020EC00002010B504461020074981
:1016C00008600002064908602146064800F096FAC4
:1016D00010200249091F086010BD000014080140D5
:1016E000100C01400030014010B50446102007499D
:1016F00008600002064908602146064800F07EFAAC
:1017000010200249091F086010BD000014080140A4
:10171000140C01400030014010B50249087AFFF76F
:10172000E3FF10BDD02D002070B505460C462846BD
:10173000FFF7DAFFE0B2FFF7BFFF70BD10B5044658
:101740002A20224948812B2088812C20088134B10D
:10175000012C11D0022C1CD0032C34D126E0802087
:101760001A4908804880022088730320C873C82162
:101770003620FFF7D9FF27E08020144908804880F1
:10178000032088730220C873A8213620FFF7CCFFFE
:101790001AE080200D4908804880022088730120CB
:1017A000C87308213620FFF7BFFF0DE080200749EE
:1017B00008804880012088730220C8736821362081
:1017C000FFF7B2FF00E000BF00BF10BDD02D00202A
:1017D00008B50121102000F0DFFD4FF40050ADF8F6
:1017E000000010208DF8030003208DF802006946E8
:1017F0000148FFF77DFB08BD0010014010B54FF414
:1018000000510248FFF708FC10BD00000010014025
:1018100010B54FF400510248FFF700FC10BD000066
:101820000010014010B5044610200949086000026C
:10183000084908602112084800F0E0F9E1B20648C2
:1018400000F0DCF910200249091F086010BD0000FB
:1018500014080140100C01400030014010B5012176
:101860000148FFF7D0FB10BD000C014010B502216C
:101870000148FFF7C8FB10BD000C014030B502461F
:10188000002300BF01F07F00C90909B140F08000CA
:101890001C465D1CABB210550029F3D1184630BD73
:1018A00070B506460EB9002070BD4FF400711148A6
:1018B000FFF77AF90546042D01DA0020F4E7002449
:1018C00013E00C48005D20280DD10A49601C085C1B
:1018D000022808D1A01C085C28B9E01C085C40B2B2
:1018E00030700120E0E7601C84B2E01CA842E8DB15
:1018F0000020D9E7703300202DE9F04707460D4658
:101900004FEA272807F0FF0933E04FF400711B4826
:10191000FFF74AF90646052E1ADB002415E01748A2
:10192000005D90280FD11549601C085C03280AD17E
:10193000A01C085C404506D1E01C085C484502D16B
:101940000120BDE8F087601C84B2201DB042E6DBB8
:10195000FFF746F982460AA1FEF778FD08B100209C
:10196000EFE7142000F09EF9142D01D3143D00E0A0
:101970000025002DC9D10020E3E7000070330020CE
:10198000434C4F53454400002DE9F04105460C46B9
:1019900017463846FEF76CFD86B231122288501C7D
:1019A0002080A9542288501C2080AE5421884819D8
:1019B00032463946FEF77BFD208830442080BDE862
:1019C000F081000008B50121082000F0E5FC0320AB
:1019D000ADF8000048208DF8030069460148FFF784
:1019E00087FA08BD000C014000BFFEE708B50020E3
:1019F000009005E000BFBDF80000401C80B20090E0
:101A0000BDF800007828F5DB08BD000008B501210D
:101A1000082000F0C1FC14208DF80300C020ADF8B0
:101A2000000003208DF8020069460448FFF760FAC1
:101A3000C0210248FFF7F2FA08BD0000000C014087
:101A400010B580210348FFF7DEFA0446FFF7CEFF0A
:101A5000204610BD000C014010B5012000F06CF8CC
:101A6000012000F05DF8FFF7EBFF0446002000F0D6
:101A700057F8204610BD70B50025012000F05CF835
:101A800000240EE0012000F04BF8FFF7D9FF0128F9
:101A900002D1802020410543002000F041F8601C65
:101AA000C4B2082CEEDB284670BD10B504462046B3
:101AB00000F042F8012000F033F8002000F030F888
:101AC00010BD70B5054600240DE08021214101EADA
:101AD000050000F031F8012000F022F8002000F0AD
:101AE0001FF8601CC4B2082CEFDB70BD10B50120DC
:101AF00000F016F8012000F01FF8002000F01CF89C
:101B0000002000F00DF810BD10B5002000F014F812
:101B1000012000F005F8012000F00EF810BD0000D3
:101B200010B50446224640210248FFF779FAFFF734
:101B30005DFF10BD000C014010B504462246802117
:101B40000248FFF76DFAFFF751FF10BD000C01408E
:101B500000B587B001210C2000F01EFC0121080314
:101B600000F01AFCA020ADF8180018208DF81B001A
:101B700003208DF81A0006A91948FFF7B9F91020BB
:101B8000ADF818008DF81B0006A91548FFF7B0F94D
:101B90000020ADF804004FF48270ADF8060000207C
:101BA000ADF80800ADF80A00ADF80C004FF4007075
:101BB000ADF80E001820ADF810000020ADF81200AE
:101BC0000720ADF8140001A9064800F079FC0121B6
:101BD000044800F05BFC012000F006F807B000BDEF
:101BE000000801400030014010B504462246102193
:101BF0000148FFF715FA10BD0008014070B5044612
:101C00000D4600BF0221204600F04CFC0028F9D010
:101C10002946204600F052FC00BF0121204600F07A
:101C200041FC0028F9D0204600F045FCC0B270BD50
:101C30007047000070B5002100230F22C47804B360
:101C4000154C246804F4E064C4F5E064210AC1F191
:101C50000403CA40447804FA03F184781440214311
:101C600009010E4C0678A155047804F01F050124E3
:101C7000AC4005786D11AD0005F1E025C5F80041D7
:101C800009E0047804F01F050124AC40044D0678F7
:101C9000761145F8264070BD0CED00E000E400E050
:101CA00080E100E008B50AE00021009103E000BFF8
:101CB0000099491C00910099B1F5FA5FF7D3011E14
:101CC000A0F10100F0D108BD2DE9FC4705468A4688
:101CD00016461F46DDE90A48002060490870604941
:101CE0000870FF205F49087015B10EB107B12CB91B
:101CF00001205A4908700020BDE8FC8733465AA2EB
:101D00004FF400716348CDE90074FEF7C1FA4FF457
:101D1000FA6261A15F48FEF7CDFF002866D14FF45B
:101D2000FA625DA15DA0FEF7C5FFA8B93B46324649
:101D300051462846CDE9004800F010F920B90420AA
:101D4000464908700020D7E7012045490870002067
:101D5000424908700120CFE7334659A24FF4007181
:101D60004C48FEF795FA4FF4FA624BA14948FEF74A
:101D7000A1FF20B90220394908700020BCE73B468A
:101D800056A24FF400714348FEF782FA4FF4FA620C
:101D900041A14048FEF78EFF20B902202F4908706C
:101DA0000020A9E7234654A24FF400713948FEF7FA
:101DB0006FFA40F6B83238A13648FEF77BFFA8B973
:101DC0003B46324651462846CDE9004800F0C6F869
:101DD00020B904202149087000208DE70120204906
:101DE000087000201D490870012085E7434649A27C
:101DF0004FF400712748FEF74BFA40F6B83226A19F
:101E00002448FEF757FF20B903201449087000202A
:101E100072E72B4647A24FF400711E48CDF800A090
:101E2000FEF736FA44F620621BA11A48FEF742FF7D
:101E300078B9FEF7D5FE8146B9F1000F04D043A171
:101E40004846FEF703FB20B904200449087000202F
:101E500052E700200149087001204DE7FE000020F4
:101E6000FF0000200001002041542B4D51545455D7
:101E70005345524346473D302C312C222573222CAA
:101E8000222573222C222573222C302C302C222246
:101E900000000000703500204F4B000041542B4DD6
:101EA000515454555345524346473D302C312C2212
:101EB000222C22222C22222C302C302C22220000F8
:101EC00041542B4D5154544C4F4E47434C49454E71
:101ED0005449443D302C22257322000041542B4D9F
:101EE0005154544C4F4E47555345524E414D453D2C
:101EF000302C22257322000041542B4D5154544C58
:101F00004F4E4750415353574F52443D302C22259A
:101F10007322000041542B4D515454434F4E4E43B5
:101F200046473D302C25752C302C22222C22222C89
:101F3000302C300041542B4D515454434F4E4E3DA4
:101F4000302C222573222C25752C31002B4D515419
:101F500054434F4E4E454354454400002DE9FF4F36
:101F600087B017461C46DDE91489002005903846E5
:101F7000FEF77EFA1FFA80FB2046FEF779FA80B260
:101F800004904046FEF774FA80B20390FF2002905E
:101F9000DDE90701FEF746FF18B900200BB0BDE8E8
:101FA000F08F0BF10E0004990844801C039908443B
:101FB0001FFA80FA1021BDF81420501C80B2059041
:101FC0003A488154514606A8FFF758FC0546374960
:101FD000BDF8142088182A4606A9FEF768FABDF84D
:101FE0001400284480B2059031A205A92F48FFF7BC
:101FF000CBFC0421BDF81420501C80B205902B4866
:102000008154C221BDF81420501C80B2059027488D
:1020100081544FEA2921BDF81420501C80B205904C
:1020200022488154BDF81420501C80B205901F48EE
:1020300000F802903A4605A9FFF7A6FC224605A93A
:102040001A48FFF7A1FC424605A91848FFF79CFC77
:10205000FEF754FDBDF814101448FEF74FFE08B902
:1020600000209BE700261CE002A8FFF719FC50B1F6
:102070009DF90800104908709DF8080008B9012072
:102080008CE700208AE7FEF7ABFD0CA10190FEF77C
:10209000DDF908B1002081E76420FFF703FE701C22
:1020A000C6B2502EE0DB002078E70000703100203F
:1020B0004D5154540000000000010020434C4F5388
:1020C000454400000148007870470000FF000020F0
:1020D00008B50D48007858B10CA0006800900221A6
:1020E0006846FEF70BFE08B9002008BD0120FCE79A
:1020F00040F6B83206A107A0FEF7DCFD08B90020C3
:10210000F3E70120F1E70000FF000020C00000001D
:102110004F4B000041542B4D51545450494E473DB4
:10212000300000002DE9F04F85B006460F4690467E
:102130009946002406B11FB9002005B0BDE8F08F14
:10214000B8F1020F01DD4FF00008B9F1010F01DD18
:102150004FF000093348007800284FD03046FEF792
:1021600087F985B23846FEF783F91FFA80FAA81C72
:10217000504480B2039008F00300302141EA40004F
:10218000B9F1000F01D0012100E0002108432146F0
:10219000621C94B2244A505404A80399FFF76EFBC2
:1021A0008346214908195A4604A9FEF780F904EB31
:1021B0000B0084B22A122046611C8CB21A490A54C0
:1021C0002046611C8CB218490D5408192A46314624
:1021D000FEF76DF9601984B2134908195246394661
:1021E000FEF765F904EB0A0084B221460E48FEF7BB
:1021F00085FD08B90020A0E701209EE733460BA229
:102200004FF4007111488DE88003FEF741F841F268
:1022100088320FA10D48FEF74DFD08B900208CE76C
:1022200001208AE7FF0000207031002041542B4D2F
:102230005154545055423D302C222573222C2225D6
:1022400073222C25752C25750000000070350020A8
:102250004F4B00002DE9FC4706460F46002416B9F7
:102260000020BDE8FC87022F00DD002737480078FA
:10227000002858D03046FEF7FBF885B2681D1FFADB
:1022800080FA3348B0F800800088401C304908804C
:1022900082222046611C8CB22E490A54514601A864
:1022A000FFF7ECFA81462B4908194A4601A9FEF7C7
:1022B000FEF804EB090084B24FEA28222046611C94
:1022C0008CB224490A542046611C8CB2214901F881
:1022D00000802A122146601C84B21E4842542046C7
:1022E000611C8CB21B490D5408192A463146FEF771
:1022F000DEF8601984B22046611C8CB215490F5477
:10230000FEF7FCFB21461348FEF7F8FC08B9002055
:10231000A7E740F6B8314046FFF7EEFA08B90020CB
:102320009FE701209DE733460BA24FF40071104850
:102330000097FDF7ADFF41F288320EA10C48FEF781
:10234000B9FC08B900208CE701208AE7FF000020D3
:10235000020100207031002041542B4D5154545340
:1023600055423D302C222573222C2575000000009B
:10237000703500204F4B000029B1064AD269024354
:10238000044BDA6104E0034AD2698243014BDA610B
:10239000704700000010024029B1064A92690243CA
:1023A000044B9A6104E0034A92698243014B9A61AB
:1023B000704700000010024030B5002100220024C8
:1023C00000232D4D6D6805F00C0121B1042905D0C5
:1023D000082923D105E0294D056022E0274D05603D
:1023E0001FE0254D6D6805F47012234D6D6805F4EE
:1023F0008034022505EB92421CB9214D55430560FE
:102400000BE01D4D6D6805F400351DB11C4D5543A5
:10241000056002E0194D5543056002E0174D056067
:1024200000BF00BF144D6D6805F0F0010909154D9E
:102430006B5C0568DD4045600F4D6D6805F4E0613B
:10244000090A104D6B5C4568DD4085600A4D6D687A
:1024500005F46051C90A0B4D6B5C4568DD40C560F1
:10246000054D6D6805F44041890B074D6B5CC568EF
:10247000B5FBF3F5056130BD0010024000127A0093
:1024800000093D00000000201000002021B102885A
:1024900042F04002028004E002884FF6BF731A4007
:1024A000028070470246002013890B400BB10120C7
:1024B00000E000207047014688897047818170479D
:1024C00010B50022028802F441520B884C88234345
:1024D0008C882343CC8823430C8923434C89234392
:1024E0008C892343CC8923431A430280838B4FF288
:1024F000FF74234083830B8A038210BD10B500F064
:1025000001F810BD0CB50020019000903348006820
:1025100040F480303149086000BF3048006800F462
:10252000003000900198401C0190009818B9019863
:10253000B0F5A06FF1D12948006800F4003010B167
:102540000120009001E0002000900098012843D174
:102550002348006840F010002149086008460068E0
:1025600020F0030008600846006840F002000860A0
:102570001A4840681949486008464068486008465B
:10258000406840F4806048600846406820F47C1051
:1025900048600846406840F4E81048600846006813
:1025A00040F08070086000BF0C48006800F00070C8
:1025B0000028F9D00948406820F003000749486026
:1025C0000846406840F00200486000BF0348406889
:1025D00000F00C000828F9D10CBD000000100240EA
:1025E0000020024010B502F013F910BD10B51348D9
:1025F000006840F001001149086008464068104931
:1026000008400E494860084600680E4908400B49DA
:1026100008600846006820F480200860084640688A
:1026200020F4FE0048604FF41F008860FFF766FF4B
:102630004FF000600449086010BD00000010024027
:102640000000FFF8FFFFF6FE08ED00E010B586B0D1
:102650000446012144F20400FFF79EFE4FF400708F
:10266000ADF8140018208DF8170003208DF816001F
:1026700005A91D48FEF73CFC4FF48060ADF814003E
:1026800004208DF8170005A91748FEF731FC0194C6
:102690000020ADF80800ADF80A00ADF80C00ADF868
:1026A00010000C20ADF80E0001A9104800F0FCF855
:1026B000012240F225510D4800F0D0F825208DF878
:1026C000000007208DF8010000208DF80200012095
:1026D0008DF803006846FFF7ADFA0121034800F0CA
:1026E0007AF806B010BD0000000801400038014033
:1026F000411C88B2802800DB0020704710B50446DA
:102700002146054800F041F900BF8021024800F051
:102710006EF80028F9D010BD0038014070B540F2C5
:1027200025510E4800F070F8B8B10C4800F028F9B7
:10273000C5B20B480088FFF7DBFF04460948008854
:10274000844205D008480649098845540448048055
:1027500040F22551014800F02FF870BD00380140CB
:102760006C0000206E0000200402002010B540F232
:1027700025510E4800F048F8B8B10C4800F000F9B7
:10278000C4B20B480088B0F5FF7F09DC084908880F
:10279000411C074A118007490C54002012888854B4
:1027A00040F22551014800F007F810BD00440040F8
:1027B000FC000020E02D002010B50022002340F690
:1027C0006A14A14200D100BF0A1201249440A3B2AE
:1027D000DC43048010BD21B1828942F40052828121
:1027E00004E082894DF6FF731A40828170470246E9
:1027F0000020B1F5007F00D100BF13880B400BB162
:10280000012000E00020704770B50246002400233C
:102810000025002040F66A16B14200D100BFC1F386
:10282000421501F01F03012606FA03F3012D02D120
:102830009689334006E0022D02D1168A334001E02A
:10284000968A33400C12012606FA04F416883440A6
:1028500013B10CB1012000E0002070BDF0B50346BB
:10286000002400260025002040F66A17B94200D156
:1028700000BF1846C1F3421401F01F06012707FAF2
:1028800006F5012C01D10C3004E0022C01D11030EE
:1028900000E014301AB107682F43076002E00768B0
:1028A000AF430760F0BD00002DE9F04786B0054654
:1028B0000E460024A24600BFA1460027B08900B101
:1028C00000BF2F462C8A4CF6FF700440F08804436A
:1028D0002C82AC894EF6F3100440B088318908434D
:1028E000718908430443AC81AC8A4FF6FF40044031
:1028F000B0890443AC8201A8FFF75EFD1F48874200
:1029000002D1DDF810A001E0DDF80CA0A88900F4E8
:10291000004040B10AEBCA0000EB0A1031684900E0
:10292000B0FBF1F807E00AEBCA0000EB0A103168CF
:102930008900B0FBF1F86420B8FBF0F00401200935
:10294000642101FB1089A88900F4004040B13220C5
:1029500000EBC900B0FBF1F000F00700044308E011
:10296000322000EB09106421B0FBF1F000F00F0001
:1029700004432C8106B0BDE8F08700000038014018
:1029800001468888C0F308007047C1F308028280BE
:10299000704700BFFEE7704710B504460CB9002031
:1029A00010BD09A12046FDF751FD48B908A12046F8
:1029B000FDF74CFD20B90AA12046FDF747FD08B1FF
:1029C0000120EDE70020EBE7434C4F534544000066
:1029D0005749464920444953434F4E4E45435400BE
:1029E0002B4D515454444953434F4E4E4543544547
:1029F000440000002DE9F0478046894616463046DF
:102A0000FDF736FD85B2B8F1000F03D016B10DB158
:102A1000A94502DA0020BDE8F087002713E0002472
:102A200008E0381918F80000315D884200D003E052
:102A3000601C84B2AC42F4DB00BFAC4201D1012087
:102A4000E9E7781C87B2A9EB050080B2B842E6DA64
:102A50000020E0E770B504460D46E0B2FFF74EFEF9
:102A6000204670BD1CB5FEF791FB064806210023E9
:102A70008022CDE9001004A1064802F0BDF801F063
:102A800039FE1CBD1400002073746172745F7461A0
:102A9000736B0000DD370008FEF79AFEFEF776FB49
:102AA000FDF7AEFEFEF7C2FA4FF4E130FFF7CEFDC0
:102AB00003A0FDF7E1FB01E0FFF7D4FFFCE7000016
:102AC00053797374656D2073746172742C20554151
:102AD00052543120403131353230300D0A0000007F
:102AE0002DE9F0470446089F4FF0010C4FF0000815
:102AF000914600251CB113B10FB18A4202DB0020C0
:102B0000BDE8F08700BF894501DB0020F8E74846B3
:102B100009F1010A1FFA8AF9265C681C85B206F0E1
:102B20007F0000FB0C884FEACC1C042D01DD002047
:102B3000E6E706F080000028E5D1C3F800803D807C
:102B40000120DDE710B50246012000E050430B1ED6
:102B5000A1F10104E1B2F9D110BD000070B5ADF5ED
:102B6000007D002600254FF400716846FEF71CF832
:102B7000044614B90DF5007D70BD2146684600F08D
:102B80005FF81FA221466846FFF734FF28B91FA24D
:102B900021466846FFF72EFF70B101251E480078D8
:102BA00018B11E480078012800D0012601201A49DA
:102BB00008701A49087019E019A221466846FFF703
:102BC00019FF28B919A221466846FFF713FF68B11B
:102BD00001251148007810B11048007800B1012695
:102BE00001200D49087000200C4908702DB102F039
:102BF00033F812490860FDF781FF00BFBAE7000013
:102C0000224C4544223A747275650000224C4544BA
:102C1000223A2074727565004100002042000020B5
:102C2000224C4544223A66616C736500224C45444F
:102C3000223A2066616C73650000000048000020A5
:102C40002DE9F04F85B006468846FFF73BFA10B9EC
:102C500005B0BDE8F08F002552E016F805B0CBF3C3
:102C6000410004900BF0F000302800D046E00498BA
:102C7000012800D042E002A80090681C82B203AB99
:102C800041463046FFF72CFF00B937E0681CBDF81D
:102C90000810084403994718474500D92EE0681CDE
:102CA000BDF808104418A01CB84200D926E0601CEA
:102CB000305C315D40EA0129A41C04EB0900801C52
:102CC000B84200D91AE04C44601C305C315D40EAE7
:102CD000012A40208DF8040002208DF805004FEAFB
:102CE0002A208DF806000AF0FF008DF80700042165
:102CF00001A8FEF703F8781E85B200BF681C85B2F4
:102D00004545AADB00BFA3E72DE9F04105460E4685
:102D10002948076800202949096881F8590027488F
:102D20000068001D01F022FB50B92448006890F8AB
:102D30002C10012088402249096881432048016005
:102D4000681CD8B9D6B11F4948681C490968886011
:102D50001A4982680968CA6018490968091D8268A9
:102D6000516016490968091D8160164A13490968AE
:102D70004A6111460968491C11601AE07C190F4824
:102D800000684460BC4207D20C480168091D0E4827
:102D9000006801F00FFB0CE008480168091D0B48B2
:102DA000006801F007FB0A480068844201D2084825
:102DB0000460BDE8F081000088000020740000205D
:102DC0008C000020940500207C000020780000206A
:102DD000A400002010B5044601F012FB3148006841
:102DE000401C304908603048006840B92E480460F3
:102DF0000846006801280DD100F0E2F90AE02B48EE
:102E0000006838B928480068C06AE16A884201D879
:102E10002548046026480068401C2549086008468B
:102E20000068606494F82C100120884021490968EA
:102E3000084320490860E16A01EB81011E4A02EB68
:102E400081014868A0608268E260211D826851604B
:102E50008160E16A01EB8101174A02EB8102626144
:102E6000E16A01EB8101144A52F82110491CE26A1F
:102E700002EB8202104B43F8221001F0D3FA0B4808
:102E8000006868B108480068C06AE16A884207D2F1
:102E90004FF0805009490860BFF34F8FBFF36F8F29
:102EA00010BD00008400002074000020900000206D
:102EB000A00000208C000020C402002004ED00E0EF
:102EC00010B501F09DFA10480068D0B90F4801F024
:102ED00061FA0F4801F05EFA0C480E4908600C4890
:102EE0000D49086000221021052001F0ABFC0649C5
:102EF00008600846006820B108A10348006801F096
:102F0000E3FA01F08FFA10BDBC000020A8050020F4
:102F1000BC050020B4000020B8000020546D7251A0
:102F20000000000010B516E001F06AFA0C48C06815
:102F3000C468201D01F01AFA0A480068401E0949B9
:102F4000086009480068401E0749086001F06AFAF5
:102F5000204600F05FF8044800680028E4D110BD66
:102F600080050020840000208000002070B5044609
:102F70000D46206C70B1216CE0680144E160D4E939
:102F80000210884201D32168E1602846226CE16882
:102F9000FDF78DFA70BD2DE9F04104460F46154648
:102FA0004FF00008A66B206C48B9206800282CD18F
:102FB000A06801F01FFF80460020A06025E07DB9D9
:102FC0003946226C6068FDF772FA216C606808442B
:102FD0006060D4E90101884217D32068606014E082
:102FE0003946226CE068FDF762FA216CE068411A0C
:102FF000E1602168E068884203D2216CA068411A30
:10300000E160022D01D106B1761E701CA06340461E
:10301000BDE8F08110B50446206B01F013FA20469C
:1030200001F010FA10BD00000146084A126812684B
:103030000AB9012200E000220A600A6822B9034AA4
:103040001268D268106800E000207047B4000020C9
:1030500030B54FF42053174800F007042CB1C01DC1
:1030600020F00700134C041B1B1B0246124C22606D
:103070000024114D6C60D018083820F007000F4C68
:10308000206000240D4D2D686C600C4D2D682C6067
:103090001146441A4C60094C24680C60084D4C6879
:1030A0002C60084D4C682C604FF00044064D2C609D
:1030B00030BD0000D0050020C8000020D000002056
:1030C000D8000020D4000020E400002000BFFFF75B
:1030D00029FF064800680128F9D94FF080500449BB
:1030E0000860BFF34F8FBFF36F8FF0E7C40200207B
:1030F00004ED00E02DE9F04106460D4617469846DE
:10310000069C0DB9246000E02760E6632564012178
:10311000204601F0BDFB84F850800020A064BDE88B
:10312000F0812DE9F05F81460E4690469A460A9F4F
:103130000C9C4FEA8801A522206BFDF7FDF9A8F150
:103140000100216B01EB800B2BF0070B86B10025F2
:1031500007E0715D04F134004155705D00B902E093
:103160006D1C102DF5D300BF00214320015502E056
:10317000002084F83400202F00D31F27E762E76483
:1031800000202065201D01F012F904F1180001F063
:103190000EF92461C7F12000A0616462002060651F
:1031A00084F8580084F8590052464946584600F0C1
:1031B00003FB20600B9808B10B980460BDE8F09FFA
:1031C00010B5002407E004EB84010F4A02EB8100F4
:1031D00001F0E0F8641C202CF5D30C4801F0DAF87B
:1031E0000B4801F0D7F80B4801F0D4F80A4801F079
:1031F000D1F80A4801F0CEF80448094908600448AB
:103200000849086010BD0000C402002044050020E9
:10321000580500206C050020800500209405002042
:10322000780000207C00002010B50146164800E020
:10323000006803688B42FBD30246436813448B4209
:1032400004D143684C682344436001460A464B68F6
:1032500013440468A34211D10C4C03682468A342B0
:1032600008D04B680468646823444B6003681B689B
:103270000B6005E0054B1B680B6001E003680B6009
:10328000884200D0016010BDC8000020D00000209E
:103290002DE9F04104460D4616461F464FF0000842
:1032A00065602461B5420CD8F01BA169884202D345
:1032B0004FF0010811E0211D0948006801F07AF87B
:1032C0000BE0BE4204D2BD4202D34FF0010804E03D
:1032D000211D0448006801F06DF84046BDE8F0810A
:1032E000B8000020B400002070B5054601F088F851
:1032F000A86B08B9012400E0002401F093F82046EF
:1033000070BD70B5054601F07BF8A86BE96B88428B
:1033100001D1012400E0002401F084F8204670BDB2
:10332000F1B50098846C0026A06BE16B88421BD23B
:1033300094F94550002269462046FFF72CFE0646C8
:10334000681C60B9606A08B9012000E0002050B92B
:1033500004F1240001F0A4FD28B1012603E0681C5B
:1033600040B284F8450000BF3046F8BD70B5054650
:103370000E460E480068C068C468201D00F0F6FFC5
:1033800094F8280000F0040028B13246294620466F
:1033900000F0D0F805E094F8280000F0FE0084F872
:1033A00028002046216A884770BD0000B400002034
:1033B00070B586B077E00298002805DA03AED6E94A
:1033C0000020B168904700BF029800286BDB049C86
:1033D000606908B9012000E0002010B9201D00F04C
:1033E000C5FF01A800F0D2F8054602980A2858D275
:1033F000DFE800F05705072E364706082F3700BFD5
:1034000000BF00BF94F8280040F0010084F82800B5
:103410000398A269811803462A462046FFF738FF21
:10342000A8B194F8280000F0040038B10398A2690C
:1034300081182A46204600F07DF805E094F828001F
:1034400000F0FE0084F828002046216A884729E021
:1034500000BF94F8280000F0FE0084F8280021E066
:1034600000BF94F8280040F0010084F82800039879
:10347000A061A06941192B462A462046FFF708FFA4
:1034800010E094F8280000F0020018B9204600F07F
:10349000D9FF05E094F8280000F0FE0084F8280029
:1034A00000E000BF00BF002202A90448006801F04C
:1034B000E3FA00287FF47FAF06B070BDBC000020A7
:1034C000F8B505460C4601F051F9684600F05EF883
:1034D0000646009820BB44B9B54206D801F064FD09
:1034E00031462846FFF742FF1CE03CB10E48006819
:1034F000006808B9012000E000200446A91B22460C
:103500000A48006801F004F801F04EFD50B94FF090
:10351000805007490860BFF34F8FBFF36F8F01E002
:1035200001F042FDF8BD0000B8000020BC00002002
:1035300004ED00E070B504460D46164604E0A069AF
:1035400005442046216A8847A06941192B46324626
:103550002046FFF79DFE0028F1D170BD09480068A4
:10356000006808B9012000E0002020B14FF0FF30D2
:103570000549086005E003480068C0680068024922
:103580000860704778000020A400002070B5044651
:1035900001F062FB054607480068854204D200F04E
:1035A0000BF80120206001E0002020600148056048
:1035B000284670BDC400002070B508E00D480068C2
:1035C000C06804684FF0FF312046FFF7CFFE09487E
:1035D0000068006808B9012000E000200028EDD054
:1035E000044805680448006802490860024805600C
:1035F00070BD0000B4000020B800002000BF5020C3
:1036000080F31188BFF34F8FBFF36F8F00BF00BFF0
:10361000FEE708B500BF6846FFF706FD04462046F2
:103620000099FFF74DFFFFF7C3FEF4E770B50446BE
:1036300000F0E6FE94F9455019E0A06C30B1204648
:10364000FFF76EFE88B101F019F80EE0606A08B964
:10365000012000E0002038B904F1240001F020FC32
:1036600018B101F00BF800E003E0681E45B2002D30
:10367000E3DC00BFFF2084F8450000F0D3FE00F03B
:10368000BFFE94F9445010E0206908B9012000E021
:10369000002048B904F1100001F002FC08B100F06C
:1036A000EDFF681E45B200E001E0002DECDC00BF3C
:1036B000FF2084F8440000F0B5FE70BD2DE9F04114
:1036C00004464FF0000801F051F83548006808B989
:1036D000FFF7BEFC33480068204000285BD1B4B13E
:1036E00004F10800A04212D9083404F0070078B1B0
:1036F00004F00700C0F108002044A04205D904F0FE
:103700000700C0F10800044402E0002400E00024A7
:10371000002C40D02448006884423CD8234E3046D8
:10372000056801E02E462D686868A04202D228682C
:103730000028F7D11A48006885422CD0306800F183
:103740000808286830606868001B102807D92F19FE
:103750006868001B78606C603846FFF765FD1249A9
:1037600068680968081A1049086008460068104926
:103770000968884203D20C4800680D49086009496D
:103780006868096808436860002028600948006884
:10379000401C0849086001F007FC4046BDE8F08184
:1037A000D0000020E4000020D4000020C800002049
:1037B000D8000020DC000020001F4FF08073036061
:1037C000001F21F001030360001F034B0360143846
:1037D0000260203870470000FD3500081CB5044623
:1037E00000F00EFE00221021012001F02BF82549E7
:1037F000086000220221012001F024F8224908601B
:1038000000220221012001F01DF820490860204813
:10381000022100238022CDE900101EA11F4801F0E3
:10382000EBF91F48032100238022CDE900101DA1E0
:103830001E4801F0E1F91E48042100238022CDE951
:1038400000101CA11D4801F0D7F91D4805210023D7
:103850008022CDE900101BA11C4801F0CDF91C48C5
:10386000062100234FF48062CDE9001019A11B4806
:1038700001F0C2F900F0D6FD1948006800F088FE9A
:103880001CBD00004C00002050000020540000200F
:10389000180000207461736B31000000E5380008E7
:1038A0001C0000207461736B32000000F1380008C6
:1038B000200000207461736B33000000093E000893
:1038C000240000207461736B340000005D3E00082A
:1038D000280000207461736B35000000113F000860
:1038E0001400002002E0642000F038FEFBE7000036
:1038F0008EB047F6FF79CA4648460D90FF200C90DF
:103900000B900A900990089007900690FCF778FFBA
:10391000FDF769F84FF6FF70FDF7AAFB0020F849A4
:1039200008800120F7A30C22042100900220FDF75B
:103930008DFE0120F5A30C22142100900220FDF73A
:1039400085FE0120F3A30C22242100900220FDF724
:103950007DFE0120F1A30C22342100900220FDF70E
:1039600075FE0120EFA30C22342100903C20FDF7CE
:103970006DFE0120EDA30C22442100900220FDF7F2
:1039800065FE0120EBA30C22442100904620FDF7A8
:103990005DFE0120E9A30C22542100904620FDF792
:1039A00055FE22E2FCF76AFF06464EB1E549306853
:1039B0000860E549706808600120E449087002E089
:1039C0000020E2490870FDF735F8E1490860002160
:1039D000DF48006801F016FE03D80120DD490870B9
:1039E00002E00020DB490870DB49D748006801F09D
:1039F0003DFD834601F0D6FC0446D749D148006816
:103A000001F034FD834601F0CDFC0746D249D04891
:103A1000006801F02BFD834601F0C4FC0546CB484D
:103A200001780C98814207D1C8480078002873D0EB
:103A30004C4501D15745FAD04FF6FF700F234E2267
:103A4000042100902620FDF751FB4FF6FF701F2345
:103A50004622142100902620FDF748FBBB48007841
:103A600000285AD0A046B8F1000F01DAC8F10008CA
:103A7000002C08DA0120B9A30C2204210090262092
:103A8000FDF7E4FD07E00120B5A30C22042100901E
:103A90002620FDF7DBFD0A2098FBF0FB0C2002231B
:103AA0005A46042100902C20FDF778FD0120ADA39B
:103AB0000C22042100903820FDF7C8FD0A2098FB55
:103AC000F0F100FB118B0C2001235A4604210090D9
:103AD0003E20FDF763FD0A2097FBF0FB0C2002233C
:103AE0005A46142100902620FDF758FD01209DA381
:103AF0000C22142100903220FDF7A8FD0A2097FB2C
:103B0000F0F100FB117B0C2001235A461421009098
:103B10003820FDF743FD10E014E0012092A30C22B1
:103B2000042100902620FDF791FD01208EA30C2298
:103B3000142100902620FDF789FD844800780C9020
:103B4000A146BA46834801780B98814205D1814845
:103B5000007878B30D98854239D04FF6FF702F2347
:103B60005A22242100901E20FDF7C0FA79480078DF
:103B700008B30A2095FBF0FB0C2005235A462421AC
:103B800000901E20FDF70AFD012076A30C222421BF
:103B900000903C20FDF75AFD0A2095FBF0F100FB58
:103BA000115B0C2001235A46242100904220FDF78E
:103BB000F5FC08E00BE001206BA30C22242100900F
:103BC0001E20FDF743FD634800780B900D95674874
:103BD00001780A98814214D04FF6FF703F233722B4
:103BE000342100902C20FDF781FA0C200123009055
:103BF0005E48027834212C20FDF7D0FC5B48007829
:103C00000A905B4801780998814214D04FF6FF7002
:103C10003F237122342100906620FDF767FA0C20C3
:103C2000012300905248027834216620FDF7B6FC4B
:103C30004F48007809904F480178089881421FD07A
:103C40004FF6FF704F233E22442100902620FDF7BF
:103C50004DFA4848007840B1012047A30C22442186
:103C600000902620FDF7F2FC07E0012043A30C2280
:103C7000442100902620FDF7E9FC3E48007808909A
:103C80003F480178079881421FD04FF6FF704F23BD
:103C90007F22442100906420FDF728FA38480078FC
:103CA00040B1012037A30C22442100906420FDF78D
:103CB000CDFC07E0012034A30C22442100906420B5
:103CC000FDF7C4FC2E48007807903148017806982B
:103CD00081426BD04FF6FF705F237F22542100900A
:103CE0006420FDF703FA2A48007840B1012025A39B
:103CF0000C22542100906420FDF7A8FC53E049E019
:103D0000EC00002074656D703A00000068756D6904
:103D10003A0000006C75783A000000006D71346460
:103D20006F3A00006D7137646F3A000068756D611D
:103D30006E3A0000776966693A0000006D7174742C
:103D40003A0000002C000020300000203400002049
:103D5000380000203C000020000020412D00000021
:103D6000200000002E0000003F0000003D00002069
:103D70003E0000203F000020796573006E6F000058
:103D8000430000204F4B00004641494C000000001A
:103D9000440000200120AFF210030C2254210090B7
:103DA0006420FDF753FC1148007806901048006825
:103DB00002901048006803900F48006804900F4874
:103DC00000788DF814000E4800788DF815000D4825
:103DD000006830B10223002202A90A48006800F0FE
:103DE000A7FD4FF4FA7000F0B9FBDBE544000020BA
:103DF000300000202C00002038000020340000207B
:103E00003C0000204C00002008B5FDF7DBFD1DE064
:103E1000FDF724FD0E490870FDF728FD0D490870D7
:103E20000B4800788DF80000084600788DF80100F6
:103E30000948006830B1022300226946064800683C
:103E400000F076FD4FF4967000F088FBE0E700008C
:103E50003D0000203E0000205000002008B549E051
:103E6000FDF7FAF8244908702448007860B100F0A2
:103E7000F3FE044622480068201A47F23051884277
:103E800002D900201D4908701C48007870B11D48F7
:103E9000007828B1FDF7BCFC01201B49087013E035
:103EA000FDF7ACFC0020184908700DE012480078BE
:103EB00028B1FDF7ADFC01201349087004E0FDF7BF
:103EC0009DFC0020104908700B4800788DF8000018
:103ED0000D4800788DF801000C48006830B10223CD
:103EE000002269460948006800F022FD4FF47A700C
:103EF00000F034FBB4E700003F0000204100002048
:103F00004800002042000020400000205400002013
:103F1000A4B04FF0000B00202390229021900120AC
:103F2000209000201B901A901990189017901690CE
:103F300015904FF4E130FCF769FEA7E1D4A00078BA
:103F400010B1D4A0007860B90020D5490870D549D7
:103F5000087022908346239041F2883000F0FEFAE8
:103F600094E1CF480078B8B943F69822C9A1C8A017
:103F7000FCF7D6FD18B10120C94908700CE00020FB
:103F8000C7490870C749087022908346239040F6BD
:103F9000B83000F0E3FA79E1C248007810BB78202D
:103FA000C149C2A3C4A2CDE9001040F25B71C4A014
:103FB000FDF78AFE40B10120BA4908700020229026
:103FC0008346239021900DE00020B6490870FCF74D
:103FD00007FEC0A10A90FCF739FA40F6B83000F0AD
:103FE000BDFA53E1229890B90021BCA0FEF732F946
:103FF00010B1012022900AE00020AA490870229006
:10400000834623904FF47A7000F0A8FA3EE1FCF763
:10401000E7FD1F901F98FEF7BFFCA8B1BAA11F983B
:10402000FCF714FA10B100209D49087000209D494A
:1040300008702290834623902190FCF75FFD4FF497
:10404000FA7000F08BFA21E1FEF788FDB2480068B3
:1040500098B100220DA9B048006800F00DFD0128BC
:104060000BD19DF8400018B10D981B900E981A9036
:104070009DF8410008B10F981990A848006868B1F0
:1040800000220CA9A548006800F0F6FC012805D123
:104090009DF8300016909DF831001790A0480068F8
:1040A00068B100220BA99E48006800F0E5FC0128D9
:1040B00005D19DF82C0015909DF82D001890FCF767
:1040C0009FFDB0F5C07F01DDFCF718FD2398401C73
:1040D00080B223902398C8280FDB00202390FDF79F
:1040E000F7FF50B900206F49087022908346219055
:1040F0004FF4FA7000F032FAC8E00BF101001FFA39
:1041000080FBBBF1320F03DA642000F027FABDE038
:104110004FF0000B189808B182A000E083A0149023
:10412000179808B17FA000E080A01390169808B1FE
:104130007CA000E07DA01290159808B179A000E065
:104140007AA011907B491B9801F090F90A9001F038
:1041500029F9064677491A9801F088F90A9001F082
:1041600021F907467349199801F080F90A9001F086
:1041700019F904460A2096FBF0F01E900A2096FBDF
:10418000F0F100FB1168B8F1000F01DAC8F1000886
:104190000A2097FBF0F01D900A2097FBF0F100FB3E
:1041A0001179B9F1000F01DAC9F100090A2094FB75
:1041B000F0F01C900A2094FBF0F100FB114ABAF1D8
:1041C000000F01DACAF1000A11A80BC8149ACDE950
:1041D0000623CDE90810DDE91C01CDE9040ACDE98B
:1041E00002191E98CDE90008534A4FF480715348D4
:1041F000209BFCF74DF80546002D01DBFF2D04DD6B
:104200004FF4FA7000F0AAF940E000231A464B4937
:104210004BA0FDF787FF78BBFCF7E2FC1F902198CD
:10422000401CC0B221901F98FEF7B6FBA8B136A182
:104230001F98FCF70BF910B10020194908700020F5
:10424000184908702290834623902190FCF756FC71
:104250004FF4FA7000F082F918E02198032806DB89
:1042600000201049087022908346239021904FF43B
:104270007A7000F073F909E0FFE7002021902098A0
:10428000401C2090642000F069F900BF56E6000051
:1042900036343000313233343536373800000000E0
:1042A0004300002044000020006E000836533236E0
:1042B0005A6B663834500000455350383236360059
:1042C0006D717474732E6865636C6F7564732E639F
:1042D0006F6D0000526563760000000024737973EF
:1042E0002F365332365A6B663834502F4553503878
:1042F0003236362F7468696E672F70726F70657210
:1043000074792F7365740000574946492044495316
:10431000434F4E4E454354004C00002050000020B7
:1043200054000020747275650000000066616C73B3
:104330006500000000002041806E0008040100209C
:10434000247379732F365332365A6B663834502FB4
:10435000455350383236362F7468696E672F707245
:104360006F70657274792F706F73740001460A69FB
:10437000D1E901309860D1E9010358605068884262
:1043800001D188685060002008611068401E1060EC
:104390001068704700F1080141604FF0FF31816003
:1043A00000F10801C1600161002101607047002136
:1043B0000161704710B502460B685C1C0CB91069AE
:1043C00007E002F1080000E04068446824689C426D
:1043D000FAD944684C604C68A160886041600A6109
:1043E0001468641C146010BD42684A6093688B6056
:1043F000936859609160086103685B1C03607047B3
:1044000000BF502080F31188BFF34F8FBFF36F8F31
:1044100000BF03480068401C014908607047000065
:10442000E800002006480068401E0549086008466C
:10443000006820B9002080F3118800BF00BF7047DA
:10444000E800002070B506463546FEB1083D2C4612
:104450000F49606809680840C0B12068B0B90C49CC
:10446000606809688843606000F080F90949606805
:1044700009680844074908602046FEF7D5FE06484B
:104480000068401C0449086000F08EFD70BD00000B
:10449000E4000020D4000020E000002000204FF0C5
:1044A000E0210861886107480068C0084FF47A710C
:1044B000B0FBF1F0401E4FF0E0214861032008619D
:1044C000704700005800002010B502460B4600213E
:1044D000BBB1002012E00D4C04EBC00464689442B0
:1044E00003D10A4C04EBC0010AE031B9074C54F87F
:1044F000304014B9054C04EBC001401C0828EAD335
:1045000000BF09B10B604A6010BD000084020020AA
:104510002DE9F04105460E4617462C46FFF770FF81
:1045200094F94400401C10B9002084F8440094F928
:104530004500401C10B9002084F84500FFF772FFC9
:10454000A06B28B93A46314604F1240000F0ACF8DB
:104550002046FFF76BF8BDE8F081000070B5044617
:10456000002544B100F002F900212046FEF7CCFB03
:1045700000F01AFD05463DB94FF080500349086030
:10458000BFF34F8FBFF36F8F70BD000004ED00E0ED
:1045900070B50546FFF734FF15B92948006800E0FB
:1045A00028460446201DFFF7E1FE78B9E06A00EBDB
:1045B0008000244951F8200040B994F82C100120C3
:1045C00088402149096881431F480160A06A18B1E9
:1045D00004F11800FFF7CAFE1C480068401C1B4984
:1045E000086017480068844209D1211D1848FFF768
:1045F000FBFE18480068401C1649086006E0164893
:104600000068401E14490860FEF7A8FFFFF70AFF84
:104610000B480068844202D02046FEF7FBFC0F489E
:10462000006858B106480068844207D14FF08050B6
:104630000B490860BFF34F8FBFF36F8F70BD000051
:1046400074000020C40200208C000020A000002084
:1046500080050020800000208400002090000020C1
:1046600004ED00E0034909680160034909684160FD
:10467000704700009C0000208800002001200149B4
:10468000086070479800002070B505460C46054844
:10469000016818312846FFF78DFE01212046FEF7FC
:1046A00033FB70BD7400002070B504460E461546FD
:1046B00060680F490968C8610D49826809680A6223
:1046C0000B49096818318268516009490968183135
:1046D0008160074909688C622168491C21600DB11D
:1046E0004FF0FF3629463046FEF70EFB70BD000046
:1046F000740000201CB5154800210B468022CDE92E
:10470000001013A1144800F077FA0446012C02D1DE
:1047100000F0F8FC0446012C14D100BF502080F3B7
:104720001188BFF34F8FBFF36F8F00BF4FF0FF3083
:104730000A49086001200A49086000200949086008
:1047400000F04CF8084800681CBD0000A8000020DC
:1047500049444C4500000000CD300008A400002072
:104760009000002088000020AC0000200248006873
:10477000401C014908607047B000002012480068E2
:1047800018B10120114908601DE000200F490860A0
:104790000F480068B0FA80F0C0F11F0101EB810200
:1047A0000C4B03EB820042685268426000F1080241
:1047B0004368934202D14268526842604268D268BC
:1047C000054B1A6000BF7047B00000209800002021
:1047D0008C000020C40200207400002010B50A489C
:1047E000006840F47000084908600846006840F01E
:1047F00070400860FFF752FE002004490860FBF794
:10480000DFFC002010BD000020ED00E0E8000020EB
:1048100010B500BF502080F31188BFF34F8FBFF356
:104820006F8F00BF00F01EFA18B14FF0805004499E
:10483000086000BF002080F3118800BF10BD000099
:1048400004ED00E02DE9F84304460E461746002526
:10485000DCB1681EB0FBF4F0B04216D304FB06F0E6
:1048600010F1550F11D804FB06F909F15400FEF7B9
:1048700025FF05464DB1A84608F154083B4642467F
:10488000314620460095FEF735FC2846BDE8F88302
:104890002DE9F04105460E4601272C46002C41D05B
:1048A000E06B00283ED0B91EE06BB1FBF0F0216C4C
:1048B000884237D3FFF7A4FDD4E90F12206801FB2B
:1048C0000200A0600020A06320686060E06B401ED2
:1048D000226C216800FB0211E160FF2084F8440093
:1048E00084F845009EB9206908B9012000E0002045
:1048F000A8B904F1100000F0D3FA80B14FF0805055
:104900000A490860BFF34F8FBFF36F8F07E004F1D0
:104910001000FFF73FFD04F12400FFF73BFDFFF718
:1049200081FD00E000273846BDE8F08104ED00E09D
:104930002DE9FF4782B0074688461D464FF0000923
:104940003C4600BFFFF75CFDA06BE16B884201D3E2
:10495000022D3ED1D4F838A02A4641462046FEF723
:104960001AFB0646A06C88B1022D02D1BAF1000FE5
:1049700029D12046FEF7D4FC28B34FF080503D49A2
:104980000860BFF34F8FBFF36F8F1CE0606A08B9F8
:10499000012000E0002068B904F1240000F080FA52
:1049A00088B14FF0805033490860BFF34F8FBFF399
:1049B0006F8F08E03EB14FF080502E490860BFF382
:1049C0004F8FBFF36F8FFFF72DFD012006B0BDE8BD
:1049D000F087049818B9FFF725FD0020F6E7B9F134
:1049E000000F04D16846FFF73DFE4FF00109FFF7C5
:1049F00019FDFFF7BBFEFFF703FD94F94400401CCF
:104A000010B9002084F8440094F94500401C10B906
:104A1000002084F84500FFF705FD04A9684600F072
:104A2000ADF8F8B92046FEF76CFCA8B104F110000F
:104A30000499FFF729FE2046FEF7F8FD00F0B4FACE
:104A400000287FF47FAF4FF080500A490860BFF321
:104A50004F8FBFF36F8F75E72046FEF7E7FD00F03D
:104A6000A3FA6FE72046FEF7E1FD00F09DFA002073
:104A7000ACE7000004ED00E02DE9F74183B0054606
:104A80000F464FF000082C4600BFFFF7B9FCA66B9D
:104A9000F6B139462046FEF769FA701EA063206918
:104AA00008B9012000E0002060B904F1100000F016
:104AB000F7F938B14FF080502F490860BFF34F8F9E
:104AC000BFF36F8FFFF7AEFC012006B0BDE8F081A9
:104AD000059818B9FFF7A6FC0020F6E7B8F1000F1B
:104AE00004D101A8FFF7BEFD4FF00108FFF79AFCC3
:104AF000FFF73CFEFFF784FC94F94400401C10B91A
:104B0000002084F8440094F94500401C10B90020AE
:104B100084F84500FFF786FC05A901A800F02EF8EF
:104B2000F0B92046FEF7E0FBA0B104F1240005999E
:104B3000FFF7AAFD2046FEF779FD00F035FA0028C0
:104B4000A3D14FF080500C490860BFF34F8FBFF3E3
:104B50006F8F9AE72046FEF769FD00F025FA94E78B
:104B60002046FEF763FD00F01FFA2046FEF7BCFB6F
:104B700000288AD00020A8E704ED00E070B50646C2
:104B80000C46FFF73DFC194802687068131A184874
:104B9000006890F8590030B100201549096881F883
:104BA000590001251EE02068401C08B9002519E0C5
:104BB000104930680968884206D07068904203D86E
:104BC0000125002020600DE02068984207D9206868
:104BD000C01A20603046FFF745FD002502E00020A6
:104BE00020600125FFF71EFC284670BD88000020CC
:104BF000740000209C0000202DE9FF4F85B0804606
:104C000089461746DDE912ABB800FEF757FD0646A8
:104C100056B15C20FEF752FD04460CB1266304E059
:104C20003046FFF70FFC00E000247CB10020CDE906
:104C300000ABCDE902403A4649464046089BFEF7A4
:104C400070FA2046FEF7C6F8012501E04FF0FF3567
:104C5000284609B0BDE8F08F014908687047000098
:104C6000880000202DE9F0410027574800680028FF
:104C70007ED156480068451C544805608DB954489B
:104C8000D0F8008053480068514908605148C0F886
:104C9000008051480068401C4F490860FEF75EFCE8
:104CA00000BF4E480068854276D300BF4848006880
:104CB000006808B9012000E0002020B14FF0FF306B
:104CC0004649086067E042480068C068C468666892
:104CD000B54202D2414806605DE06069D4E9021243
:104CE0008A60D4E902214A60211D42688A4201D1CA
:104CF000E1684160002262610168491E0160A06AAA
:104D000098B1A06AD4E907128A60D4E907214A6001
:104D100004F1180142688A4201D1216A41600022EF
:104D2000A2620168491E016000BF94F82C100120A6
:104D300088402B490968084329490860E16A01EB6A
:104D40008101284A02EB81014868A0608268E26024
:104D5000211D826851608160E16A01EB8101214A75
:104D600002EB81026261E16A01EB81011D4A00E010
:104D700022E052F82110491CE26A02EB8202194B30
:104D800043F822101849E06A0968C96A88428DD33D
:104D900001278BE700E000BF13480068C06A00EB02
:104DA0008000104951F82000012800D901270F4840
:104DB000006800B1012704E00D480068401C0C4960
:104DC00008603846BDE8F081B0000020880000206F
:104DD000780000207C0000209C000020A40000201F
:104DE0008C000020C40200207400002098000020E5
:104DF0009400002070B505462C460026002D48D0B2
:104E0000206D401E2065E16CE06A884241D0206D33
:104E100000283ED1201DFFF7A9FA40B994F82C10C4
:104E2000012088401C49096881431B480160E06CEF
:104E3000E062E06AC0F12000A06194F82C1001202B
:104E4000884015490968084313490860E16A01EB85
:104E50008101124A02EB81014868A0608268E26029
:104E6000211D826851608160E16A01EB81010B4A7A
:104E700002EB81026261E16A01EB8101074A52F8AB
:104E80002110491CE26A02EB8202044B43F8221013
:104E90000126304670BD00008C000020C4020020B6
:104EA00070B50346D868C168886AD1E90745A5602E
:104EB000D1E90754656001F118044568A54201D1A4
:104EC0000C6A446000258D620468641E04603048EA
:104ED000006800283DD14869D1E90245A560D1E9C3
:104EE000025465600C1D4568A54201D1CC68446040
:104EF00000254D610468641E046091F82C40012077
:104F0000A040244C24682043224C2060CC6A04EB4F
:104F10008404214D05EB8404606888608568CD6059
:104F20000C1D85686C608460CC6A04EB84041A4DA7
:104F300005EB84054D61CC6A04EB8404164D55F8ED
:104F40002440641CCD6A05EB8505134E46F82540C8
:104F500010E0124C6068C86185680D6201F11804A8
:104F600085686C6084600D4D8D622C462468641CDD
:104F70002C6000BF0A4CC86A2468E46AA04204D9C5
:104F800001220120074C206000E00022104670BD85
:104F9000B00000208C000020C40200206C0500201E
:104FA000740000209800002070B500240026FFF750
:104FB00027FA4B480068401E4949086008460068C7
:104FC00000287DD147480068002879D05BE046483A
:104FD000C068C468A06AD4E907128A60D4E90721CE
:104FE0004A6004F1180142688A4201D1216A416095
:104FF0000022A2620168491E01606069D4E90212C0
:105000008A60D4E902214A60211D42688A4201D1A6
:10501000E1684160002262610168491E016094F804
:105020002C10012088403149096808432F49086045
:10503000E16A01EB81012E4A02EB81014868A06020
:105040008268E260211D826851608160E16A01EB43
:105050008101274A02EB81026261E16A01EB810171
:10506000234A52F82110491CE26A02EB8202204BCB
:1050700043F822101F49E06A0968C96A884202D3CE
:1050800001201D4908601848006808B9012000E0A7
:10509000002000289BD00CB1FEF760FA1748056885
:1050A00065B100BFFFF7DEFD10B1012012490860B5
:1050B0006D1E002DF6D10020104908600E4800E05A
:1050C00009E0006838B1012630070D490860BFF3D8
:1050D0004F8FBFF36F8FFFF7A5F9304670BD00000B
:1050E000B0000020840000206C0500208C0000200F
:1050F000C4020020740000209800002094000020CA
:1051000004ED00E01CB50024FDF7DAFE0848006855
:1051100058B108481F2100234FF48072CDE90010D8
:1051200005A10748FFF768FD044620461CBD0000A6
:10513000BC000020C0000020546D72205376630034
:105140001336000890EA010F48BF81F0004100F1DA
:105150009282421A3CBF801A89184FEAD0524FF00F
:105160007F4C1CEA410FA2EBD15318BF9CEA026F9F
:1051700000F03B804FF0004C4CEA00204CEA01214B
:1051800021FA03FC10EB0C0C1ED202F1FF325FEA95
:105190001C2040EBC25038BF70471CF07F0F4FEA15
:1051A000400C18BFBCF17F4F38BF7047C3F12003DC
:1051B000994008BF20F00100BCF17F4F38BF704715
:1051C000A0F1C04000F019BA4FEA3C00000A40EBE1
:1051D000C25028BF1CF0FF0F4FEA400CE6D018BFAA
:1051E000BCF17F4F38BF7047EAE79CEA026F05D0F9
:1051F00010EA5C0F08BF00F00040704710B500F0E7
:10520000B6F900BF64FBBE3E401058BFC0F140403D
:10521000491058BFC1F140418142EFF3008070470F
:105220004FF47F0C1CEAD0121EBF1CEAD11392EA85
:105230000C0F93EA0C0F00F0858090EA010F48BF35
:1052400042F4807240F4000C41F400002CF07F41E5
:1052500020F07F4000B58142A2EB03020FF2081C50
:10526000ACEB504EC0F100009EF800E04FEA4E0E4D
:1052700000FB0EFC38BF49004FEA2C1C02F5FA0275
:105280000CFB0EF34FEACE1E4FEA112C4FEAC12160
:105290000EEB635E42EB22420EFB0CFC4FEA1C530A
:1052A00000FB03114FEA112C4FEA01310EFB0CFCFD
:1052B0004FEADC4C00FB0C11C14228BF09184CEB33
:1052C00003335DF804EB10EB410143EBC250B2F540
:1052D0007C0F38BF704729D512F0F00F1CBF00F1CA
:1052E000C04000F00040704700818283848586873B
:1052F00088898B8C8D8E8F919293959697999A9C95
:105300009D9FA0A2A3A5A7A8AAACAEB0B2B3B5B703
:10531000B9BCBEC0C2C5C7C9CCCED1D4D7D9DCDFD9
:10532000E2E6E9ECF0F3F7FAFE0000004FEA400C89
:105330000CF1807CBCF17E4F28BF7047B0F1C040BB
:1053400000F05BB990EA010F0CEAD11348BF42F4B8
:105350008072624538BF634507D213F47F0F16D0C1
:1053600080EA010000F00040704710B500F0FFF83F
:10537000097EFC3E00F005B880EA010000F0004024
:10538000704780EA010000F0004000F036B912F4E6
:105390007F0F04BF0248704780EA010000F02DB97A
:1053A0000000C07F41000B0ED3F19E0208D950F4DB
:1053B00000034FEA032323FA02F048BF404270473C
:1053C00010B500F0D4F800BF499224800020704747
:1053D0006FF0004282EA200070470000B0FA80F3CC
:1053E00010FA03F2C3F19D030AD0D90501EB122094
:1053F000530638BF704700F1010008BF20F00100DC
:105400007047000050EA010C00F113801CF5000FFA
:1054100058BFBCF5000F01D48842704707D710F57C
:10542000000F58BF11F5000F15D48842704789420C
:1054300070471CF5000F04D5BCF5000FF7D581426D
:1054400070474FF0807C1CEB400F38BF1CEB410FC6
:1054500001D28142704710B500F089F892244900CA
:105460004FF000504FF08051FFF7CEBE4FF47F0C4D
:105470001CEAD0121EBF1CEAD11392EA0C0F93EA69
:105480000C0F00F0478090EA010F48BF42F4807291
:105490004FF0004C4CEA00204CEA012102EB0302E1
:1054A000A0FB0113A2F50002002918BF43F001037D
:1054B0005B0028BF4FEA330342EB22425FEA132C22
:1054C0004CEBC2502EBFBCEB436FB2F57C0F704764
:1054D0004FEA036CBCF1004F08BF20F00100B2F5A9
:1054E0007C0F38BF70470BD582F0FF0212F5803F6A
:1054F000C8BF704700F1C040D8BF00F000407047FF
:1055000000F5000C5FEA4C0C48BF7047B0F1C0409A
:1055100000F073B890EA010F0CEAD11348BF42F4CF
:105520008072624538BF634504D280EA010000F012
:105530000040704710B500F01AF800BF8900013E26
:1055400000F007B800F009B85FEA410C5FEA1C6C94
:1055500008D080EA010000F050B85FEA400C5FEA32
:105560001C6CF6D14FF00040A0F5800070470EF1A2
:10557000020E2EF0030E5EF8044B244204D44FEAD0
:105580004102B2F17F4F11D84FEA4003B3F17F4F90
:105590000CD80ED14FEAD07CB2F17F4F0CEB4C0C03
:1055A0000CF1020C08BF4CEBD17C04E04FF0080C6E
:1055B00001E04FEAD17C0CEB4C0324FA03F404F035
:1055C0000704B4F1040C06D20EEB840CBDE81040C5
:1055D0004CF0010C6047DFE80CF0070802024FF0C6
:1055E0000040A0F5800010BD0846420018BFD2F16F
:1055F000807288BF00F0004010BDFF2141EAD0500A
:10560000C005704751EA000C00F113801CF5000F33
:1056100058BFBCF5000F01D48142704707D711F580
:10562000000F58BF10F5000F15D481427047894212
:1056300070471CF5000F04D5BCF5000FF7D5884264
:1056400070474FF0807C1CEB410F38BF1CEB400FC4
:1056500001D28842704780EA010081EA000180EAB5
:105660000100FFF7F8BE000090EA010F48BF81F08B
:1056700000413FF56EAD421A04D882F00042A0EB23
:10568000020011444FEAD0524FF07F4C1CEA410F08
:10569000A2EBD15318BF9CEA026F4AD04FF0004CE6
:1056A0004CEA00204CEA012121FA03FCB0EB0C0C7F
:1056B0000FD412F0FE0F36D05FEA4C001DD5001259
:1056C00040EBC25038BF70471CF03F0F18BF704707
:1056D0000BE0A2F101025FEA1C2040EBC25038BF90
:1056E00070471CF07F0F18BF7047C3F1200399402B
:1056F00014BF401E20F00100704780084FEA1223BB
:1057000008BF7047B0FA80FCA2EB0C02CCF1280C69
:1057100060FA0CF093EA122F04BF00EBC2507047FE
:105720004FEAC3707047130A5FEADC1008BF704786
:10573000F6E79CEA026F04D010EA5C0F08BF002075
:10574000704710B5FFF713FF40DFF63E81F00040D1
:105750007047000000000000000000000000000092
:105760000404040404040004000000140A0A0000F5
:10577000000000000000000014143F140A3F0A0A51
:10578000000000041E1505060C14150F040000008F
:1057900012150D0A142C2A1200000000040A0A1E19
:1057A000151509360000000202010000000000008B
:1057B0000000002010080808080808102000000257
:1057C0000408080808080804020000000004150E78
:1057D0000E150400000000000404041F040404006B
:1057E00000000000000000000000000202010000B4
:1057F0000000001F0000000000000000000000008A
:105800000000000200000010080808040402020260
:10581000010000000E1111111111110E0000000005
:10582000040604040404040E000000000E11110814
:105830000402011F000000000E11100C1010110EC8
:1058400000000000080C0A0A091E081800000000E9
:105850001F01010F1010110E000000000E09010FB2
:105860001111110E000000001F09080404040404B3
:10587000000000000E11110E1111110E00000000A9
:105880000E1111111E10120E000000000000040085
:1058900000000004000000000000000400000004FC
:1058A000040000201008040204081020000000007A
:1058B00000001F00001F000000000002040810206C
:1058C00010080402000000000E1111080404000476
:1058D000000000000E111915151D011E000000002A
:1058E00004040C0A0A1E1233000000000F12120EEC
:1058F0001212120F000000001E1101010101110E11
:10590000000000000F1212121212120F000000000D
:105910001F120A0E0A02121F000000001F120A0EB8
:105920000A020207000000001C1201013911120CCA
:10593000000000003312121E121212330000000089
:105940001F0404040404041F000000003E080808AB
:10595000080808090700000037120A060A0A123769
:1059600000000000070202020202223F00000000C5
:105970001B1B1B1B15151515000000003B121616EE
:105980001A1A1217000000000E1111111111110E38
:10599000000000000F12120E0202020700000000B9
:1059A0000E1111111117190E180000000F12120E0E
:1059B0000A121237000000001E1101060810110F14
:1059C000000000001F1504040404040E0000000081
:1059D000331212121212120C000000003312120ABB
:1059E0000A0C0404000000001515150E0A0A0A0A24
:1059F000000000001B0A0A04040A0A1B0000000041
:105A00001B0A0A040404040E000000001F09080415
:105A10000402121F0000001C040404040404040413
:105A20001C00000202020404080808100000000E16
:105A300008080808080808080E0000040A0000000A
:105A40000000000000000000000000000000000056
:105A5000003F000400000000000000000000000003
:105A60000000000C121C123C000000000302020E99
:105A70001212120E000000000000001C1202021C94
:105A8000000000001810101C1212123C0000000050
:105A90000000000C121E021C000000003804041E4E
:105AA0000404041E000000000000003C120C021E52
:105AB000221C00000302020E121212370000000026
:105AC000040000060404040E000000000800000C9E
:105AD00008080808080700000302023A0A0E1237F5
